{
  "_format": "hh3-artifact-1",
  "contractName": "Comments",
  "sourceName": "contracts/Comments.sol",
  "abi": [
    {
      "inputs": [
        {
          "internalType": "address",
          "name": "_profileContract",
          "type": "address"
        },
        {
          "internalType": "address",
          "name": "_postsContract",
          "type": "address"
        }
      ],
      "stateMutability": "nonpayable",
      "type": "constructor"
    },
    {
      "anonymous": false,
      "inputs": [
        {
          "indexed": true,
          "internalType": "uint256",
          "name": "postId",
          "type": "uint256"
        },
        {
          "indexed": true,
          "internalType": "uint256",
          "name": "commentId",
          "type": "uint256"
        },
        {
          "indexed": true,
          "internalType": "address",
          "name": "author",
          "type": "address"
        },
        {
          "indexed": false,
          "internalType": "string",
          "name": "content",
          "type": "string"
        }
      ],
      "name": "CommentAdded",
      "type": "event"
    },
    {
      "anonymous": false,
      "inputs": [
        {
          "indexed": true,
          "internalType": "uint256",
          "name": "commentId",
          "type": "uint256"
        }
      ],
      "name": "CommentDeleted",
      "type": "event"
    },
    {
      "anonymous": false,
      "inputs": [
        {
          "indexed": true,
          "internalType": "uint256",
          "name": "commentId",
          "type": "uint256"
        }
      ],
      "name": "CommentUpdated",
      "type": "event"
    },
    {
      "inputs": [
        {
          "internalType": "uint256",
          "name": "_postId",
          "type": "uint256"
        },
        {
          "internalType": "string",
          "name": "_content",
          "type": "string"
        }
      ],
      "name": "addComment",
      "outputs": [],
      "stateMutability": "nonpayable",
      "type": "function"
    },
    {
      "inputs": [
        {
          "internalType": "uint256",
          "name": "_commentId",
          "type": "uint256"
        }
      ],
      "name": "deleteComment",
      "outputs": [],
      "stateMutability": "nonpayable",
      "type": "function"
    },
    {
      "inputs": [
        {
          "internalType": "uint256",
          "name": "_postId",
          "type": "uint256"
        }
      ],
      "name": "getComments",
      "outputs": [
        {
          "components": [
            {
              "components": [
                {
                  "internalType": "uint256",
                  "name": "id",
                  "type": "uint256"
                },
                {
                  "internalType": "uint256",
                  "name": "postId",
                  "type": "uint256"
                },
                {
                  "internalType": "address",
                  "name": "author",
                  "type": "address"
                },
                {
                  "internalType": "string",
                  "name": "content",
                  "type": "string"
                },
                {
                  "internalType": "uint256",
                  "name": "timestamp",
                  "type": "uint256"
                },
                {
                  "internalType": "bool",
                  "name": "exists",
                  "type": "bool"
                }
              ],
              "internalType": "struct Comments.Comment",
              "name": "comment",
              "type": "tuple"
            },
            {
              "components": [
                {
                  "internalType": "address",
                  "name": "account",
                  "type": "address"
                },
                {
                  "internalType": "string",
                  "name": "displayName",
                  "type": "string"
                },
                {
                  "internalType": "string",
                  "name": "bio",
                  "type": "string"
                },
                {
                  "internalType": "string",
                  "name": "avatarURI",
                  "type": "string"
                },
                {
                  "internalType": "uint256",
                  "name": "balance",
                  "type": "uint256"
                },
                {
                  "internalType": "bool",
                  "name": "exists",
                  "type": "bool"
                }
              ],
              "internalType": "struct Profile.UserProfile",
              "name": "profile",
              "type": "tuple"
            }
          ],
          "internalType": "struct Comments.CommentWithProfile[]",
          "name": "",
          "type": "tuple[]"
        }
      ],
      "stateMutability": "view",
      "type": "function"
    },
    {
      "inputs": [
        {
          "internalType": "uint256",
          "name": "_commentId",
          "type": "uint256"
        },
        {
          "internalType": "string",
          "name": "_content",
          "type": "string"
        }
      ],
      "name": "updateComment",
      "outputs": [],
      "stateMutability": "nonpayable",
      "type": "function"
    }
  ],
  "bytecode": "0x608060405234801561000f575f5ffd5b50604051611e95380380611e958339818101604052810190610031919061011d565b815f5f6101000a81548173ffffffffffffffffffffffffffffffffffffffff021916908373ffffffffffffffffffffffffffffffffffffffff1602179055508060015f6101000a81548173ffffffffffffffffffffffffffffffffffffffff021916908373ffffffffffffffffffffffffffffffffffffffff1602179055506001600281905550505061015b565b5f5ffd5b5f73ffffffffffffffffffffffffffffffffffffffff82169050919050565b5f6100ec826100c3565b9050919050565b6100fc816100e2565b8114610106575f5ffd5b50565b5f81519050610117816100f3565b92915050565b5f5f60408385031215610133576101326100bf565b5b5f61014085828601610109565b925050602061015185828601610109565b9150509250929050565b611d2d806101685f395ff3fe608060405234801561000f575f5ffd5b506004361061004a575f3560e01c806323edf6971461004e5780635b5da5051461007e5780637d0b10261461009a578063aa7e5683146100b6575b5f5ffd5b61006860048036038101906100639190610d5e565b6100d2565b6040516100759190611077565b60405180910390f35b610098600480360381019061009391906111c3565b6103df565b005b6100b460048036038101906100af9190610d5e565b610545565b005b6100d060048036038101906100cb91906111c3565b6106ea565b005b60605f60045f8481526020019081526020015f2080548060200260200160405190810160405280929190818152602001828054801561012e57602002820191905f5260205f20905b81548152602001906001019080831161011a575b505050505090505f815167ffffffffffffffff8111156101515761015061109f565b5b60405190808252806020026020018201604052801561018a57816020015b610177610c08565b81526020019060019003908161016f5790505b5090505f5f90505b82518110156103d4575f60035f8584815181106101b2576101b161121d565b5b602002602001015181526020019081526020015f206040518060c00160405290815f820154815260200160018201548152602001600282015f9054906101000a900473ffffffffffffffffffffffffffffffffffffffff1673ffffffffffffffffffffffffffffffffffffffff1673ffffffffffffffffffffffffffffffffffffffff16815260200160038201805461024a90611277565b80601f016020809104026020016040519081016040528092919081815260200182805461027690611277565b80156102c15780601f10610298576101008083540402835291602001916102c1565b820191905f5260205f20905b8154815290600101906020018083116102a457829003601f168201915b5050505050815260200160048201548152602001600582015f9054906101000a900460ff16151515158152505090505f5f5f9054906101000a900473ffffffffffffffffffffffffffffffffffffffff1673ffffffffffffffffffffffffffffffffffffffff16630f53a47083604001516040518263ffffffff1660e01b815260040161034e91906112b6565b5f60405180830381865afa158015610368573d5f5f3e3d5ffd5b505050506040513d5f823e3d601f19601f82011682018060405250810190610390919061149e565b90506040518060400160405280838152602001828152508484815181106103ba576103b961121d565b5b602002602001018190525050508080600101915050610192565b508092505050919050565b8160035f8281526020019081526020015f206005015f9054906101000a900460ff16610440576040517f08c379a00000000000000000000000000000000000000000000000000000000081526004016104379061153f565b60405180910390fd5b823373ffffffffffffffffffffffffffffffffffffffff1660035f8381526020019081526020015f206002015f9054906101000a900473ffffffffffffffffffffffffffffffffffffffff1673ffffffffffffffffffffffffffffffffffffffff16146104e2576040517f08c379a00000000000000000000000000000000000000000000000000000000081526004016104d9906115a7565b60405180910390fd5b5f60035f8681526020019081526020015f209050838160030190816105079190611765565b50428160040181905550847f2c13ccb7c45eedc935448fdf1f435974a1d22bef179ca4fab414abbb31a1e4fc60405160405180910390a25050505050565b8060035f8281526020019081526020015f206005015f9054906101000a900460ff166105a6576040517f08c379a000000000000000000000000000000000000000000000000000000000815260040161059d9061153f565b60405180910390fd5b813373ffffffffffffffffffffffffffffffffffffffff1660035f8381526020019081526020015f206002015f9054906101000a900473ffffffffffffffffffffffffffffffffffffffff1673ffffffffffffffffffffffffffffffffffffffff1614610648576040517f08c379a000000000000000000000000000000000000000000000000000000000815260040161063f906115a7565b60405180910390fd5b60035f8481526020019081526020015f205f5f82015f9055600182015f9055600282015f6101000a81549073ffffffffffffffffffffffffffffffffffffffff0219169055600382015f61069c9190610c2e565b600482015f9055600582015f6101000a81549060ff02191690555050827fb56539a3b332b00ffce8c0f70bfb1813db25879d5c24012911a39c74ddab8f9860405160405180910390a2505050565b815f60015f9054906101000a900473ffffffffffffffffffffffffffffffffffffffff1673ffffffffffffffffffffffffffffffffffffffff166340731c24836040518263ffffffff1660e01b81526004016107469190611843565b5f60405180830381865afa158015610760573d5f5f3e3d5ffd5b505050506040513d5f823e3d601f19601f820116820180604052508101906107889190611a54565b9050805f015160c001516107d1576040517f08c379a00000000000000000000000000000000000000000000000000000000081526004016107c890611ae5565b60405180910390fd5b5f5f5f9054906101000a900473ffffffffffffffffffffffffffffffffffffffff1673ffffffffffffffffffffffffffffffffffffffff16630f53a470336040518263ffffffff1660e01b815260040161082b91906112b6565b5f60405180830381865afa158015610845573d5f5f3e3d5ffd5b505050506040513d5f823e3d601f19601f8201168201806040525081019061086d919061149e565b90508060a001516108b3576040517f08c379a00000000000000000000000000000000000000000000000000000000081526004016108aa90611b4d565b60405180910390fd5b6040518060c0016040528060025481526020018681526020013373ffffffffffffffffffffffffffffffffffffffff1681526020018581526020014281526020016001151581525060035f60025481526020019081526020015f205f820151815f0155602082015181600101556040820151816002015f6101000a81548173ffffffffffffffffffffffffffffffffffffffff021916908373ffffffffffffffffffffffffffffffffffffffff160217905550606082015181600301908161097b9190611765565b506080820151816004015560a0820151816005015f6101000a81548160ff02191690831515021790555090505060045f8681526020019081526020015f20600254908060018154018082558091505060019003905f5260205f20015f90919091909150555f5f9054906101000a900473ffffffffffffffffffffffffffffffffffffffff1673ffffffffffffffffffffffffffffffffffffffff1663384bc4663360056040518363ffffffff1660e01b8152600401610a3b929190611ba4565b5f604051808303815f87803b158015610a52575f5ffd5b505af1158015610a64573d5f5f3e3d5ffd5b505050505f60015f9054906101000a900473ffffffffffffffffffffffffffffffffffffffff1673ffffffffffffffffffffffffffffffffffffffff166340731c24876040518263ffffffff1660e01b8152600401610ac39190611843565b5f60405180830381865afa158015610add573d5f5f3e3d5ffd5b505050506040513d5f823e3d601f19601f82011682018060405250810190610b059190611a54565b90505f5f9054906101000a900473ffffffffffffffffffffffffffffffffffffffff1673ffffffffffffffffffffffffffffffffffffffff1663384bc466825f01516020015160016040518363ffffffff1660e01b8152600401610b6a929190611c04565b5f604051808303815f87803b158015610b81575f5ffd5b505af1158015610b93573d5f5f3e3d5ffd5b505050503373ffffffffffffffffffffffffffffffffffffffff16600254877f96d81cac001a263174d42d42cfad470fec9d863bcf6d52ba8b93d47c7ee00de388604051610be19190611c63565b60405180910390a460025f815480929190610bfb90611cb0565b9190505550505050505050565b6040518060400160405280610c1b610c6b565b8152602001610c28610cb4565b81525090565b508054610c3a90611277565b5f825580601f10610c4b5750610c68565b601f0160209004905f5260205f2090810190610c679190610cff565b5b50565b6040518060c001604052805f81526020015f81526020015f73ffffffffffffffffffffffffffffffffffffffff168152602001606081526020015f81526020015f151581525090565b6040518060c001604052805f73ffffffffffffffffffffffffffffffffffffffff1681526020016060815260200160608152602001606081526020015f81526020015f151581525090565b5b80821115610d16575f815f905550600101610d00565b5090565b5f604051905090565b5f5ffd5b5f5ffd5b5f819050919050565b610d3d81610d2b565b8114610d47575f5ffd5b50565b5f81359050610d5881610d34565b92915050565b5f60208284031215610d7357610d72610d23565b5b5f610d8084828501610d4a565b91505092915050565b5f81519050919050565b5f82825260208201905092915050565b5f819050602082019050919050565b610dbb81610d2b565b82525050565b5f73ffffffffffffffffffffffffffffffffffffffff82169050919050565b5f610dea82610dc1565b9050919050565b610dfa81610de0565b82525050565b5f81519050919050565b5f82825260208201905092915050565b8281835e5f83830152505050565b5f601f19601f8301169050919050565b5f610e4282610e00565b610e4c8185610e0a565b9350610e5c818560208601610e1a565b610e6581610e28565b840191505092915050565b5f8115159050919050565b610e8481610e70565b82525050565b5f60c083015f830151610e9f5f860182610db2565b506020830151610eb26020860182610db2565b506040830151610ec56040860182610df1565b5060608301518482036060860152610edd8282610e38565b9150506080830151610ef26080860182610db2565b5060a0830151610f0560a0860182610e7b565b508091505092915050565b5f60c083015f830151610f255f860182610df1565b5060208301518482036020860152610f3d8282610e38565b91505060408301518482036040860152610f578282610e38565b91505060608301518482036060860152610f718282610e38565b9150506080830151610f866080860182610db2565b5060a0830151610f9960a0860182610e7b565b508091505092915050565b5f604083015f8301518482035f860152610fbe8282610e8a565b91505060208301518482036020860152610fd88282610f10565b9150508091505092915050565b5f610ff08383610fa4565b905092915050565b5f602082019050919050565b5f61100e82610d89565b6110188185610d93565b93508360208202850161102a85610da3565b805f5b8581101561106557848403895281516110468582610fe5565b945061105183610ff8565b925060208a0199505060018101905061102d565b50829750879550505050505092915050565b5f6020820190508181035f83015261108f8184611004565b905092915050565b5f5ffd5b5f5ffd5b7f4e487b71000000000000000000000000000000000000000000000000000000005f52604160045260245ffd5b6110d582610e28565b810181811067ffffffffffffffff821117156110f4576110f361109f565b5b80604052505050565b5f611106610d1a565b905061111282826110cc565b919050565b5f67ffffffffffffffff8211156111315761113061109f565b5b61113a82610e28565b9050602081019050919050565b828183375f83830152505050565b5f61116761116284611117565b6110fd565b9050828152602081018484840111156111835761118261109b565b5b61118e848285611147565b509392505050565b5f82601f8301126111aa576111a9611097565b5b81356111ba848260208601611155565b91505092915050565b5f5f604083850312156111d9576111d8610d23565b5b5f6111e685828601610d4a565b925050602083013567ffffffffffffffff81111561120757611206610d27565b5b61121385828601611196565b9150509250929050565b7f4e487b71000000000000000000000000000000000000000000000000000000005f52603260045260245ffd5b7f4e487b71000000000000000000000000000000000000000000000000000000005f52602260045260245ffd5b5f600282049050600182168061128e57607f821691505b6020821081036112a1576112a061124a565b5b50919050565b6112b081610de0565b82525050565b5f6020820190506112c95f8301846112a7565b92915050565b5f5ffd5b5f5ffd5b6112e081610de0565b81146112ea575f5ffd5b50565b5f815190506112fb816112d7565b92915050565b5f61131361130e84611117565b6110fd565b90508281526020810184848401111561132f5761132e61109b565b5b61133a848285610e1a565b509392505050565b5f82601f83011261135657611355611097565b5b8151611366848260208601611301565b91505092915050565b5f8151905061137d81610d34565b92915050565b61138c81610e70565b8114611396575f5ffd5b50565b5f815190506113a781611383565b92915050565b5f60c082840312156113c2576113c16112cf565b5b6113cc60c06110fd565b90505f6113db848285016112ed565b5f83015250602082015167ffffffffffffffff8111156113fe576113fd6112d3565b5b61140a84828501611342565b602083015250604082015167ffffffffffffffff81111561142e5761142d6112d3565b5b61143a84828501611342565b604083015250606082015167ffffffffffffffff81111561145e5761145d6112d3565b5b61146a84828501611342565b606083015250608061147e8482850161136f565b60808301525060a061149284828501611399565b60a08301525092915050565b5f602082840312156114b3576114b2610d23565b5b5f82015167ffffffffffffffff8111156114d0576114cf610d27565b5b6114dc848285016113ad565b91505092915050565b5f82825260208201905092915050565b7f436f6d6d656e7420646f6573206e6f74206578697374000000000000000000005f82015250565b5f6115296016836114e5565b9150611534826114f5565b602082019050919050565b5f6020820190508181035f8301526115568161151d565b9050919050565b7f4e6f7420636f6d6d656e7420617574686f7200000000000000000000000000005f82015250565b5f6115916012836114e5565b915061159c8261155d565b602082019050919050565b5f6020820190508181035f8301526115be81611585565b9050919050565b5f819050815f5260205f209050919050565b5f6020601f8301049050919050565b5f82821b905092915050565b5f600883026116217fffffffffffffffffffffffffffffffffffffffffffffffffffffffffffffffff826115e6565b61162b86836115e6565b95508019841693508086168417925050509392505050565b5f819050919050565b5f61166661166161165c84610d2b565b611643565b610d2b565b9050919050565b5f819050919050565b61167f8361164c565b61169361168b8261166d565b8484546115f2565b825550505050565b5f5f905090565b6116aa61169b565b6116b5818484611676565b505050565b5b818110156116d8576116cd5f826116a2565b6001810190506116bb565b5050565b601f82111561171d576116ee816115c5565b6116f7846115d7565b81016020851015611706578190505b61171a611712856115d7565b8301826116ba565b50505b505050565b5f82821c905092915050565b5f61173d5f1984600802611722565b1980831691505092915050565b5f611755838361172e565b9150826002028217905092915050565b61176e82610e00565b67ffffffffffffffff8111156117875761178661109f565b5b6117918254611277565b61179c8282856116dc565b5f60209050601f8311600181146117cd575f84156117bb578287015190505b6117c5858261174a565b86555061182c565b601f1984166117db866115c5565b5f5b82811015611802578489015182556001820191506020850194506020810190506117dd565b8683101561181f578489015161181b601f89168261172e565b8355505b6001600288020188555050505b505050505050565b61183d81610d2b565b82525050565b5f6020820190506118565f830184611834565b92915050565b5f6101808284031215611872576118716112cf565b5b61187d6101806110fd565b90505f61188c8482850161136f565b5f83015250602061189f848285016112ed565b602083015250604082015167ffffffffffffffff8111156118c3576118c26112d3565b5b6118cf84828501611342565b604083015250606082015167ffffffffffffffff8111156118f3576118f26112d3565b5b6118ff84828501611342565b606083015250608082015167ffffffffffffffff811115611923576119226112d3565b5b61192f84828501611342565b60808301525060a06119438482850161136f565b60a08301525060c061195784828501611399565b60c08301525060e061196b8482850161136f565b60e0830152506101006119808482850161136f565b61010083015250610120611996848285016112ed565b610120830152506101406119ac8482850161136f565b610140830152506101606119c284828501611399565b6101608301525092915050565b5f604082840312156119e4576119e36112cf565b5b6119ee60406110fd565b90505f82015167ffffffffffffffff811115611a0d57611a0c6112d3565b5b611a198482850161185c565b5f83015250602082015167ffffffffffffffff811115611a3c57611a3b6112d3565b5b611a48848285016113ad565b60208301525092915050565b5f60208284031215611a6957611a68610d23565b5b5f82015167ffffffffffffffff811115611a8657611a85610d27565b5b611a92848285016119cf565b91505092915050565b7f506f737420646f6573206e6f74206578697374000000000000000000000000005f82015250565b5f611acf6013836114e5565b9150611ada82611a9b565b602082019050919050565b5f6020820190508181035f830152611afc81611ac3565b9050919050565b7f50726f66696c65207265717569726564000000000000000000000000000000005f82015250565b5f611b376010836114e5565b9150611b4282611b03565b602082019050919050565b5f6020820190508181035f830152611b6481611b2b565b9050919050565b5f819050919050565b5f611b8e611b89611b8484611b6b565b611643565b610d2b565b9050919050565b611b9e81611b74565b82525050565b5f604082019050611bb75f8301856112a7565b611bc46020830184611b95565b9392505050565b5f819050919050565b5f611bee611be9611be484611bcb565b611643565b610d2b565b9050919050565b611bfe81611bd4565b82525050565b5f604082019050611c175f8301856112a7565b611c246020830184611bf5565b9392505050565b5f611c3582610e00565b611c3f81856114e5565b9350611c4f818560208601610e1a565b611c5881610e28565b840191505092915050565b5f6020820190508181035f830152611c7b8184611c2b565b905092915050565b7f4e487b71000000000000000000000000000000000000000000000000000000005f52601160045260245ffd5b5f611cba82610d2b565b91507fffffffffffffffffffffffffffffffffffffffffffffffffffffffffffffffff8203611cec57611ceb611c83565b5b60018201905091905056fea2646970667358221220b77db48ad36e517174b35fe0711a2b9cc52e72b7868b6cec465e4601572ffa8d64736f6c634300081c0033",
  "linkReferences": {},
  "deployedLinkReferences": {},
  "immutableReferences": {},
  "inputSourceName": "project/contracts/Comments.sol",
  "buildInfoId": "solc-0_8_28-59d13c1ab9ea8499a1ac9eaec599a84be48cade9"
}