{
  "_format": "hh3-artifact-1",
  "contractName": "Comments",
  "sourceName": "contracts/Comments.sol",
  "abi": [
    {
      "inputs": [
        {
          "internalType": "address",
          "name": "_profileContract",
          "type": "address"
        },
        {
          "internalType": "address",
          "name": "_postsContract",
          "type": "address"
        },
        {
          "internalType": "address",
          "name": "_tokenContract",
          "type": "address"
        }
      ],
      "stateMutability": "nonpayable",
      "type": "constructor"
    },
    {
      "anonymous": false,
      "inputs": [
        {
          "indexed": true,
          "internalType": "uint256",
          "name": "postId",
          "type": "uint256"
        },
        {
          "indexed": true,
          "internalType": "uint256",
          "name": "commentId",
          "type": "uint256"
        },
        {
          "indexed": true,
          "internalType": "address",
          "name": "author",
          "type": "address"
        },
        {
          "indexed": false,
          "internalType": "string",
          "name": "content",
          "type": "string"
        }
      ],
      "name": "CommentAdded",
      "type": "event"
    },
    {
      "anonymous": false,
      "inputs": [
        {
          "indexed": true,
          "internalType": "uint256",
          "name": "commentId",
          "type": "uint256"
        }
      ],
      "name": "CommentDeleted",
      "type": "event"
    },
    {
      "anonymous": false,
      "inputs": [
        {
          "indexed": true,
          "internalType": "uint256",
          "name": "commentId",
          "type": "uint256"
        },
        {
          "indexed": false,
          "internalType": "string",
          "name": "newContent",
          "type": "string"
        }
      ],
      "name": "CommentUpdated",
      "type": "event"
    },
    {
      "anonymous": false,
      "inputs": [
        {
          "indexed": true,
          "internalType": "uint256",
          "name": "commentId",
          "type": "uint256"
        },
        {
          "indexed": true,
          "internalType": "address",
          "name": "commenter",
          "type": "address"
        }
      ],
      "name": "RewardRequested",
      "type": "event"
    },
    {
      "inputs": [
        {
          "internalType": "uint256",
          "name": "_postId",
          "type": "uint256"
        },
        {
          "internalType": "string",
          "name": "_content",
          "type": "string"
        }
      ],
      "name": "addComment",
      "outputs": [],
      "stateMutability": "nonpayable",
      "type": "function"
    },
    {
      "inputs": [
        {
          "internalType": "uint256",
          "name": "_commentId",
          "type": "uint256"
        }
      ],
      "name": "deleteComment",
      "outputs": [],
      "stateMutability": "nonpayable",
      "type": "function"
    },
    {
      "inputs": [
        {
          "internalType": "uint256",
          "name": "_commentId",
          "type": "uint256"
        }
      ],
      "name": "getComment",
      "outputs": [
        {
          "components": [
            {
              "components": [
                {
                  "internalType": "uint256",
                  "name": "id",
                  "type": "uint256"
                },
                {
                  "internalType": "uint256",
                  "name": "postId",
                  "type": "uint256"
                },
                {
                  "internalType": "address",
                  "name": "author",
                  "type": "address"
                },
                {
                  "internalType": "string",
                  "name": "content",
                  "type": "string"
                },
                {
                  "internalType": "uint256",
                  "name": "timestamp",
                  "type": "uint256"
                },
                {
                  "internalType": "bool",
                  "name": "exists",
                  "type": "bool"
                }
              ],
              "internalType": "struct Comments.Comment",
              "name": "comment",
              "type": "tuple"
            },
            {
              "components": [
                {
                  "internalType": "address",
                  "name": "account",
                  "type": "address"
                },
                {
                  "internalType": "string",
                  "name": "displayName",
                  "type": "string"
                },
                {
                  "internalType": "string",
                  "name": "bio",
                  "type": "string"
                },
                {
                  "internalType": "string",
                  "name": "avatarURI",
                  "type": "string"
                },
                {
                  "internalType": "bool",
                  "name": "exists",
                  "type": "bool"
                }
              ],
              "internalType": "struct Profile.UserProfile",
              "name": "profile",
              "type": "tuple"
            }
          ],
          "internalType": "struct Comments.CommentWithProfile",
          "name": "",
          "type": "tuple"
        }
      ],
      "stateMutability": "view",
      "type": "function"
    },
    {
      "inputs": [
        {
          "internalType": "uint256",
          "name": "_postId",
          "type": "uint256"
        }
      ],
      "name": "getComments",
      "outputs": [
        {
          "components": [
            {
              "components": [
                {
                  "internalType": "uint256",
                  "name": "id",
                  "type": "uint256"
                },
                {
                  "internalType": "uint256",
                  "name": "postId",
                  "type": "uint256"
                },
                {
                  "internalType": "address",
                  "name": "author",
                  "type": "address"
                },
                {
                  "internalType": "string",
                  "name": "content",
                  "type": "string"
                },
                {
                  "internalType": "uint256",
                  "name": "timestamp",
                  "type": "uint256"
                },
                {
                  "internalType": "bool",
                  "name": "exists",
                  "type": "bool"
                }
              ],
              "internalType": "struct Comments.Comment",
              "name": "comment",
              "type": "tuple"
            },
            {
              "components": [
                {
                  "internalType": "address",
                  "name": "account",
                  "type": "address"
                },
                {
                  "internalType": "string",
                  "name": "displayName",
                  "type": "string"
                },
                {
                  "internalType": "string",
                  "name": "bio",
                  "type": "string"
                },
                {
                  "internalType": "string",
                  "name": "avatarURI",
                  "type": "string"
                },
                {
                  "internalType": "bool",
                  "name": "exists",
                  "type": "bool"
                }
              ],
              "internalType": "struct Profile.UserProfile",
              "name": "profile",
              "type": "tuple"
            }
          ],
          "internalType": "struct Comments.CommentWithProfile[]",
          "name": "",
          "type": "tuple[]"
        }
      ],
      "stateMutability": "view",
      "type": "function"
    },
    {
      "inputs": [],
      "name": "platformContract",
      "outputs": [
        {
          "internalType": "address",
          "name": "",
          "type": "address"
        }
      ],
      "stateMutability": "view",
      "type": "function"
    },
    {
      "inputs": [
        {
          "internalType": "address",
          "name": "_platform",
          "type": "address"
        }
      ],
      "name": "setPlatformContract",
      "outputs": [],
      "stateMutability": "nonpayable",
      "type": "function"
    },
    {
      "inputs": [
        {
          "internalType": "uint256",
          "name": "_commentId",
          "type": "uint256"
        },
        {
          "internalType": "string",
          "name": "_newContent",
          "type": "string"
        }
      ],
      "name": "updateComment",
      "outputs": [],
      "stateMutability": "nonpayable",
      "type": "function"
    }
  ],
  "bytecode": "0x608060405234801561000f575f5ffd5b506040516125983803806125988339818101604052810190610031919061015e565b825f5f6101000a81548173ffffffffffffffffffffffffffffffffffffffff021916908373ffffffffffffffffffffffffffffffffffffffff1602179055508160015f6101000a81548173ffffffffffffffffffffffffffffffffffffffff021916908373ffffffffffffffffffffffffffffffffffffffff1602179055508060025f6101000a81548173ffffffffffffffffffffffffffffffffffffffff021916908373ffffffffffffffffffffffffffffffffffffffff16021790555060016004819055505050506101ae565b5f5ffd5b5f73ffffffffffffffffffffffffffffffffffffffff82169050919050565b5f61012d82610104565b9050919050565b61013d81610123565b8114610147575f5ffd5b50565b5f8151905061015881610134565b92915050565b5f5f5f6060848603121561017557610174610100565b5b5f6101828682870161014a565b93505060206101938682870161014a565b92505060406101a48682870161014a565b9150509250925092565b6123dd806101bb5f395ff3fe608060405234801561000f575f5ffd5b506004361061007b575f3560e01c80635b5da505116100595780635b5da505146100fd5780637d0b102614610119578063a44760f214610135578063aa7e5683146101515761007b565b80630800e3001461007f57806316274695146100af57806323edf697146100cd575b5f5ffd5b61009960048036038101906100949190611375565b61016d565b6040516100a691906115c0565b60405180910390f35b6100b76103d2565b6040516100c491906115ef565b60405180910390f35b6100e760048036038101906100e29190611375565b6103f7565b6040516100f49190611704565b60405180910390f35b61011760048036038101906101129190611850565b61070f565b005b610133600480360381019061012e9190611375565b6109f7565b005b61014f600480360381019061014a91906118d4565b610c7f565b005b61016b60048036038101906101669190611850565b610d51565b005b610175611225565b8160055f8281526020019081526020015f206005015f9054906101000a900460ff166101d6576040517f08c379a00000000000000000000000000000000000000000000000000000000081526004016101cd90611959565b60405180910390fd5b5f60055f8581526020019081526020015f206040518060c00160405290815f820154815260200160018201548152602001600282015f9054906101000a900473ffffffffffffffffffffffffffffffffffffffff1673ffffffffffffffffffffffffffffffffffffffff1673ffffffffffffffffffffffffffffffffffffffff16815260200160038201805461026b906119a4565b80601f0160208091040260200160405190810160405280929190818152602001828054610297906119a4565b80156102e25780601f106102b9576101008083540402835291602001916102e2565b820191905f5260205f20905b8154815290600101906020018083116102c557829003601f168201915b5050505050815260200160048201548152602001600582015f9054906101000a900460ff16151515158152505090505f5f5f9054906101000a900473ffffffffffffffffffffffffffffffffffffffff1673ffffffffffffffffffffffffffffffffffffffff16630f53a47083604001516040518263ffffffff1660e01b815260040161036f91906115ef565b5f60405180830381865afa158015610389573d5f5f3e3d5ffd5b505050506040513d5f823e3d601f19601f820116820180604052508101906103b19190611b65565b90506040518060400160405280838152602001828152509350505050919050565b60035f9054906101000a900473ffffffffffffffffffffffffffffffffffffffff1681565b60605f60065f8481526020019081526020015f2080548060200260200160405190810160405280929190818152602001828054801561045357602002820191905f5260205f20905b81548152602001906001019080831161043f575b505050505090505f815167ffffffffffffffff8111156104765761047561172c565b5b6040519080825280602002602001820160405280156104af57816020015b61049c611225565b8152602001906001900390816104945790505b5090505f5f90505b8251811015610704575f60055f8584815181106104d7576104d6611bac565b5b602002602001015181526020019081526020015f206040518060c00160405290815f820154815260200160018201548152602001600282015f9054906101000a900473ffffffffffffffffffffffffffffffffffffffff1673ffffffffffffffffffffffffffffffffffffffff1673ffffffffffffffffffffffffffffffffffffffff16815260200160038201805461056f906119a4565b80601f016020809104026020016040519081016040528092919081815260200182805461059b906119a4565b80156105e65780601f106105bd576101008083540402835291602001916105e6565b820191905f5260205f20905b8154815290600101906020018083116105c957829003601f168201915b5050505050815260200160048201548152602001600582015f9054906101000a900460ff16151515158152505090508060a00151156106f6575f5f5f9054906101000a900473ffffffffffffffffffffffffffffffffffffffff1673ffffffffffffffffffffffffffffffffffffffff16630f53a47083604001516040518263ffffffff1660e01b815260040161067d91906115ef565b5f60405180830381865afa158015610697573d5f5f3e3d5ffd5b505050506040513d5f823e3d601f19601f820116820180604052508101906106bf9190611b65565b90506040518060400160405280838152602001828152508484815181106106e9576106e8611bac565b5b6020026020010181905250505b5080806001019150506104b7565b508092505050919050565b8160055f8281526020019081526020015f206005015f9054906101000a900460ff16610770576040517f08c379a000000000000000000000000000000000000000000000000000000000815260040161076790611959565b60405180910390fd5b823373ffffffffffffffffffffffffffffffffffffffff1660055f8381526020019081526020015f206002015f9054906101000a900473ffffffffffffffffffffffffffffffffffffffff1673ffffffffffffffffffffffffffffffffffffffff1614610812576040517f08c379a000000000000000000000000000000000000000000000000000000000815260040161080990611c23565b60405180910390fd5b8260055f8681526020019081526020015f2060030190816108339190611de1565b504260055f8681526020019081526020015f2060040181905550837fe903829a57b075c136be4ce2c314ebdfcfaaa506f2cc18f5865c67c450d894c98460405161087d9190611ee8565b60405180910390a25f73ffffffffffffffffffffffffffffffffffffffff1660035f9054906101000a900473ffffffffffffffffffffffffffffffffffffffff1673ffffffffffffffffffffffffffffffffffffffff16146109f1575f60035f9054906101000a900473ffffffffffffffffffffffffffffffffffffffff1673ffffffffffffffffffffffffffffffffffffffff16856040516024016109239190611f17565b6040516020818303038152906040527f6df063ff000000000000000000000000000000000000000000000000000000007bffffffffffffffffffffffffffffffffffffffffffffffffffffffff19166020820180517bffffffffffffffffffffffffffffffffffffffffffffffffffffffff83818316178352505050506040516109ad9190611f74565b5f604051808303815f865af19150503d805f81146109e6576040519150601f19603f3d011682016040523d82523d5f602084013e6109eb565b606091505b50509050505b50505050565b8060055f8281526020019081526020015f206005015f9054906101000a900460ff16610a58576040517f08c379a0000000000000000000000000000000000000000000000000000000008152600401610a4f90611959565b60405180910390fd5b813373ffffffffffffffffffffffffffffffffffffffff1660055f8381526020019081526020015f206002015f9054906101000a900473ffffffffffffffffffffffffffffffffffffffff1673ffffffffffffffffffffffffffffffffffffffff1614610afa576040517f08c379a0000000000000000000000000000000000000000000000000000000008152600401610af190611c23565b60405180910390fd5b5f60055f8581526020019081526020015f2060010154905060055f8581526020019081526020015f205f5f82015f9055600182015f9055600282015f6101000a81549073ffffffffffffffffffffffffffffffffffffffff0219169055600382015f610b66919061124b565b600482015f9055600582015f6101000a81549060ff021916905550505f60065f8381526020019081526020015f2090505f5f90505b8180549050811015610c4a5785828281548110610bbb57610bba611bac565b5b905f5260205f20015403610c3d578160018380549050610bdb9190611fb7565b81548110610bec57610beb611bac565b5b905f5260205f200154828281548110610c0857610c07611bac565b5b905f5260205f20018190555081805480610c2557610c24611fea565b5b600190038181905f5260205f20015f90559055610c4a565b8080600101915050610b9b565b50847fb56539a3b332b00ffce8c0f70bfb1813db25879d5c24012911a39c74ddab8f9860405160405180910390a25050505050565b5f73ffffffffffffffffffffffffffffffffffffffff1660035f9054906101000a900473ffffffffffffffffffffffffffffffffffffffff1673ffffffffffffffffffffffffffffffffffffffff1614610d0e576040517f08c379a0000000000000000000000000000000000000000000000000000000008152600401610d0590612061565b60405180910390fd5b8060035f6101000a81548173ffffffffffffffffffffffffffffffffffffffff021916908373ffffffffffffffffffffffffffffffffffffffff16021790555050565b815f60015f9054906101000a900473ffffffffffffffffffffffffffffffffffffffff1673ffffffffffffffffffffffffffffffffffffffff166340731c24836040518263ffffffff1660e01b8152600401610dad9190611f17565b5f60405180830381865afa158015610dc7573d5f5f3e3d5ffd5b505050506040513d5f823e3d601f19601f82011682018060405250810190610def9190612249565b9050805f01516101000151610e39576040517f08c379a0000000000000000000000000000000000000000000000000000000008152600401610e30906122da565b60405180910390fd5b5f5f5f9054906101000a900473ffffffffffffffffffffffffffffffffffffffff1673ffffffffffffffffffffffffffffffffffffffff16630f53a470336040518263ffffffff1660e01b8152600401610e9391906115ef565b5f60405180830381865afa158015610ead573d5f5f3e3d5ffd5b505050506040513d5f823e3d601f19601f82011682018060405250810190610ed59190611b65565b90508060800151610f1b576040517f08c379a0000000000000000000000000000000000000000000000000000000008152600401610f1290612342565b60405180910390fd5b6040518060c0016040528060045481526020018681526020013373ffffffffffffffffffffffffffffffffffffffff1681526020018581526020014281526020016001151581525060055f60045481526020019081526020015f205f820151815f0155602082015181600101556040820151816002015f6101000a81548173ffffffffffffffffffffffffffffffffffffffff021916908373ffffffffffffffffffffffffffffffffffffffff1602179055506060820151816003019081610fe39190611de1565b506080820151816004015560a0820151816005015f6101000a81548160ff02191690831515021790555090505060065f8681526020019081526020015f20600454908060018154018082558091505060019003905f5260205f20015f90919091909150553373ffffffffffffffffffffffffffffffffffffffff16600454867f96d81cac001a263174d42d42cfad470fec9d863bcf6d52ba8b93d47c7ee00de3876040516110919190611ee8565b60405180910390a45f73ffffffffffffffffffffffffffffffffffffffff1660035f9054906101000a900473ffffffffffffffffffffffffffffffffffffffff1673ffffffffffffffffffffffffffffffffffffffff1614611207575f60035f9054906101000a900473ffffffffffffffffffffffffffffffffffffffff1673ffffffffffffffffffffffffffffffffffffffff166004546040516024016111399190611f17565b6040516020818303038152906040527f6df063ff000000000000000000000000000000000000000000000000000000007bffffffffffffffffffffffffffffffffffffffffffffffffffffffff19166020820180517bffffffffffffffffffffffffffffffffffffffffffffffffffffffff83818316178352505050506040516111c39190611f74565b5f604051808303815f865af19150503d805f81146111fc576040519150601f19603f3d011682016040523d82523d5f602084013e611201565b606091505b50509050505b60045f81548092919061121990612360565b91905055505050505050565b6040518060400160405280611238611288565b81526020016112456112d1565b81525090565b508054611257906119a4565b5f825580601f106112685750611285565b601f0160209004905f5260205f20908101906112849190611316565b5b50565b6040518060c001604052805f81526020015f81526020015f73ffffffffffffffffffffffffffffffffffffffff168152602001606081526020015f81526020015f151581525090565b6040518060a001604052805f73ffffffffffffffffffffffffffffffffffffffff1681526020016060815260200160608152602001606081526020015f151581525090565b5b8082111561132d575f815f905550600101611317565b5090565b5f604051905090565b5f5ffd5b5f5ffd5b5f819050919050565b61135481611342565b811461135e575f5ffd5b50565b5f8135905061136f8161134b565b92915050565b5f6020828403121561138a5761138961133a565b5b5f61139784828501611361565b91505092915050565b6113a981611342565b82525050565b5f73ffffffffffffffffffffffffffffffffffffffff82169050919050565b5f6113d8826113af565b9050919050565b6113e8816113ce565b82525050565b5f81519050919050565b5f82825260208201905092915050565b8281835e5f83830152505050565b5f601f19601f8301169050919050565b5f611430826113ee565b61143a81856113f8565b935061144a818560208601611408565b61145381611416565b840191505092915050565b5f8115159050919050565b6114728161145e565b82525050565b5f60c083015f83015161148d5f8601826113a0565b5060208301516114a060208601826113a0565b5060408301516114b360408601826113df565b50606083015184820360608601526114cb8282611426565b91505060808301516114e060808601826113a0565b5060a08301516114f360a0860182611469565b508091505092915050565b5f60a083015f8301516115135f8601826113df565b506020830151848203602086015261152b8282611426565b915050604083015184820360408601526115458282611426565b9150506060830151848203606086015261155f8282611426565b91505060808301516115746080860182611469565b508091505092915050565b5f604083015f8301518482035f8601526115998282611478565b915050602083015184820360208601526115b382826114fe565b9150508091505092915050565b5f6020820190508181035f8301526115d8818461157f565b905092915050565b6115e9816113ce565b82525050565b5f6020820190506116025f8301846115e0565b92915050565b5f81519050919050565b5f82825260208201905092915050565b5f819050602082019050919050565b5f604083015f8301518482035f86015261164b8282611478565b9150506020830151848203602086015261166582826114fe565b9150508091505092915050565b5f61167d8383611631565b905092915050565b5f602082019050919050565b5f61169b82611608565b6116a58185611612565b9350836020820285016116b785611622565b805f5b858110156116f257848403895281516116d38582611672565b94506116de83611685565b925060208a019950506001810190506116ba565b50829750879550505050505092915050565b5f6020820190508181035f83015261171c8184611691565b905092915050565b5f5ffd5b5f5ffd5b7f4e487b71000000000000000000000000000000000000000000000000000000005f52604160045260245ffd5b61176282611416565b810181811067ffffffffffffffff821117156117815761178061172c565b5b80604052505050565b5f611793611331565b905061179f8282611759565b919050565b5f67ffffffffffffffff8211156117be576117bd61172c565b5b6117c782611416565b9050602081019050919050565b828183375f83830152505050565b5f6117f46117ef846117a4565b61178a565b9050828152602081018484840111156118105761180f611728565b5b61181b8482856117d4565b509392505050565b5f82601f83011261183757611836611724565b5b81356118478482602086016117e2565b91505092915050565b5f5f604083850312156118665761186561133a565b5b5f61187385828601611361565b925050602083013567ffffffffffffffff8111156118945761189361133e565b5b6118a085828601611823565b9150509250929050565b6118b3816113ce565b81146118bd575f5ffd5b50565b5f813590506118ce816118aa565b92915050565b5f602082840312156118e9576118e861133a565b5b5f6118f6848285016118c0565b91505092915050565b5f82825260208201905092915050565b7f436f6d6d656e7420646f6573206e6f74206578697374000000000000000000005f82015250565b5f6119436016836118ff565b915061194e8261190f565b602082019050919050565b5f6020820190508181035f83015261197081611937565b9050919050565b7f4e487b71000000000000000000000000000000000000000000000000000000005f52602260045260245ffd5b5f60028204905060018216806119bb57607f821691505b6020821081036119ce576119cd611977565b5b50919050565b5f5ffd5b5f5ffd5b5f815190506119ea816118aa565b92915050565b5f611a026119fd846117a4565b61178a565b905082815260208101848484011115611a1e57611a1d611728565b5b611a29848285611408565b509392505050565b5f82601f830112611a4557611a44611724565b5b8151611a558482602086016119f0565b91505092915050565b611a678161145e565b8114611a71575f5ffd5b50565b5f81519050611a8281611a5e565b92915050565b5f60a08284031215611a9d57611a9c6119d4565b5b611aa760a061178a565b90505f611ab6848285016119dc565b5f83015250602082015167ffffffffffffffff811115611ad957611ad86119d8565b5b611ae584828501611a31565b602083015250604082015167ffffffffffffffff811115611b0957611b086119d8565b5b611b1584828501611a31565b604083015250606082015167ffffffffffffffff811115611b3957611b386119d8565b5b611b4584828501611a31565b6060830152506080611b5984828501611a74565b60808301525092915050565b5f60208284031215611b7a57611b7961133a565b5b5f82015167ffffffffffffffff811115611b9757611b9661133e565b5b611ba384828501611a88565b91505092915050565b7f4e487b71000000000000000000000000000000000000000000000000000000005f52603260045260245ffd5b7f4e6f7420636f6d6d656e7420617574686f7200000000000000000000000000005f82015250565b5f611c0d6012836118ff565b9150611c1882611bd9565b602082019050919050565b5f6020820190508181035f830152611c3a81611c01565b9050919050565b5f819050815f5260205f209050919050565b5f6020601f8301049050919050565b5f82821b905092915050565b5f60088302611c9d7fffffffffffffffffffffffffffffffffffffffffffffffffffffffffffffffff82611c62565b611ca78683611c62565b95508019841693508086168417925050509392505050565b5f819050919050565b5f611ce2611cdd611cd884611342565b611cbf565b611342565b9050919050565b5f819050919050565b611cfb83611cc8565b611d0f611d0782611ce9565b848454611c6e565b825550505050565b5f5f905090565b611d26611d17565b611d31818484611cf2565b505050565b5b81811015611d5457611d495f82611d1e565b600181019050611d37565b5050565b601f821115611d9957611d6a81611c41565b611d7384611c53565b81016020851015611d82578190505b611d96611d8e85611c53565b830182611d36565b50505b505050565b5f82821c905092915050565b5f611db95f1984600802611d9e565b1980831691505092915050565b5f611dd18383611daa565b9150826002028217905092915050565b611dea826113ee565b67ffffffffffffffff811115611e0357611e0261172c565b5b611e0d82546119a4565b611e18828285611d58565b5f60209050601f831160018114611e49575f8415611e37578287015190505b611e418582611dc6565b865550611ea8565b601f198416611e5786611c41565b5f5b82811015611e7e57848901518255600182019150602085019450602081019050611e59565b86831015611e9b5784890151611e97601f891682611daa565b8355505b6001600288020188555050505b505050505050565b5f611eba826113ee565b611ec481856118ff565b9350611ed4818560208601611408565b611edd81611416565b840191505092915050565b5f6020820190508181035f830152611f008184611eb0565b905092915050565b611f1181611342565b82525050565b5f602082019050611f2a5f830184611f08565b92915050565b5f81519050919050565b5f81905092915050565b5f611f4e82611f30565b611f588185611f3a565b9350611f68818560208601611408565b80840191505092915050565b5f611f7f8284611f44565b915081905092915050565b7f4e487b71000000000000000000000000000000000000000000000000000000005f52601160045260245ffd5b5f611fc182611342565b9150611fcc83611342565b9250828203905081811115611fe457611fe3611f8a565b5b92915050565b7f4e487b71000000000000000000000000000000000000000000000000000000005f52603160045260245ffd5b7f506c6174666f726d20616c7265616479207365740000000000000000000000005f82015250565b5f61204b6014836118ff565b915061205682612017565b602082019050919050565b5f6020820190508181035f8301526120788161203f565b9050919050565b5f8151905061208d8161134b565b92915050565b5f61012082840312156120a9576120a86119d4565b5b6120b461012061178a565b90505f6120c38482850161207f565b5f8301525060206120d6848285016119dc565b602083015250604082015167ffffffffffffffff8111156120fa576120f96119d8565b5b61210684828501611a31565b604083015250606082015167ffffffffffffffff81111561212a576121296119d8565b5b61213684828501611a31565b606083015250608082015167ffffffffffffffff81111561215a576121596119d8565b5b61216684828501611a31565b60808301525060a061217a8482850161207f565b60a08301525060c061218e8482850161207f565b60c08301525060e06121a28482850161207f565b60e0830152506101006121b784828501611a74565b6101008301525092915050565b5f604082840312156121d9576121d86119d4565b5b6121e3604061178a565b90505f82015167ffffffffffffffff811115612202576122016119d8565b5b61220e84828501612093565b5f83015250602082015167ffffffffffffffff811115612231576122306119d8565b5b61223d84828501611a88565b60208301525092915050565b5f6020828403121561225e5761225d61133a565b5b5f82015167ffffffffffffffff81111561227b5761227a61133e565b5b612287848285016121c4565b91505092915050565b7f506f737420646f6573206e6f74206578697374000000000000000000000000005f82015250565b5f6122c46013836118ff565b91506122cf82612290565b602082019050919050565b5f6020820190508181035f8301526122f1816122b8565b9050919050565b7f4372656174652070726f66696c652066697273740000000000000000000000005f82015250565b5f61232c6014836118ff565b9150612337826122f8565b602082019050919050565b5f6020820190508181035f83015261235981612320565b9050919050565b5f61236a82611342565b91507fffffffffffffffffffffffffffffffffffffffffffffffffffffffffffffffff820361239c5761239b611f8a565b5b60018201905091905056fea2646970667358221220b459b6d0328952f239ba5c2a4b3c682bb74b4b7eb774896fbfd2f0f1315b00d564736f6c634300081c0033",
  "linkReferences": {},
  "deployedLinkReferences": {},
  "immutableReferences": {},
  "inputSourceName": "project/contracts/Comments.sol",
  "buildInfoId": "solc-0_8_28-eed1d19becd07f901a74798e6e9619765a55a27a"
}