{
  "_format": "hh3-artifact-1",
  "contractName": "Posts",
  "sourceName": "contracts/Posts.sol",
  "abi": [
    {
      "inputs": [
        {
          "internalType": "address",
          "name": "_profileContract",
          "type": "address"
        }
      ],
      "stateMutability": "nonpayable",
      "type": "constructor"
    },
    {
      "anonymous": false,
      "inputs": [
        {
          "indexed": true,
          "internalType": "uint256",
          "name": "postId",
          "type": "uint256"
        },
        {
          "indexed": true,
          "internalType": "address",
          "name": "buyer",
          "type": "address"
        },
        {
          "indexed": false,
          "internalType": "uint256",
          "name": "price",
          "type": "uint256"
        }
      ],
      "name": "PostBought",
      "type": "event"
    },
    {
      "anonymous": false,
      "inputs": [
        {
          "indexed": true,
          "internalType": "uint256",
          "name": "postId",
          "type": "uint256"
        },
        {
          "indexed": true,
          "internalType": "address",
          "name": "author",
          "type": "address"
        },
        {
          "indexed": false,
          "internalType": "string",
          "name": "content",
          "type": "string"
        }
      ],
      "name": "PostCreated",
      "type": "event"
    },
    {
      "anonymous": false,
      "inputs": [
        {
          "indexed": true,
          "internalType": "uint256",
          "name": "postId",
          "type": "uint256"
        }
      ],
      "name": "PostDeleted",
      "type": "event"
    },
    {
      "anonymous": false,
      "inputs": [
        {
          "indexed": true,
          "internalType": "uint256",
          "name": "postId",
          "type": "uint256"
        },
        {
          "indexed": true,
          "internalType": "address",
          "name": "liker",
          "type": "address"
        }
      ],
      "name": "PostLiked",
      "type": "event"
    },
    {
      "anonymous": false,
      "inputs": [
        {
          "indexed": true,
          "internalType": "uint256",
          "name": "postId",
          "type": "uint256"
        }
      ],
      "name": "PostUpdated",
      "type": "event"
    },
    {
      "anonymous": false,
      "inputs": [
        {
          "indexed": true,
          "internalType": "uint256",
          "name": "postId",
          "type": "uint256"
        },
        {
          "indexed": false,
          "internalType": "bool",
          "name": "sellable",
          "type": "bool"
        }
      ],
      "name": "SellableChanged",
      "type": "event"
    },
    {
      "inputs": [
        {
          "internalType": "uint256",
          "name": "_postId",
          "type": "uint256"
        }
      ],
      "name": "buyPost",
      "outputs": [],
      "stateMutability": "payable",
      "type": "function"
    },
    {
      "inputs": [
        {
          "internalType": "string",
          "name": "_caption",
          "type": "string"
        },
        {
          "internalType": "string",
          "name": "_content",
          "type": "string"
        },
        {
          "internalType": "string",
          "name": "_imageURI",
          "type": "string"
        },
        {
          "internalType": "bool",
          "name": "_sellable",
          "type": "bool"
        }
      ],
      "name": "createPost",
      "outputs": [],
      "stateMutability": "nonpayable",
      "type": "function"
    },
    {
      "inputs": [
        {
          "internalType": "uint256",
          "name": "_postId",
          "type": "uint256"
        }
      ],
      "name": "deletePost",
      "outputs": [],
      "stateMutability": "nonpayable",
      "type": "function"
    },
    {
      "inputs": [],
      "name": "getAllPosts",
      "outputs": [
        {
          "components": [
            {
              "components": [
                {
                  "internalType": "uint256",
                  "name": "id",
                  "type": "uint256"
                },
                {
                  "internalType": "address",
                  "name": "author",
                  "type": "address"
                },
                {
                  "internalType": "string",
                  "name": "caption",
                  "type": "string"
                },
                {
                  "internalType": "string",
                  "name": "content",
                  "type": "string"
                },
                {
                  "internalType": "string",
                  "name": "imageURI",
                  "type": "string"
                },
                {
                  "internalType": "uint256",
                  "name": "timestamp",
                  "type": "uint256"
                },
                {
                  "internalType": "bool",
                  "name": "exists",
                  "type": "bool"
                },
                {
                  "internalType": "uint256",
                  "name": "likes",
                  "type": "uint256"
                },
                {
                  "internalType": "uint256",
                  "name": "commentsCount",
                  "type": "uint256"
                },
                {
                  "internalType": "address",
                  "name": "owner",
                  "type": "address"
                },
                {
                  "internalType": "uint256",
                  "name": "price",
                  "type": "uint256"
                },
                {
                  "internalType": "bool",
                  "name": "sellable",
                  "type": "bool"
                }
              ],
              "internalType": "struct Posts.Post",
              "name": "post",
              "type": "tuple"
            },
            {
              "components": [
                {
                  "internalType": "address",
                  "name": "account",
                  "type": "address"
                },
                {
                  "internalType": "string",
                  "name": "displayName",
                  "type": "string"
                },
                {
                  "internalType": "string",
                  "name": "bio",
                  "type": "string"
                },
                {
                  "internalType": "string",
                  "name": "avatarURI",
                  "type": "string"
                },
                {
                  "internalType": "uint256",
                  "name": "balance",
                  "type": "uint256"
                },
                {
                  "internalType": "bool",
                  "name": "exists",
                  "type": "bool"
                }
              ],
              "internalType": "struct Profile.UserProfile",
              "name": "profile",
              "type": "tuple"
            }
          ],
          "internalType": "struct Posts.PostWithProfile[]",
          "name": "",
          "type": "tuple[]"
        }
      ],
      "stateMutability": "view",
      "type": "function"
    },
    {
      "inputs": [
        {
          "internalType": "uint256",
          "name": "_postId",
          "type": "uint256"
        }
      ],
      "name": "getPost",
      "outputs": [
        {
          "components": [
            {
              "components": [
                {
                  "internalType": "uint256",
                  "name": "id",
                  "type": "uint256"
                },
                {
                  "internalType": "address",
                  "name": "author",
                  "type": "address"
                },
                {
                  "internalType": "string",
                  "name": "caption",
                  "type": "string"
                },
                {
                  "internalType": "string",
                  "name": "content",
                  "type": "string"
                },
                {
                  "internalType": "string",
                  "name": "imageURI",
                  "type": "string"
                },
                {
                  "internalType": "uint256",
                  "name": "timestamp",
                  "type": "uint256"
                },
                {
                  "internalType": "bool",
                  "name": "exists",
                  "type": "bool"
                },
                {
                  "internalType": "uint256",
                  "name": "likes",
                  "type": "uint256"
                },
                {
                  "internalType": "uint256",
                  "name": "commentsCount",
                  "type": "uint256"
                },
                {
                  "internalType": "address",
                  "name": "owner",
                  "type": "address"
                },
                {
                  "internalType": "uint256",
                  "name": "price",
                  "type": "uint256"
                },
                {
                  "internalType": "bool",
                  "name": "sellable",
                  "type": "bool"
                }
              ],
              "internalType": "struct Posts.Post",
              "name": "post",
              "type": "tuple"
            },
            {
              "components": [
                {
                  "internalType": "address",
                  "name": "account",
                  "type": "address"
                },
                {
                  "internalType": "string",
                  "name": "displayName",
                  "type": "string"
                },
                {
                  "internalType": "string",
                  "name": "bio",
                  "type": "string"
                },
                {
                  "internalType": "string",
                  "name": "avatarURI",
                  "type": "string"
                },
                {
                  "internalType": "uint256",
                  "name": "balance",
                  "type": "uint256"
                },
                {
                  "internalType": "bool",
                  "name": "exists",
                  "type": "bool"
                }
              ],
              "internalType": "struct Profile.UserProfile",
              "name": "profile",
              "type": "tuple"
            }
          ],
          "internalType": "struct Posts.PostWithProfile",
          "name": "",
          "type": "tuple"
        }
      ],
      "stateMutability": "view",
      "type": "function"
    },
    {
      "inputs": [],
      "name": "getSellablePosts",
      "outputs": [
        {
          "components": [
            {
              "components": [
                {
                  "internalType": "uint256",
                  "name": "id",
                  "type": "uint256"
                },
                {
                  "internalType": "address",
                  "name": "author",
                  "type": "address"
                },
                {
                  "internalType": "string",
                  "name": "caption",
                  "type": "string"
                },
                {
                  "internalType": "string",
                  "name": "content",
                  "type": "string"
                },
                {
                  "internalType": "string",
                  "name": "imageURI",
                  "type": "string"
                },
                {
                  "internalType": "uint256",
                  "name": "timestamp",
                  "type": "uint256"
                },
                {
                  "internalType": "bool",
                  "name": "exists",
                  "type": "bool"
                },
                {
                  "internalType": "uint256",
                  "name": "likes",
                  "type": "uint256"
                },
                {
                  "internalType": "uint256",
                  "name": "commentsCount",
                  "type": "uint256"
                },
                {
                  "internalType": "address",
                  "name": "owner",
                  "type": "address"
                },
                {
                  "internalType": "uint256",
                  "name": "price",
                  "type": "uint256"
                },
                {
                  "internalType": "bool",
                  "name": "sellable",
                  "type": "bool"
                }
              ],
              "internalType": "struct Posts.Post",
              "name": "post",
              "type": "tuple"
            },
            {
              "components": [
                {
                  "internalType": "address",
                  "name": "account",
                  "type": "address"
                },
                {
                  "internalType": "string",
                  "name": "displayName",
                  "type": "string"
                },
                {
                  "internalType": "string",
                  "name": "bio",
                  "type": "string"
                },
                {
                  "internalType": "string",
                  "name": "avatarURI",
                  "type": "string"
                },
                {
                  "internalType": "uint256",
                  "name": "balance",
                  "type": "uint256"
                },
                {
                  "internalType": "bool",
                  "name": "exists",
                  "type": "bool"
                }
              ],
              "internalType": "struct Profile.UserProfile",
              "name": "profile",
              "type": "tuple"
            }
          ],
          "internalType": "struct Posts.PostWithProfile[]",
          "name": "",
          "type": "tuple[]"
        }
      ],
      "stateMutability": "view",
      "type": "function"
    },
    {
      "inputs": [
        {
          "internalType": "address",
          "name": "_user",
          "type": "address"
        }
      ],
      "name": "getUserPosts",
      "outputs": [
        {
          "components": [
            {
              "components": [
                {
                  "internalType": "uint256",
                  "name": "id",
                  "type": "uint256"
                },
                {
                  "internalType": "address",
                  "name": "author",
                  "type": "address"
                },
                {
                  "internalType": "string",
                  "name": "caption",
                  "type": "string"
                },
                {
                  "internalType": "string",
                  "name": "content",
                  "type": "string"
                },
                {
                  "internalType": "string",
                  "name": "imageURI",
                  "type": "string"
                },
                {
                  "internalType": "uint256",
                  "name": "timestamp",
                  "type": "uint256"
                },
                {
                  "internalType": "bool",
                  "name": "exists",
                  "type": "bool"
                },
                {
                  "internalType": "uint256",
                  "name": "likes",
                  "type": "uint256"
                },
                {
                  "internalType": "uint256",
                  "name": "commentsCount",
                  "type": "uint256"
                },
                {
                  "internalType": "address",
                  "name": "owner",
                  "type": "address"
                },
                {
                  "internalType": "uint256",
                  "name": "price",
                  "type": "uint256"
                },
                {
                  "internalType": "bool",
                  "name": "sellable",
                  "type": "bool"
                }
              ],
              "internalType": "struct Posts.Post",
              "name": "post",
              "type": "tuple"
            },
            {
              "components": [
                {
                  "internalType": "address",
                  "name": "account",
                  "type": "address"
                },
                {
                  "internalType": "string",
                  "name": "displayName",
                  "type": "string"
                },
                {
                  "internalType": "string",
                  "name": "bio",
                  "type": "string"
                },
                {
                  "internalType": "string",
                  "name": "avatarURI",
                  "type": "string"
                },
                {
                  "internalType": "uint256",
                  "name": "balance",
                  "type": "uint256"
                },
                {
                  "internalType": "bool",
                  "name": "exists",
                  "type": "bool"
                }
              ],
              "internalType": "struct Profile.UserProfile",
              "name": "profile",
              "type": "tuple"
            }
          ],
          "internalType": "struct Posts.PostWithProfile[]",
          "name": "",
          "type": "tuple[]"
        }
      ],
      "stateMutability": "view",
      "type": "function"
    },
    {
      "inputs": [
        {
          "internalType": "uint256",
          "name": "_postId",
          "type": "uint256"
        }
      ],
      "name": "incrementComments",
      "outputs": [],
      "stateMutability": "nonpayable",
      "type": "function"
    },
    {
      "inputs": [
        {
          "internalType": "uint256",
          "name": "_postId",
          "type": "uint256"
        }
      ],
      "name": "likePost",
      "outputs": [],
      "stateMutability": "nonpayable",
      "type": "function"
    },
    {
      "inputs": [
        {
          "internalType": "uint256",
          "name": "_postId",
          "type": "uint256"
        },
        {
          "internalType": "bool",
          "name": "_sellable",
          "type": "bool"
        }
      ],
      "name": "setSellable",
      "outputs": [],
      "stateMutability": "nonpayable",
      "type": "function"
    },
    {
      "inputs": [
        {
          "internalType": "uint256",
          "name": "_postId",
          "type": "uint256"
        },
        {
          "internalType": "string",
          "name": "_caption",
          "type": "string"
        },
        {
          "internalType": "string",
          "name": "_content",
          "type": "string"
        },
        {
          "internalType": "string",
          "name": "_imageURI",
          "type": "string"
        }
      ],
      "name": "updatePost",
      "outputs": [],
      "stateMutability": "nonpayable",
      "type": "function"
    }
  ],
  "bytecode": "0x608060405234801561000f575f5ffd5b506040516139cc3803806139cc833981810160405281019061003191906100db565b805f5f6101000a81548173ffffffffffffffffffffffffffffffffffffffff021916908373ffffffffffffffffffffffffffffffffffffffff1602179055506001808190555050610106565b5f5ffd5b5f73ffffffffffffffffffffffffffffffffffffffff82169050919050565b5f6100aa82610081565b9050919050565b6100ba816100a0565b81146100c4575f5ffd5b50565b5f815190506100d5816100b1565b92915050565b5f602082840312156100f0576100ef61007d565b5b5f6100fd848285016100c7565b91505092915050565b6138b9806101135f395ff3fe60806040526004361061009b575f3560e01c80635f33b76c116100635780635f33b76c14610171578063725009d31461019b5780639a2194a9146101c3578063cc05adb0146101ff578063e56e254c14610227578063e71ef23d1461024f5761009b565b8063094cd5ee1461009f5780632fa67338146100c757806330561100146100e35780633a4932c01461010d57806340731c2414610135575b5f5ffd5b3480156100aa575f5ffd5b506100c560048036038101906100c091906126f9565b610277565b005b6100e160048036038101906100dc91906126f9565b610481565b005b3480156100ee575f5ffd5b506100f761071b565b6040516101049190612a9b565b60405180910390f35b348015610118575f5ffd5b50610133600480360381019061012e91906126f9565b610c23565b005b348015610140575f5ffd5b5061015b600480360381019061015691906126f9565b610d6b565b6040516101689190612afc565b60405180910390f35b34801561017c575f5ffd5b50610185611174565b6040516101929190612a9b565b60405180910390f35b3480156101a6575f5ffd5b506101c160048036038101906101bc91906126f9565b611713565b005b3480156101ce575f5ffd5b506101e960048036038101906101e49190612b46565b61189f565b6040516101f69190612a9b565b60405180910390f35b34801561020a575f5ffd5b5061022560048036038101906102209190612c9d565b611d91565b005b348015610232575f5ffd5b5061024d60048036038101906102489190612d7f565b611f1d565b005b34801561025a575f5ffd5b5061027560048036038101906102709190612dbd565b6120cd565b005b8060025f8281526020019081526020015f206006015f9054906101000a900460ff166102d8576040517f08c379a00000000000000000000000000000000000000000000000000000000081526004016102cf90612ecf565b60405180910390fd5b813373ffffffffffffffffffffffffffffffffffffffff1660025f8381526020019081526020015f206001015f9054906101000a900473ffffffffffffffffffffffffffffffffffffffff1673ffffffffffffffffffffffffffffffffffffffff161461037a576040517f08c379a000000000000000000000000000000000000000000000000000000000815260040161037190612f37565b60405180910390fd5b60025f8481526020019081526020015f205f5f82015f9055600182015f6101000a81549073ffffffffffffffffffffffffffffffffffffffff0219169055600282015f6103c79190612564565b600382015f6103d69190612564565b600482015f6103e59190612564565b600582015f9055600682015f6101000a81549060ff0219169055600782015f9055600882015f9055600982015f6101000a81549073ffffffffffffffffffffffffffffffffffffffff0219169055600a82015f9055600b82015f6101000a81549060ff02191690555050827f32d67e2131cd025eb20e7256680e338dedbe17b28943a11681860a9271ad119d60405160405180910390a2505050565b8060025f8281526020019081526020015f206006015f9054906101000a900460ff166104e2576040517f08c379a00000000000000000000000000000000000000000000000000000000081526004016104d990612ecf565b60405180910390fd5b5f60025f8481526020019081526020015f20905080600b015f9054906101000a900460ff16610546576040517f08c379a000000000000000000000000000000000000000000000000000000000815260040161053d90612f9f565b60405180910390fd5b80600a015434101561058d576040517f08c379a000000000000000000000000000000000000000000000000000000000815260040161058490613007565b60405180910390fd5b806009015f9054906101000a900473ffffffffffffffffffffffffffffffffffffffff1673ffffffffffffffffffffffffffffffffffffffff163373ffffffffffffffffffffffffffffffffffffffff160361061e576040517f08c379a00000000000000000000000000000000000000000000000000000000081526004016106159061306f565b60405180910390fd5b806009015f9054906101000a900473ffffffffffffffffffffffffffffffffffffffff1673ffffffffffffffffffffffffffffffffffffffff166108fc3490811502906040515f60405180830381858888f19350505050158015610684573d5f5f3e3d5ffd5b5033816009015f6101000a81548173ffffffffffffffffffffffffffffffffffffffff021916908373ffffffffffffffffffffffffffffffffffffffff1602179055503373ffffffffffffffffffffffffffffffffffffffff16837f3d246faee14ed5b15c0dc874215f17878e8525a9b3957dd99f17f749ead406203460405161070e919061309c565b60405180910390a3505050565b60605f6001805461072c91906130e2565b90505f5f90505f600190505b8281116107875760025f8281526020019081526020015f206006015f9054906101000a900460ff161561077457818061077090613115565b9250505b808061077f90613115565b915050610738565b505f8167ffffffffffffffff8111156107a3576107a2612b79565b5b6040519080825280602002602001820160405280156107dc57816020015b6107c96125a1565b8152602001906001900390816107c15790505b5090505f5f90505f600190505b848111610c185760025f8281526020019081526020015f206006015f9054906101000a900460ff1615610c05575f5f5f9054906101000a900473ffffffffffffffffffffffffffffffffffffffff1673ffffffffffffffffffffffffffffffffffffffff16630f53a47060025f8581526020019081526020015f206001015f9054906101000a900473ffffffffffffffffffffffffffffffffffffffff166040518263ffffffff1660e01b81526004016108a3919061316b565b5f60405180830381865afa1580156108bd573d5f5f3e3d5ffd5b505050506040513d5f823e3d601f19601f820116820180604052508101906108e59190613327565b9050604051806040016040528060025f8581526020019081526020015f20604051806101800160405290815f8201548152602001600182015f9054906101000a900473ffffffffffffffffffffffffffffffffffffffff1673ffffffffffffffffffffffffffffffffffffffff1673ffffffffffffffffffffffffffffffffffffffff16815260200160028201805461097d9061339b565b80601f01602080910402602001604051908101604052809291908181526020018280546109a99061339b565b80156109f45780601f106109cb576101008083540402835291602001916109f4565b820191905f5260205f20905b8154815290600101906020018083116109d757829003601f168201915b50505050508152602001600382018054610a0d9061339b565b80601f0160208091040260200160405190810160405280929190818152602001828054610a399061339b565b8015610a845780601f10610a5b57610100808354040283529160200191610a84565b820191905f5260205f20905b815481529060010190602001808311610a6757829003601f168201915b50505050508152602001600482018054610a9d9061339b565b80601f0160208091040260200160405190810160405280929190818152602001828054610ac99061339b565b8015610b145780601f10610aeb57610100808354040283529160200191610b14565b820191905f5260205f20905b815481529060010190602001808311610af757829003601f168201915b5050505050815260200160058201548152602001600682015f9054906101000a900460ff161515151581526020016007820154815260200160088201548152602001600982015f9054906101000a900473ffffffffffffffffffffffffffffffffffffffff1673ffffffffffffffffffffffffffffffffffffffff1673ffffffffffffffffffffffffffffffffffffffff168152602001600a8201548152602001600b82015f9054906101000a900460ff161515151581525050815260200182815250848481518110610bea57610be96133cb565b5b60200260200101819052508280610c0090613115565b935050505b8080610c1090613115565b9150506107e9565b508194505050505090565b8060025f8281526020019081526020015f206006015f9054906101000a900460ff16610c84576040517f08c379a0000000000000000000000000000000000000000000000000000000008152600401610c7b90612ecf565b60405180910390fd5b5f60025f8481526020019081526020015f209050806008015f815480929190610cac90613115565b9190505550610cba816124b8565b5f5f9054906101000a900473ffffffffffffffffffffffffffffffffffffffff1673ffffffffffffffffffffffffffffffffffffffff1663384bc466826001015f9054906101000a900473ffffffffffffffffffffffffffffffffffffffff1660016040518363ffffffff1660e01b8152600401610d3992919061343a565b5f604051808303815f87803b158015610d50575f5ffd5b505af1158015610d62573d5f5f3e3d5ffd5b50505050505050565b610d736125a1565b8160025f8281526020019081526020015f206006015f9054906101000a900460ff16610dd4576040517f08c379a0000000000000000000000000000000000000000000000000000000008152600401610dcb90612ecf565b60405180910390fd5b5f60025f8581526020019081526020015f20604051806101800160405290815f8201548152602001600182015f9054906101000a900473ffffffffffffffffffffffffffffffffffffffff1673ffffffffffffffffffffffffffffffffffffffff1673ffffffffffffffffffffffffffffffffffffffff168152602001600282018054610e609061339b565b80601f0160208091040260200160405190810160405280929190818152602001828054610e8c9061339b565b8015610ed75780601f10610eae57610100808354040283529160200191610ed7565b820191905f5260205f20905b815481529060010190602001808311610eba57829003601f168201915b50505050508152602001600382018054610ef09061339b565b80601f0160208091040260200160405190810160405280929190818152602001828054610f1c9061339b565b8015610f675780601f10610f3e57610100808354040283529160200191610f67565b820191905f5260205f20905b815481529060010190602001808311610f4a57829003601f168201915b50505050508152602001600482018054610f809061339b565b80601f0160208091040260200160405190810160405280929190818152602001828054610fac9061339b565b8015610ff75780601f10610fce57610100808354040283529160200191610ff7565b820191905f5260205f20905b815481529060010190602001808311610fda57829003601f168201915b5050505050815260200160058201548152602001600682015f9054906101000a900460ff161515151581526020016007820154815260200160088201548152602001600982015f9054906101000a900473ffffffffffffffffffffffffffffffffffffffff1673ffffffffffffffffffffffffffffffffffffffff1673ffffffffffffffffffffffffffffffffffffffff168152602001600a8201548152602001600b82015f9054906101000a900460ff16151515158152505090505f5f5f9054906101000a900473ffffffffffffffffffffffffffffffffffffffff1673ffffffffffffffffffffffffffffffffffffffff16630f53a47083602001516040518263ffffffff1660e01b8152600401611111919061316b565b5f60405180830381865afa15801561112b573d5f5f3e3d5ffd5b505050506040513d5f823e3d601f19601f820116820180604052508101906111539190613327565b90506040518060400160405280838152602001828152509350505050919050565b60605f5f90505f5f90505b60038054905081101561122f5760025f600383815481106111a3576111a26133cb565b5b905f5260205f20015481526020019081526020015f206006015f9054906101000a900460ff16801561120e575060025f600383815481106111e7576111e66133cb565b5b905f5260205f20015481526020019081526020015f20600b015f9054906101000a900460ff165b1561122257818061121e90613115565b9250505b808060010191505061117f565b505f8167ffffffffffffffff81111561124b5761124a612b79565b5b60405190808252806020026020018201604052801561128457816020015b6112716125a1565b8152602001906001900390816112695790505b5090505f5f90505f5f90505b600380549050811015611709575f600382815481106112b2576112b16133cb565b5b905f5260205f200154905060025f8281526020019081526020015f206006015f9054906101000a900460ff168015611307575060025f8281526020019081526020015f20600b015f9054906101000a900460ff165b156116fb575f5f5f9054906101000a900473ffffffffffffffffffffffffffffffffffffffff1673ffffffffffffffffffffffffffffffffffffffff16630f53a47060025f8581526020019081526020015f206001015f9054906101000a900473ffffffffffffffffffffffffffffffffffffffff166040518263ffffffff1660e01b8152600401611399919061316b565b5f60405180830381865afa1580156113b3573d5f5f3e3d5ffd5b505050506040513d5f823e3d601f19601f820116820180604052508101906113db9190613327565b9050604051806040016040528060025f8581526020019081526020015f20604051806101800160405290815f8201548152602001600182015f9054906101000a900473ffffffffffffffffffffffffffffffffffffffff1673ffffffffffffffffffffffffffffffffffffffff1673ffffffffffffffffffffffffffffffffffffffff1681526020016002820180546114739061339b565b80601f016020809104026020016040519081016040528092919081815260200182805461149f9061339b565b80156114ea5780601f106114c1576101008083540402835291602001916114ea565b820191905f5260205f20905b8154815290600101906020018083116114cd57829003601f168201915b505050505081526020016003820180546115039061339b565b80601f016020809104026020016040519081016040528092919081815260200182805461152f9061339b565b801561157a5780601f106115515761010080835404028352916020019161157a565b820191905f5260205f20905b81548152906001019060200180831161155d57829003601f168201915b505050505081526020016004820180546115939061339b565b80601f01602080910402602001604051908101604052809291908181526020018280546115bf9061339b565b801561160a5780601f106115e15761010080835404028352916020019161160a565b820191905f5260205f20905b8154815290600101906020018083116115ed57829003601f168201915b5050505050815260200160058201548152602001600682015f9054906101000a900460ff161515151581526020016007820154815260200160088201548152602001600982015f9054906101000a900473ffffffffffffffffffffffffffffffffffffffff1673ffffffffffffffffffffffffffffffffffffffff1673ffffffffffffffffffffffffffffffffffffffff168152602001600a8201548152602001600b82015f9054906101000a900460ff1615151515815250508152602001828152508585815181106116e0576116df6133cb565b5b602002602001018190525083806116f690613115565b945050505b508080600101915050611290565b5081935050505090565b8060025f8281526020019081526020015f206006015f9054906101000a900460ff16611774576040517f08c379a000000000000000000000000000000000000000000000000000000000815260040161176b90612ecf565b60405180910390fd5b5f60025f8481526020019081526020015f209050806007015f81548092919061179c90613115565b91905055506117aa816124b8565b5f5f9054906101000a900473ffffffffffffffffffffffffffffffffffffffff1673ffffffffffffffffffffffffffffffffffffffff1663384bc466826001015f9054906101000a900473ffffffffffffffffffffffffffffffffffffffff1660016040518363ffffffff1660e01b815260040161182992919061343a565b5f604051808303815f87803b158015611840575f5ffd5b505af1158015611852573d5f5f3e3d5ffd5b505050503373ffffffffffffffffffffffffffffffffffffffff16837fcf765d6f163c9b0d832e2a94f4c8e9bffd32a2c3ca5fdbb8cc67b5fe1441f41360405160405180910390a3505050565b60605f600180546118b091906130e2565b90505f8167ffffffffffffffff8111156118cd576118cc612b79565b5b60405190808252806020026020018201604052801561190657816020015b6118f36125a1565b8152602001906001900390816118eb5790505b5090505f5f90505f600190505b838111611d825760025f8281526020019081526020015f206006015f9054906101000a900460ff1680156119a557508573ffffffffffffffffffffffffffffffffffffffff1660025f8381526020019081526020015f206001015f9054906101000a900473ffffffffffffffffffffffffffffffffffffffff1673ffffffffffffffffffffffffffffffffffffffff16145b15611d6f575f60025f8381526020019081526020015f20604051806101800160405290815f8201548152602001600182015f9054906101000a900473ffffffffffffffffffffffffffffffffffffffff1673ffffffffffffffffffffffffffffffffffffffff1673ffffffffffffffffffffffffffffffffffffffff168152602001600282018054611a369061339b565b80601f0160208091040260200160405190810160405280929190818152602001828054611a629061339b565b8015611aad5780601f10611a8457610100808354040283529160200191611aad565b820191905f5260205f20905b815481529060010190602001808311611a9057829003601f168201915b50505050508152602001600382018054611ac69061339b565b80601f0160208091040260200160405190810160405280929190818152602001828054611af29061339b565b8015611b3d5780601f10611b1457610100808354040283529160200191611b3d565b820191905f5260205f20905b815481529060010190602001808311611b2057829003601f168201915b50505050508152602001600482018054611b569061339b565b80601f0160208091040260200160405190810160405280929190818152602001828054611b829061339b565b8015611bcd5780601f10611ba457610100808354040283529160200191611bcd565b820191905f5260205f20905b815481529060010190602001808311611bb057829003601f168201915b5050505050815260200160058201548152602001600682015f9054906101000a900460ff161515151581526020016007820154815260200160088201548152602001600982015f9054906101000a900473ffffffffffffffffffffffffffffffffffffffff1673ffffffffffffffffffffffffffffffffffffffff1673ffffffffffffffffffffffffffffffffffffffff168152602001600a8201548152602001600b82015f9054906101000a900460ff16151515158152505090505f5f5f9054906101000a900473ffffffffffffffffffffffffffffffffffffffff1673ffffffffffffffffffffffffffffffffffffffff16630f53a47083602001516040518263ffffffff1660e01b8152600401611ce7919061316b565b5f60405180830381865afa158015611d01573d5f5f3e3d5ffd5b505050506040513d5f823e3d601f19601f82011682018060405250810190611d299190613327565b9050604051806040016040528083815260200182815250858581518110611d5357611d526133cb565b5b60200260200101819052508380611d6990613115565b94505050505b8080611d7a90613115565b915050611913565b50808252819350505050919050565b8360025f8281526020019081526020015f206006015f9054906101000a900460ff16611df2576040517f08c379a0000000000000000000000000000000000000000000000000000000008152600401611de990612ecf565b60405180910390fd5b843373ffffffffffffffffffffffffffffffffffffffff1660025f8381526020019081526020015f206001015f9054906101000a900473ffffffffffffffffffffffffffffffffffffffff1673ffffffffffffffffffffffffffffffffffffffff1614611e94576040517f08c379a0000000000000000000000000000000000000000000000000000000008152600401611e8b90612f37565b60405180910390fd5b5f60025f8881526020019081526020015f20905085816002019081611eb991906135f8565b5084816003019081611ecb91906135f8565b5083816004019081611edd91906135f8565b50428160050181905550867f2d092d8220c21e9f2d397a27cfc890719068e1dfc64d5bfde92b3d061c69d82960405160405180910390a250505050505050565b8160025f8281526020019081526020015f206006015f9054906101000a900460ff16611f7e576040517f08c379a0000000000000000000000000000000000000000000000000000000008152600401611f7590612ecf565b60405180910390fd5b823373ffffffffffffffffffffffffffffffffffffffff1660025f8381526020019081526020015f206001015f9054906101000a900473ffffffffffffffffffffffffffffffffffffffff1673ffffffffffffffffffffffffffffffffffffffff1614612020576040517f08c379a000000000000000000000000000000000000000000000000000000000815260040161201790612f37565b60405180910390fd5b5f60025f8681526020019081526020015f2090508381600b015f6101000a81548160ff02191690831515021790555083801561206257506120608561250d565b155b1561208e57600385908060018154018082558091505060019003905f5260205f20015f90919091909150555b847fa91cc56869819f970cb95ad83afce514b9d4e17fa1fedfb98e7d2b52088a2cf2856040516120be91906136d6565b60405180910390a25050505050565b5f5f5f9054906101000a900473ffffffffffffffffffffffffffffffffffffffff1673ffffffffffffffffffffffffffffffffffffffff16630f53a470336040518263ffffffff1660e01b8152600401612127919061316b565b5f60405180830381865afa158015612141573d5f5f3e3d5ffd5b505050506040513d5f823e3d601f19601f820116820180604052508101906121699190613327565b90508060a001516121af576040517f08c379a00000000000000000000000000000000000000000000000000000000081526004016121a690613739565b60405180910390fd5b60405180610180016040528060015481526020013373ffffffffffffffffffffffffffffffffffffffff1681526020018681526020018581526020018481526020014281526020016001151581526020015f81526020015f81526020013373ffffffffffffffffffffffffffffffffffffffff168152602001662386f26fc10000815260200183151581525060025f60015481526020019081526020015f205f820151815f01556020820151816001015f6101000a81548173ffffffffffffffffffffffffffffffffffffffff021916908373ffffffffffffffffffffffffffffffffffffffff16021790555060408201518160020190816122b191906135f8565b5060608201518160030190816122c791906135f8565b5060808201518160040190816122dd91906135f8565b5060a0820151816005015560c0820151816006015f6101000a81548160ff02191690831515021790555060e082015181600701556101008201518160080155610120820151816009015f6101000a81548173ffffffffffffffffffffffffffffffffffffffff021916908373ffffffffffffffffffffffffffffffffffffffff16021790555061014082015181600a015561016082015181600b015f6101000a81548160ff02191690831515021790555090505081156123c0576003600154908060018154018082558091505060019003905f5260205f20015f90919091909150555b5f5f9054906101000a900473ffffffffffffffffffffffffffffffffffffffff1673ffffffffffffffffffffffffffffffffffffffff1663384bc46633600a6040518363ffffffff1660e01b815260040161241c929190613790565b5f604051808303815f87803b158015612433575f5ffd5b505af1158015612445573d5f5f3e3d5ffd5b505050503373ffffffffffffffffffffffffffffffffffffffff166001547f8e40a51278abe2f4b410c0a96ff0bdd024b22666ca334062bf72afd596984bd68660405161249291906137ef565b60405180910390a360015f8154809291906124ac90613115565b91905055505050505050565b66071afd498d000081600801546124cf919061380f565b6611c37937e0800082600701546124e6919061380f565b662386f26fc100006124f89190613850565b6125029190613850565b81600a018190555050565b5f5f5f90505b60038054905081101561255a578260038281548110612535576125346133cb565b5b905f5260205f2001540361254d57600191505061255f565b8080600101915050612513565b505f90505b919050565b5080546125709061339b565b5f825580601f10612581575061259e565b601f0160209004905f5260205f209081019061259d91906125c7565b5b50565b60405180604001604052806125b46125e2565b81526020016125c161266a565b81525090565b5b808211156125de575f815f9055506001016125c8565b5090565b6040518061018001604052805f81526020015f73ffffffffffffffffffffffffffffffffffffffff1681526020016060815260200160608152602001606081526020015f81526020015f151581526020015f81526020015f81526020015f73ffffffffffffffffffffffffffffffffffffffff1681526020015f81526020015f151581525090565b6040518060c001604052805f73ffffffffffffffffffffffffffffffffffffffff1681526020016060815260200160608152602001606081526020015f81526020015f151581525090565b5f604051905090565b5f5ffd5b5f5ffd5b5f819050919050565b6126d8816126c6565b81146126e2575f5ffd5b50565b5f813590506126f3816126cf565b92915050565b5f6020828403121561270e5761270d6126be565b5b5f61271b848285016126e5565b91505092915050565b5f81519050919050565b5f82825260208201905092915050565b5f819050602082019050919050565b612756816126c6565b82525050565b5f73ffffffffffffffffffffffffffffffffffffffff82169050919050565b5f6127858261275c565b9050919050565b6127958161277b565b82525050565b5f81519050919050565b5f82825260208201905092915050565b8281835e5f83830152505050565b5f601f19601f8301169050919050565b5f6127dd8261279b565b6127e781856127a5565b93506127f78185602086016127b5565b612800816127c3565b840191505092915050565b5f8115159050919050565b61281f8161280b565b82525050565b5f61018083015f83015161283b5f86018261274d565b50602083015161284e602086018261278c565b506040830151848203604086015261286682826127d3565b9150506060830151848203606086015261288082826127d3565b9150506080830151848203608086015261289a82826127d3565b91505060a08301516128af60a086018261274d565b5060c08301516128c260c0860182612816565b5060e08301516128d560e086018261274d565b506101008301516128ea61010086018261274d565b506101208301516128ff61012086018261278c565b5061014083015161291461014086018261274d565b50610160830151612929610160860182612816565b508091505092915050565b5f60c083015f8301516129495f86018261278c565b506020830151848203602086015261296182826127d3565b9150506040830151848203604086015261297b82826127d3565b9150506060830151848203606086015261299582826127d3565b91505060808301516129aa608086018261274d565b5060a08301516129bd60a0860182612816565b508091505092915050565b5f604083015f8301518482035f8601526129e28282612825565b915050602083015184820360208601526129fc8282612934565b9150508091505092915050565b5f612a1483836129c8565b905092915050565b5f602082019050919050565b5f612a3282612724565b612a3c818561272e565b935083602082028501612a4e8561273e565b805f5b85811015612a895784840389528151612a6a8582612a09565b9450612a7583612a1c565b925060208a01995050600181019050612a51565b50829750879550505050505092915050565b5f6020820190508181035f830152612ab38184612a28565b905092915050565b5f604083015f8301518482035f860152612ad58282612825565b91505060208301518482036020860152612aef8282612934565b9150508091505092915050565b5f6020820190508181035f830152612b148184612abb565b905092915050565b612b258161277b565b8114612b2f575f5ffd5b50565b5f81359050612b4081612b1c565b92915050565b5f60208284031215612b5b57612b5a6126be565b5b5f612b6884828501612b32565b91505092915050565b5f5ffd5b5f5ffd5b7f4e487b71000000000000000000000000000000000000000000000000000000005f52604160045260245ffd5b612baf826127c3565b810181811067ffffffffffffffff82111715612bce57612bcd612b79565b5b80604052505050565b5f612be06126b5565b9050612bec8282612ba6565b919050565b5f67ffffffffffffffff821115612c0b57612c0a612b79565b5b612c14826127c3565b9050602081019050919050565b828183375f83830152505050565b5f612c41612c3c84612bf1565b612bd7565b905082815260208101848484011115612c5d57612c5c612b75565b5b612c68848285612c21565b509392505050565b5f82601f830112612c8457612c83612b71565b5b8135612c94848260208601612c2f565b91505092915050565b5f5f5f5f60808587031215612cb557612cb46126be565b5b5f612cc2878288016126e5565b945050602085013567ffffffffffffffff811115612ce357612ce26126c2565b5b612cef87828801612c70565b935050604085013567ffffffffffffffff811115612d1057612d0f6126c2565b5b612d1c87828801612c70565b925050606085013567ffffffffffffffff811115612d3d57612d3c6126c2565b5b612d4987828801612c70565b91505092959194509250565b612d5e8161280b565b8114612d68575f5ffd5b50565b5f81359050612d7981612d55565b92915050565b5f5f60408385031215612d9557612d946126be565b5b5f612da2858286016126e5565b9250506020612db385828601612d6b565b9150509250929050565b5f5f5f5f60808587031215612dd557612dd46126be565b5b5f85013567ffffffffffffffff811115612df257612df16126c2565b5b612dfe87828801612c70565b945050602085013567ffffffffffffffff811115612e1f57612e1e6126c2565b5b612e2b87828801612c70565b935050604085013567ffffffffffffffff811115612e4c57612e4b6126c2565b5b612e5887828801612c70565b9250506060612e6987828801612d6b565b91505092959194509250565b5f82825260208201905092915050565b7f506f737420646f6573206e6f74206578697374000000000000000000000000005f82015250565b5f612eb9601383612e75565b9150612ec482612e85565b602082019050919050565b5f6020820190508181035f830152612ee681612ead565b9050919050565b7f4e6f742074686520706f737420617574686f72000000000000000000000000005f82015250565b5f612f21601383612e75565b9150612f2c82612eed565b602082019050919050565b5f6020820190508181035f830152612f4e81612f15565b9050919050565b7f506f7374206e6f7420666f722073616c650000000000000000000000000000005f82015250565b5f612f89601183612e75565b9150612f9482612f55565b602082019050919050565b5f6020820190508181035f830152612fb681612f7d565b9050919050565b7f4e6f7420656e6f756768204554480000000000000000000000000000000000005f82015250565b5f612ff1600e83612e75565b9150612ffc82612fbd565b602082019050919050565b5f6020820190508181035f83015261301e81612fe5565b9050919050565b7f416c7265616479206f776e6572000000000000000000000000000000000000005f82015250565b5f613059600d83612e75565b915061306482613025565b602082019050919050565b5f6020820190508181035f8301526130868161304d565b9050919050565b613096816126c6565b82525050565b5f6020820190506130af5f83018461308d565b92915050565b7f4e487b71000000000000000000000000000000000000000000000000000000005f52601160045260245ffd5b5f6130ec826126c6565b91506130f7836126c6565b925082820390508181111561310f5761310e6130b5565b5b92915050565b5f61311f826126c6565b91507fffffffffffffffffffffffffffffffffffffffffffffffffffffffffffffffff8203613151576131506130b5565b5b600182019050919050565b6131658161277b565b82525050565b5f60208201905061317e5f83018461315c565b92915050565b5f5ffd5b5f5ffd5b5f8151905061319a81612b1c565b92915050565b5f6131b26131ad84612bf1565b612bd7565b9050828152602081018484840111156131ce576131cd612b75565b5b6131d98482856127b5565b509392505050565b5f82601f8301126131f5576131f4612b71565b5b81516132058482602086016131a0565b91505092915050565b5f8151905061321c816126cf565b92915050565b5f8151905061323081612d55565b92915050565b5f60c0828403121561324b5761324a613184565b5b61325560c0612bd7565b90505f6132648482850161318c565b5f83015250602082015167ffffffffffffffff81111561328757613286613188565b5b613293848285016131e1565b602083015250604082015167ffffffffffffffff8111156132b7576132b6613188565b5b6132c3848285016131e1565b604083015250606082015167ffffffffffffffff8111156132e7576132e6613188565b5b6132f3848285016131e1565b60608301525060806133078482850161320e565b60808301525060a061331b84828501613222565b60a08301525092915050565b5f6020828403121561333c5761333b6126be565b5b5f82015167ffffffffffffffff811115613359576133586126c2565b5b61336584828501613236565b91505092915050565b7f4e487b71000000000000000000000000000000000000000000000000000000005f52602260045260245ffd5b5f60028204905060018216806133b257607f821691505b6020821081036133c5576133c461336e565b5b50919050565b7f4e487b71000000000000000000000000000000000000000000000000000000005f52603260045260245ffd5b5f819050919050565b5f819050919050565b5f61342461341f61341a846133f8565b613401565b6126c6565b9050919050565b6134348161340a565b82525050565b5f60408201905061344d5f83018561315c565b61345a602083018461342b565b9392505050565b5f819050815f5260205f209050919050565b5f6020601f8301049050919050565b5f82821b905092915050565b5f600883026134bd7fffffffffffffffffffffffffffffffffffffffffffffffffffffffffffffffff82613482565b6134c78683613482565b95508019841693508086168417925050509392505050565b5f6134f96134f46134ef846126c6565b613401565b6126c6565b9050919050565b5f819050919050565b613512836134df565b61352661351e82613500565b84845461348e565b825550505050565b5f5f905090565b61353d61352e565b613548818484613509565b505050565b5b8181101561356b576135605f82613535565b60018101905061354e565b5050565b601f8211156135b05761358181613461565b61358a84613473565b81016020851015613599578190505b6135ad6135a585613473565b83018261354d565b50505b505050565b5f82821c905092915050565b5f6135d05f19846008026135b5565b1980831691505092915050565b5f6135e883836135c1565b9150826002028217905092915050565b6136018261279b565b67ffffffffffffffff81111561361a57613619612b79565b5b613624825461339b565b61362f82828561356f565b5f60209050601f831160018114613660575f841561364e578287015190505b61365885826135dd565b8655506136bf565b601f19841661366e86613461565b5f5b8281101561369557848901518255600182019150602085019450602081019050613670565b868310156136b257848901516136ae601f8916826135c1565b8355505b6001600288020188555050505b505050505050565b6136d08161280b565b82525050565b5f6020820190506136e95f8301846136c7565b92915050565b7f50726f66696c65207265717569726564000000000000000000000000000000005f82015250565b5f613723601083612e75565b915061372e826136ef565b602082019050919050565b5f6020820190508181035f83015261375081613717565b9050919050565b5f819050919050565b5f61377a61377561377084613757565b613401565b6126c6565b9050919050565b61378a81613760565b82525050565b5f6040820190506137a35f83018561315c565b6137b06020830184613781565b9392505050565b5f6137c18261279b565b6137cb8185612e75565b93506137db8185602086016127b5565b6137e4816127c3565b840191505092915050565b5f6020820190508181035f83015261380781846137b7565b905092915050565b5f613819826126c6565b9150613824836126c6565b9250828202613832816126c6565b91508282048414831517613849576138486130b5565b5b5092915050565b5f61385a826126c6565b9150613865836126c6565b925082820190508082111561387d5761387c6130b5565b5b9291505056fea26469706673582212202dc2a8981d5f04223e538f1d84036edbdb5095c4158615eead49a07c21b4f9c464736f6c634300081c0033",
  "linkReferences": {},
  "deployedLinkReferences": {},
  "immutableReferences": {},
  "inputSourceName": "project/contracts/Posts.sol",
  "buildInfoId": "solc-0_8_28-68d408368963f01e31f1d4dcc16034e627b11681"
}