{
  "_format": "hh3-artifact-1",
  "contractName": "Posts",
  "sourceName": "contracts/Posts.sol",
  "abi": [
    {
      "inputs": [
        {
          "internalType": "address",
          "name": "_profileContract",
          "type": "address"
        }
      ],
      "stateMutability": "nonpayable",
      "type": "constructor"
    },
    {
      "anonymous": false,
      "inputs": [
        {
          "indexed": true,
          "internalType": "uint256",
          "name": "postId",
          "type": "uint256"
        },
        {
          "indexed": true,
          "internalType": "address",
          "name": "author",
          "type": "address"
        },
        {
          "indexed": false,
          "internalType": "string",
          "name": "content",
          "type": "string"
        },
        {
          "indexed": false,
          "internalType": "string",
          "name": "imageURI",
          "type": "string"
        }
      ],
      "name": "PostCreated",
      "type": "event"
    },
    {
      "anonymous": false,
      "inputs": [
        {
          "indexed": true,
          "internalType": "uint256",
          "name": "postId",
          "type": "uint256"
        }
      ],
      "name": "PostDeleted",
      "type": "event"
    },
    {
      "anonymous": false,
      "inputs": [
        {
          "indexed": true,
          "internalType": "uint256",
          "name": "postId",
          "type": "uint256"
        },
        {
          "indexed": true,
          "internalType": "address",
          "name": "user",
          "type": "address"
        }
      ],
      "name": "PostLiked",
      "type": "event"
    },
    {
      "anonymous": false,
      "inputs": [
        {
          "indexed": true,
          "internalType": "uint256",
          "name": "postId",
          "type": "uint256"
        },
        {
          "indexed": true,
          "internalType": "address",
          "name": "user",
          "type": "address"
        }
      ],
      "name": "PostUnliked",
      "type": "event"
    },
    {
      "anonymous": false,
      "inputs": [
        {
          "indexed": true,
          "internalType": "uint256",
          "name": "postId",
          "type": "uint256"
        },
        {
          "indexed": false,
          "internalType": "string",
          "name": "newContent",
          "type": "string"
        },
        {
          "indexed": false,
          "internalType": "string",
          "name": "newImageURI",
          "type": "string"
        }
      ],
      "name": "PostUpdated",
      "type": "event"
    },
    {
      "inputs": [
        {
          "internalType": "string",
          "name": "_content",
          "type": "string"
        },
        {
          "internalType": "string",
          "name": "_imageURI",
          "type": "string"
        },
        {
          "internalType": "string",
          "name": "_caption",
          "type": "string"
        }
      ],
      "name": "createPost",
      "outputs": [],
      "stateMutability": "nonpayable",
      "type": "function"
    },
    {
      "inputs": [
        {
          "internalType": "uint256",
          "name": "_postId",
          "type": "uint256"
        }
      ],
      "name": "deletePost",
      "outputs": [],
      "stateMutability": "nonpayable",
      "type": "function"
    },
    {
      "inputs": [],
      "name": "getAllPosts",
      "outputs": [
        {
          "components": [
            {
              "components": [
                {
                  "internalType": "uint256",
                  "name": "id",
                  "type": "uint256"
                },
                {
                  "internalType": "address",
                  "name": "author",
                  "type": "address"
                },
                {
                  "internalType": "string",
                  "name": "caption",
                  "type": "string"
                },
                {
                  "internalType": "string",
                  "name": "content",
                  "type": "string"
                },
                {
                  "internalType": "string",
                  "name": "imageURI",
                  "type": "string"
                },
                {
                  "internalType": "uint256",
                  "name": "timestamp",
                  "type": "uint256"
                },
                {
                  "internalType": "uint256",
                  "name": "likes",
                  "type": "uint256"
                },
                {
                  "internalType": "uint256",
                  "name": "price",
                  "type": "uint256"
                },
                {
                  "internalType": "bool",
                  "name": "exists",
                  "type": "bool"
                }
              ],
              "internalType": "struct Posts.Post",
              "name": "post",
              "type": "tuple"
            },
            {
              "components": [
                {
                  "internalType": "address",
                  "name": "account",
                  "type": "address"
                },
                {
                  "internalType": "string",
                  "name": "displayName",
                  "type": "string"
                },
                {
                  "internalType": "string",
                  "name": "bio",
                  "type": "string"
                },
                {
                  "internalType": "string",
                  "name": "avatarURI",
                  "type": "string"
                },
                {
                  "internalType": "bool",
                  "name": "exists",
                  "type": "bool"
                }
              ],
              "internalType": "struct Profile.UserProfile",
              "name": "profile",
              "type": "tuple"
            }
          ],
          "internalType": "struct Posts.PostWithProfile[]",
          "name": "",
          "type": "tuple[]"
        }
      ],
      "stateMutability": "view",
      "type": "function"
    },
    {
      "inputs": [
        {
          "internalType": "uint256",
          "name": "_postId",
          "type": "uint256"
        }
      ],
      "name": "getPost",
      "outputs": [
        {
          "components": [
            {
              "components": [
                {
                  "internalType": "uint256",
                  "name": "id",
                  "type": "uint256"
                },
                {
                  "internalType": "address",
                  "name": "author",
                  "type": "address"
                },
                {
                  "internalType": "string",
                  "name": "caption",
                  "type": "string"
                },
                {
                  "internalType": "string",
                  "name": "content",
                  "type": "string"
                },
                {
                  "internalType": "string",
                  "name": "imageURI",
                  "type": "string"
                },
                {
                  "internalType": "uint256",
                  "name": "timestamp",
                  "type": "uint256"
                },
                {
                  "internalType": "uint256",
                  "name": "likes",
                  "type": "uint256"
                },
                {
                  "internalType": "uint256",
                  "name": "price",
                  "type": "uint256"
                },
                {
                  "internalType": "bool",
                  "name": "exists",
                  "type": "bool"
                }
              ],
              "internalType": "struct Posts.Post",
              "name": "post",
              "type": "tuple"
            },
            {
              "components": [
                {
                  "internalType": "address",
                  "name": "account",
                  "type": "address"
                },
                {
                  "internalType": "string",
                  "name": "displayName",
                  "type": "string"
                },
                {
                  "internalType": "string",
                  "name": "bio",
                  "type": "string"
                },
                {
                  "internalType": "string",
                  "name": "avatarURI",
                  "type": "string"
                },
                {
                  "internalType": "bool",
                  "name": "exists",
                  "type": "bool"
                }
              ],
              "internalType": "struct Profile.UserProfile",
              "name": "profile",
              "type": "tuple"
            }
          ],
          "internalType": "struct Posts.PostWithProfile",
          "name": "",
          "type": "tuple"
        }
      ],
      "stateMutability": "view",
      "type": "function"
    },
    {
      "inputs": [
        {
          "internalType": "address",
          "name": "_user",
          "type": "address"
        }
      ],
      "name": "getUserPosts",
      "outputs": [
        {
          "components": [
            {
              "components": [
                {
                  "internalType": "uint256",
                  "name": "id",
                  "type": "uint256"
                },
                {
                  "internalType": "address",
                  "name": "author",
                  "type": "address"
                },
                {
                  "internalType": "string",
                  "name": "caption",
                  "type": "string"
                },
                {
                  "internalType": "string",
                  "name": "content",
                  "type": "string"
                },
                {
                  "internalType": "string",
                  "name": "imageURI",
                  "type": "string"
                },
                {
                  "internalType": "uint256",
                  "name": "timestamp",
                  "type": "uint256"
                },
                {
                  "internalType": "uint256",
                  "name": "likes",
                  "type": "uint256"
                },
                {
                  "internalType": "uint256",
                  "name": "price",
                  "type": "uint256"
                },
                {
                  "internalType": "bool",
                  "name": "exists",
                  "type": "bool"
                }
              ],
              "internalType": "struct Posts.Post",
              "name": "post",
              "type": "tuple"
            },
            {
              "components": [
                {
                  "internalType": "address",
                  "name": "account",
                  "type": "address"
                },
                {
                  "internalType": "string",
                  "name": "displayName",
                  "type": "string"
                },
                {
                  "internalType": "string",
                  "name": "bio",
                  "type": "string"
                },
                {
                  "internalType": "string",
                  "name": "avatarURI",
                  "type": "string"
                },
                {
                  "internalType": "bool",
                  "name": "exists",
                  "type": "bool"
                }
              ],
              "internalType": "struct Profile.UserProfile",
              "name": "profile",
              "type": "tuple"
            }
          ],
          "internalType": "struct Posts.PostWithProfile[]",
          "name": "",
          "type": "tuple[]"
        }
      ],
      "stateMutability": "view",
      "type": "function"
    },
    {
      "inputs": [
        {
          "internalType": "uint256",
          "name": "_postId",
          "type": "uint256"
        },
        {
          "internalType": "address",
          "name": "_user",
          "type": "address"
        }
      ],
      "name": "hasLiked",
      "outputs": [
        {
          "internalType": "bool",
          "name": "",
          "type": "bool"
        }
      ],
      "stateMutability": "view",
      "type": "function"
    },
    {
      "inputs": [
        {
          "internalType": "uint256",
          "name": "_postId",
          "type": "uint256"
        }
      ],
      "name": "likePost",
      "outputs": [],
      "stateMutability": "nonpayable",
      "type": "function"
    },
    {
      "inputs": [],
      "name": "owner",
      "outputs": [
        {
          "internalType": "address",
          "name": "",
          "type": "address"
        }
      ],
      "stateMutability": "view",
      "type": "function"
    },
    {
      "inputs": [],
      "name": "platformContract",
      "outputs": [
        {
          "internalType": "address",
          "name": "",
          "type": "address"
        }
      ],
      "stateMutability": "view",
      "type": "function"
    },
    {
      "inputs": [
        {
          "internalType": "address",
          "name": "_platform",
          "type": "address"
        }
      ],
      "name": "setPlatformContract",
      "outputs": [],
      "stateMutability": "nonpayable",
      "type": "function"
    },
    {
      "inputs": [
        {
          "internalType": "uint256",
          "name": "_postId",
          "type": "uint256"
        },
        {
          "internalType": "address",
          "name": "_newOwner",
          "type": "address"
        }
      ],
      "name": "transferPostOwnership",
      "outputs": [],
      "stateMutability": "nonpayable",
      "type": "function"
    },
    {
      "inputs": [
        {
          "internalType": "uint256",
          "name": "_postId",
          "type": "uint256"
        }
      ],
      "name": "unlikePost",
      "outputs": [],
      "stateMutability": "nonpayable",
      "type": "function"
    },
    {
      "inputs": [
        {
          "internalType": "uint256",
          "name": "_postId",
          "type": "uint256"
        },
        {
          "internalType": "string",
          "name": "_newContent",
          "type": "string"
        },
        {
          "internalType": "string",
          "name": "_newImageURI",
          "type": "string"
        },
        {
          "internalType": "string",
          "name": "_newCaption",
          "type": "string"
        }
      ],
      "name": "updatePost",
      "outputs": [],
      "stateMutability": "nonpayable",
      "type": "function"
    }
  ],
  "bytecode": "0x608060405234801561000f575f5ffd5b50604051612e7e380380612e7e833981810160405281019061003191906100dd565b8060025f6101000a81548173ffffffffffffffffffffffffffffffffffffffff021916908373ffffffffffffffffffffffffffffffffffffffff160217905550600160038190555050610108565b5f5ffd5b5f73ffffffffffffffffffffffffffffffffffffffff82169050919050565b5f6100ac82610083565b9050919050565b6100bc816100a2565b81146100c6575f5ffd5b50565b5f815190506100d7816100b3565b92915050565b5f602082840312156100f2576100f161007f565b5b5f6100ff848285016100c9565b91505092915050565b612d69806101155f395ff3fe608060405234801561000f575f5ffd5b50600436106100cc575f3560e01c80638da5cb5b1161008a578063a44760f211610064578063a44760f21461020e578063cc05adb01461022a578063e8a4a1eb14610246578063fa188de914610262576100cc565b80638da5cb5b146101905780638fb7092c146101ae5780639a2194a9146101de576100cc565b8062e7cf31146100d0578063094cd5ee146100ec5780631627469514610108578063305611001461012657806340731c2414610144578063725009d314610174575b5f5ffd5b6100ea60048036038101906100e59190611d5d565b61027e565b005b61010660048036038101906101019190611d9b565b61042d565b005b6101106105f7565b60405161011d9190611dd5565b60405180910390f35b61012e61061b565b60405161013b91906120e3565b60405180910390f35b61015e60048036038101906101599190611d9b565b610a2a565b60405161016b9190612144565b60405180910390f35b61018e60048036038101906101899190611d9b565b610dbb565b005b610198610fb3565b6040516101a59190611dd5565b60405180910390f35b6101c860048036038101906101c39190611d5d565b610fd8565b6040516101d59190612173565b60405180910390f35b6101f860048036038101906101f3919061218c565b61103a565b60405161020591906120e3565b60405180910390f35b6102286004803603810190610223919061218c565b6114b5565b005b610244600480360381019061023f91906122e3565b611586565b005b610260600480360381019061025b919061239b565b611716565b005b61027c60048036038101906102779190611d9b565b6119a8565b005b8160045f8281526020019081526020015f206008015f9054906101000a900460ff166102df576040517f08c379a00000000000000000000000000000000000000000000000000000000081526004016102d690612499565b60405180910390fd5b60045f8481526020019081526020015f206001015f9054906101000a900473ffffffffffffffffffffffffffffffffffffffff1673ffffffffffffffffffffffffffffffffffffffff163373ffffffffffffffffffffffffffffffffffffffff16148061039757505f5f9054906101000a900473ffffffffffffffffffffffffffffffffffffffff1673ffffffffffffffffffffffffffffffffffffffff163373ffffffffffffffffffffffffffffffffffffffff16145b6103d6576040517f08c379a00000000000000000000000000000000000000000000000000000000081526004016103cd90612501565b60405180910390fd5b8160045f8581526020019081526020015f206001015f6101000a81548173ffffffffffffffffffffffffffffffffffffffff021916908373ffffffffffffffffffffffffffffffffffffffff160217905550505050565b8060045f8281526020019081526020015f206008015f9054906101000a900460ff1661048e576040517f08c379a000000000000000000000000000000000000000000000000000000000815260040161048590612499565b60405180910390fd5b813373ffffffffffffffffffffffffffffffffffffffff1660045f8381526020019081526020015f206001015f9054906101000a900473ffffffffffffffffffffffffffffffffffffffff1673ffffffffffffffffffffffffffffffffffffffff1614610530576040517f08c379a000000000000000000000000000000000000000000000000000000000815260040161052790612569565b60405180910390fd5b60045f8481526020019081526020015f205f5f82015f9055600182015f6101000a81549073ffffffffffffffffffffffffffffffffffffffff0219169055600282015f61057d9190611b9e565b600382015f61058c9190611b9e565b600482015f61059b9190611b9e565b600582015f9055600682015f9055600782015f9055600882015f6101000a81549060ff02191690555050827f32d67e2131cd025eb20e7256680e338dedbe17b28943a11681860a9271ad119d60405160405180910390a2505050565b5f5f9054906101000a900473ffffffffffffffffffffffffffffffffffffffff1681565b60605f600160035461062d91906125b4565b90505f8167ffffffffffffffff81111561064a576106496121bf565b5b60405190808252806020026020018201604052801561068357816020015b610670611bdb565b8152602001906001900390816106685790505b5090505f5f90505f600190505b838111610a1d5760045f8281526020019081526020015f206008015f9054906101000a900460ff1615610a0a575f60045f8381526020019081526020015f20604051806101200160405290815f8201548152602001600182015f9054906101000a900473ffffffffffffffffffffffffffffffffffffffff1673ffffffffffffffffffffffffffffffffffffffff1673ffffffffffffffffffffffffffffffffffffffff16815260200160028201805461074990612614565b80601f016020809104026020016040519081016040528092919081815260200182805461077590612614565b80156107c05780601f10610797576101008083540402835291602001916107c0565b820191905f5260205f20905b8154815290600101906020018083116107a357829003601f168201915b505050505081526020016003820180546107d990612614565b80601f016020809104026020016040519081016040528092919081815260200182805461080590612614565b80156108505780601f1061082757610100808354040283529160200191610850565b820191905f5260205f20905b81548152906001019060200180831161083357829003601f168201915b5050505050815260200160048201805461086990612614565b80601f016020809104026020016040519081016040528092919081815260200182805461089590612614565b80156108e05780601f106108b7576101008083540402835291602001916108e0565b820191905f5260205f20905b8154815290600101906020018083116108c357829003601f168201915b50505050508152602001600582015481526020016006820154815260200160078201548152602001600882015f9054906101000a900460ff16151515158152505090505f60025f9054906101000a900473ffffffffffffffffffffffffffffffffffffffff1673ffffffffffffffffffffffffffffffffffffffff16630f53a47083602001516040518263ffffffff1660e01b81526004016109829190611dd5565b5f60405180830381865afa15801561099c573d5f5f3e3d5ffd5b505050506040513d5f823e3d601f19601f820116820180604052508101906109c491906127d5565b90506040518060400160405280838152602001828152508585815181106109ee576109ed61281c565b5b60200260200101819052508380610a0490612849565b94505050505b8080610a1590612849565b915050610690565b5080825281935050505090565b610a32611bdb565b8160045f8281526020019081526020015f206008015f9054906101000a900460ff16610a93576040517f08c379a0000000000000000000000000000000000000000000000000000000008152600401610a8a90612499565b60405180910390fd5b5f60045f8581526020019081526020015f20604051806101200160405290815f8201548152602001600182015f9054906101000a900473ffffffffffffffffffffffffffffffffffffffff1673ffffffffffffffffffffffffffffffffffffffff1673ffffffffffffffffffffffffffffffffffffffff168152602001600282018054610b1f90612614565b80601f0160208091040260200160405190810160405280929190818152602001828054610b4b90612614565b8015610b965780601f10610b6d57610100808354040283529160200191610b96565b820191905f5260205f20905b815481529060010190602001808311610b7957829003601f168201915b50505050508152602001600382018054610baf90612614565b80601f0160208091040260200160405190810160405280929190818152602001828054610bdb90612614565b8015610c265780601f10610bfd57610100808354040283529160200191610c26565b820191905f5260205f20905b815481529060010190602001808311610c0957829003601f168201915b50505050508152602001600482018054610c3f90612614565b80601f0160208091040260200160405190810160405280929190818152602001828054610c6b90612614565b8015610cb65780601f10610c8d57610100808354040283529160200191610cb6565b820191905f5260205f20905b815481529060010190602001808311610c9957829003601f168201915b50505050508152602001600582015481526020016006820154815260200160078201548152602001600882015f9054906101000a900460ff16151515158152505090505f60025f9054906101000a900473ffffffffffffffffffffffffffffffffffffffff1673ffffffffffffffffffffffffffffffffffffffff16630f53a47083602001516040518263ffffffff1660e01b8152600401610d589190611dd5565b5f60405180830381865afa158015610d72573d5f5f3e3d5ffd5b505050506040513d5f823e3d601f19601f82011682018060405250810190610d9a91906127d5565b90506040518060400160405280838152602001828152509350505050919050565b8060045f8281526020019081526020015f206008015f9054906101000a900460ff16610e1c576040517f08c379a0000000000000000000000000000000000000000000000000000000008152600401610e1390612499565b60405180910390fd5b60055f8381526020019081526020015f205f3373ffffffffffffffffffffffffffffffffffffffff1673ffffffffffffffffffffffffffffffffffffffff1681526020019081526020015f205f9054906101000a900460ff1615610eb5576040517f08c379a0000000000000000000000000000000000000000000000000000000008152600401610eac906128da565b60405180910390fd5b600160055f8481526020019081526020015f205f3373ffffffffffffffffffffffffffffffffffffffff1673ffffffffffffffffffffffffffffffffffffffff1681526020019081526020015f205f6101000a81548160ff02191690831515021790555060045f8381526020019081526020015f206006015f815480929190610f3d90612849565b919050555060045f8381526020019081526020015f206007015f815480929190610f6690612849565b91905055503373ffffffffffffffffffffffffffffffffffffffff16827fcf765d6f163c9b0d832e2a94f4c8e9bffd32a2c3ca5fdbb8cc67b5fe1441f41360405160405180910390a35050565b60015f9054906101000a900473ffffffffffffffffffffffffffffffffffffffff1681565b5f60055f8481526020019081526020015f205f8373ffffffffffffffffffffffffffffffffffffffff1673ffffffffffffffffffffffffffffffffffffffff1681526020019081526020015f205f9054906101000a900460ff16905092915050565b60605f600160035461104c91906125b4565b90505f8167ffffffffffffffff811115611069576110686121bf565b5b6040519080825280602002602001820160405280156110a257816020015b61108f611bdb565b8152602001906001900390816110875790505b5090505f5f90505f600190505b8381116114a65760045f8281526020019081526020015f206008015f9054906101000a900460ff16801561114157508573ffffffffffffffffffffffffffffffffffffffff1660045f8381526020019081526020015f206001015f9054906101000a900473ffffffffffffffffffffffffffffffffffffffff1673ffffffffffffffffffffffffffffffffffffffff16145b15611493575f60045f8381526020019081526020015f20604051806101200160405290815f8201548152602001600182015f9054906101000a900473ffffffffffffffffffffffffffffffffffffffff1673ffffffffffffffffffffffffffffffffffffffff1673ffffffffffffffffffffffffffffffffffffffff1681526020016002820180546111d290612614565b80601f01602080910402602001604051908101604052809291908181526020018280546111fe90612614565b80156112495780601f1061122057610100808354040283529160200191611249565b820191905f5260205f20905b81548152906001019060200180831161122c57829003601f168201915b5050505050815260200160038201805461126290612614565b80601f016020809104026020016040519081016040528092919081815260200182805461128e90612614565b80156112d95780601f106112b0576101008083540402835291602001916112d9565b820191905f5260205f20905b8154815290600101906020018083116112bc57829003601f168201915b505050505081526020016004820180546112f290612614565b80601f016020809104026020016040519081016040528092919081815260200182805461131e90612614565b80156113695780601f1061134057610100808354040283529160200191611369565b820191905f5260205f20905b81548152906001019060200180831161134c57829003601f168201915b50505050508152602001600582015481526020016006820154815260200160078201548152602001600882015f9054906101000a900460ff16151515158152505090505f60025f9054906101000a900473ffffffffffffffffffffffffffffffffffffffff1673ffffffffffffffffffffffffffffffffffffffff16630f53a47083602001516040518263ffffffff1660e01b815260040161140b9190611dd5565b5f60405180830381865afa158015611425573d5f5f3e3d5ffd5b505050506040513d5f823e3d601f19601f8201168201806040525081019061144d91906127d5565b90506040518060400160405280838152602001828152508585815181106114775761147661281c565b5b6020026020010181905250838061148d90612849565b94505050505b808061149e90612849565b9150506110af565b50808252819350505050919050565b60015f9054906101000a900473ffffffffffffffffffffffffffffffffffffffff1673ffffffffffffffffffffffffffffffffffffffff163373ffffffffffffffffffffffffffffffffffffffff1614611544576040517f08c379a000000000000000000000000000000000000000000000000000000000815260040161153b90612942565b60405180910390fd5b805f5f6101000a81548173ffffffffffffffffffffffffffffffffffffffff021916908373ffffffffffffffffffffffffffffffffffffffff16021790555050565b8360045f8281526020019081526020015f206008015f9054906101000a900460ff166115e7576040517f08c379a00000000000000000000000000000000000000000000000000000000081526004016115de90612499565b60405180910390fd5b843373ffffffffffffffffffffffffffffffffffffffff1660045f8381526020019081526020015f206001015f9054906101000a900473ffffffffffffffffffffffffffffffffffffffff1673ffffffffffffffffffffffffffffffffffffffff1614611689576040517f08c379a000000000000000000000000000000000000000000000000000000000815260040161168090612569565b60405180910390fd5b5f60045f8881526020019081526020015f209050838160020190816116ae9190612b00565b50858160030190816116c09190612b00565b50848160040190816116d29190612b00565b50867ffcc96ab7382d1c4bc7fd817ee5ec518a9bae200bb3d1396c725178b00a2488b48787604051611705929190612c07565b60405180910390a250505050505050565b5f60025f9054906101000a900473ffffffffffffffffffffffffffffffffffffffff1673ffffffffffffffffffffffffffffffffffffffff16630f53a470336040518263ffffffff1660e01b81526004016117719190611dd5565b5f60405180830381865afa15801561178b573d5f5f3e3d5ffd5b505050506040513d5f823e3d601f19601f820116820180604052508101906117b391906127d5565b905080608001516117f9576040517f08c379a00000000000000000000000000000000000000000000000000000000081526004016117f090612c86565b60405180910390fd5b60405180610120016040528060035481526020013373ffffffffffffffffffffffffffffffffffffffff1681526020018381526020018581526020018481526020014281526020015f81526020015f81526020016001151581525060045f60035481526020019081526020015f205f820151815f01556020820151816001015f6101000a81548173ffffffffffffffffffffffffffffffffffffffff021916908373ffffffffffffffffffffffffffffffffffffffff16021790555060408201518160020190816118ca9190612b00565b5060608201518160030190816118e09190612b00565b5060808201518160040190816118f69190612b00565b5060a0820151816005015560c0820151816006015560e08201518160070155610100820151816008015f6101000a81548160ff0219169083151502179055509050503373ffffffffffffffffffffffffffffffffffffffff166003547f5475621b07408f75d49c828caa5aeacb3a5e98d3497e75730dc184677504401c8686604051611983929190612c07565b60405180910390a360035f81548092919061199d90612849565b919050555050505050565b8060045f8281526020019081526020015f206008015f9054906101000a900460ff16611a09576040517f08c379a0000000000000000000000000000000000000000000000000000000008152600401611a0090612499565b60405180910390fd5b60055f8381526020019081526020015f205f3373ffffffffffffffffffffffffffffffffffffffff1673ffffffffffffffffffffffffffffffffffffffff1681526020019081526020015f205f9054906101000a900460ff16611aa1576040517f08c379a0000000000000000000000000000000000000000000000000000000008152600401611a9890612cee565b60405180910390fd5b5f60055f8481526020019081526020015f205f3373ffffffffffffffffffffffffffffffffffffffff1673ffffffffffffffffffffffffffffffffffffffff1681526020019081526020015f205f6101000a81548160ff02191690831515021790555060045f8381526020019081526020015f206006015f815480929190611b2890612d0c565b919050555060045f8381526020019081526020015f206007015f815480929190611b5190612d0c565b91905055503373ffffffffffffffffffffffffffffffffffffffff16827f82092d1196022c48d901e5dc4b17451dbce942b8a9ded42fc6f2a4a5e8fd89b960405160405180910390a35050565b508054611baa90612614565b5f825580601f10611bbb5750611bd8565b601f0160209004905f5260205f2090810190611bd79190611c01565b5b50565b6040518060400160405280611bee611c1c565b8152602001611bfb611c7a565b81525090565b5b80821115611c18575f815f905550600101611c02565b5090565b6040518061012001604052805f81526020015f73ffffffffffffffffffffffffffffffffffffffff1681526020016060815260200160608152602001606081526020015f81526020015f81526020015f81526020015f151581525090565b6040518060a001604052805f73ffffffffffffffffffffffffffffffffffffffff1681526020016060815260200160608152602001606081526020015f151581525090565b5f604051905090565b5f5ffd5b5f5ffd5b5f819050919050565b611ce281611cd0565b8114611cec575f5ffd5b50565b5f81359050611cfd81611cd9565b92915050565b5f73ffffffffffffffffffffffffffffffffffffffff82169050919050565b5f611d2c82611d03565b9050919050565b611d3c81611d22565b8114611d46575f5ffd5b50565b5f81359050611d5781611d33565b92915050565b5f5f60408385031215611d7357611d72611cc8565b5b5f611d8085828601611cef565b9250506020611d9185828601611d49565b9150509250929050565b5f60208284031215611db057611daf611cc8565b5b5f611dbd84828501611cef565b91505092915050565b611dcf81611d22565b82525050565b5f602082019050611de85f830184611dc6565b92915050565b5f81519050919050565b5f82825260208201905092915050565b5f819050602082019050919050565b611e2081611cd0565b82525050565b611e2f81611d22565b82525050565b5f81519050919050565b5f82825260208201905092915050565b8281835e5f83830152505050565b5f601f19601f8301169050919050565b5f611e7782611e35565b611e818185611e3f565b9350611e91818560208601611e4f565b611e9a81611e5d565b840191505092915050565b5f8115159050919050565b611eb981611ea5565b82525050565b5f61012083015f830151611ed55f860182611e17565b506020830151611ee86020860182611e26565b5060408301518482036040860152611f008282611e6d565b91505060608301518482036060860152611f1a8282611e6d565b91505060808301518482036080860152611f348282611e6d565b91505060a0830151611f4960a0860182611e17565b5060c0830151611f5c60c0860182611e17565b5060e0830151611f6f60e0860182611e17565b50610100830151611f84610100860182611eb0565b508091505092915050565b5f60a083015f830151611fa45f860182611e26565b5060208301518482036020860152611fbc8282611e6d565b91505060408301518482036040860152611fd68282611e6d565b91505060608301518482036060860152611ff08282611e6d565b91505060808301516120056080860182611eb0565b508091505092915050565b5f604083015f8301518482035f86015261202a8282611ebf565b915050602083015184820360208601526120448282611f8f565b9150508091505092915050565b5f61205c8383612010565b905092915050565b5f602082019050919050565b5f61207a82611dee565b6120848185611df8565b93508360208202850161209685611e08565b805f5b858110156120d157848403895281516120b28582612051565b94506120bd83612064565b925060208a01995050600181019050612099565b50829750879550505050505092915050565b5f6020820190508181035f8301526120fb8184612070565b905092915050565b5f604083015f8301518482035f86015261211d8282611ebf565b915050602083015184820360208601526121378282611f8f565b9150508091505092915050565b5f6020820190508181035f83015261215c8184612103565b905092915050565b61216d81611ea5565b82525050565b5f6020820190506121865f830184612164565b92915050565b5f602082840312156121a1576121a0611cc8565b5b5f6121ae84828501611d49565b91505092915050565b5f5ffd5b5f5ffd5b7f4e487b71000000000000000000000000000000000000000000000000000000005f52604160045260245ffd5b6121f582611e5d565b810181811067ffffffffffffffff82111715612214576122136121bf565b5b80604052505050565b5f612226611cbf565b905061223282826121ec565b919050565b5f67ffffffffffffffff821115612251576122506121bf565b5b61225a82611e5d565b9050602081019050919050565b828183375f83830152505050565b5f61228761228284612237565b61221d565b9050828152602081018484840111156122a3576122a26121bb565b5b6122ae848285612267565b509392505050565b5f82601f8301126122ca576122c96121b7565b5b81356122da848260208601612275565b91505092915050565b5f5f5f5f608085870312156122fb576122fa611cc8565b5b5f61230887828801611cef565b945050602085013567ffffffffffffffff81111561232957612328611ccc565b5b612335878288016122b6565b935050604085013567ffffffffffffffff81111561235657612355611ccc565b5b612362878288016122b6565b925050606085013567ffffffffffffffff81111561238357612382611ccc565b5b61238f878288016122b6565b91505092959194509250565b5f5f5f606084860312156123b2576123b1611cc8565b5b5f84013567ffffffffffffffff8111156123cf576123ce611ccc565b5b6123db868287016122b6565b935050602084013567ffffffffffffffff8111156123fc576123fb611ccc565b5b612408868287016122b6565b925050604084013567ffffffffffffffff81111561242957612428611ccc565b5b612435868287016122b6565b9150509250925092565b5f82825260208201905092915050565b7f506f737420646f6573206e6f74206578697374000000000000000000000000005f82015250565b5f61248360138361243f565b915061248e8261244f565b602082019050919050565b5f6020820190508181035f8301526124b081612477565b9050919050565b7f4e6f7420617574686f72697a656420746f207472616e736665720000000000005f82015250565b5f6124eb601a8361243f565b91506124f6826124b7565b602082019050919050565b5f6020820190508181035f830152612518816124df565b9050919050565b7f4e6f742074686520706f737420617574686f72000000000000000000000000005f82015250565b5f61255360138361243f565b915061255e8261251f565b602082019050919050565b5f6020820190508181035f83015261258081612547565b9050919050565b7f4e487b71000000000000000000000000000000000000000000000000000000005f52601160045260245ffd5b5f6125be82611cd0565b91506125c983611cd0565b92508282039050818111156125e1576125e0612587565b5b92915050565b7f4e487b71000000000000000000000000000000000000000000000000000000005f52602260045260245ffd5b5f600282049050600182168061262b57607f821691505b60208210810361263e5761263d6125e7565b5b50919050565b5f5ffd5b5f5ffd5b5f8151905061265a81611d33565b92915050565b5f61267261266d84612237565b61221d565b90508281526020810184848401111561268e5761268d6121bb565b5b612699848285611e4f565b509392505050565b5f82601f8301126126b5576126b46121b7565b5b81516126c5848260208601612660565b91505092915050565b6126d781611ea5565b81146126e1575f5ffd5b50565b5f815190506126f2816126ce565b92915050565b5f60a0828403121561270d5761270c612644565b5b61271760a061221d565b90505f6127268482850161264c565b5f83015250602082015167ffffffffffffffff81111561274957612748612648565b5b612755848285016126a1565b602083015250604082015167ffffffffffffffff81111561277957612778612648565b5b612785848285016126a1565b604083015250606082015167ffffffffffffffff8111156127a9576127a8612648565b5b6127b5848285016126a1565b60608301525060806127c9848285016126e4565b60808301525092915050565b5f602082840312156127ea576127e9611cc8565b5b5f82015167ffffffffffffffff81111561280757612806611ccc565b5b612813848285016126f8565b91505092915050565b7f4e487b71000000000000000000000000000000000000000000000000000000005f52603260045260245ffd5b5f61285382611cd0565b91507fffffffffffffffffffffffffffffffffffffffffffffffffffffffffffffffff820361288557612884612587565b5b600182019050919050565b7f416c7265616479206c696b6564000000000000000000000000000000000000005f82015250565b5f6128c4600d8361243f565b91506128cf82612890565b602082019050919050565b5f6020820190508181035f8301526128f1816128b8565b9050919050565b7f4f6e6c79206f776e6572000000000000000000000000000000000000000000005f82015250565b5f61292c600a8361243f565b9150612937826128f8565b602082019050919050565b5f6020820190508181035f83015261295981612920565b9050919050565b5f819050815f5260205f209050919050565b5f6020601f8301049050919050565b5f82821b905092915050565b5f600883026129bc7fffffffffffffffffffffffffffffffffffffffffffffffffffffffffffffffff82612981565b6129c68683612981565b95508019841693508086168417925050509392505050565b5f819050919050565b5f612a016129fc6129f784611cd0565b6129de565b611cd0565b9050919050565b5f819050919050565b612a1a836129e7565b612a2e612a2682612a08565b84845461298d565b825550505050565b5f5f905090565b612a45612a36565b612a50818484612a11565b505050565b5b81811015612a7357612a685f82612a3d565b600181019050612a56565b5050565b601f821115612ab857612a8981612960565b612a9284612972565b81016020851015612aa1578190505b612ab5612aad85612972565b830182612a55565b50505b505050565b5f82821c905092915050565b5f612ad85f1984600802612abd565b1980831691505092915050565b5f612af08383612ac9565b9150826002028217905092915050565b612b0982611e35565b67ffffffffffffffff811115612b2257612b216121bf565b5b612b2c8254612614565b612b37828285612a77565b5f60209050601f831160018114612b68575f8415612b56578287015190505b612b608582612ae5565b865550612bc7565b601f198416612b7686612960565b5f5b82811015612b9d57848901518255600182019150602085019450602081019050612b78565b86831015612bba5784890151612bb6601f891682612ac9565b8355505b6001600288020188555050505b505050505050565b5f612bd982611e35565b612be3818561243f565b9350612bf3818560208601611e4f565b612bfc81611e5d565b840191505092915050565b5f6040820190508181035f830152612c1f8185612bcf565b90508181036020830152612c338184612bcf565b90509392505050565b7f43726561746520612070726f66696c65206669727374000000000000000000005f82015250565b5f612c7060168361243f565b9150612c7b82612c3c565b602082019050919050565b5f6020820190508181035f830152612c9d81612c64565b9050919050565b7f486176656e2774206c696b6564207965740000000000000000000000000000005f82015250565b5f612cd860118361243f565b9150612ce382612ca4565b602082019050919050565b5f6020820190508181035f830152612d0581612ccc565b9050919050565b5f612d1682611cd0565b91505f8203612d2857612d27612587565b5b60018203905091905056fea2646970667358221220551c37006f1daba34d0a57207e6abe99c29d502b33441fc9caf2c44a57a039cb64736f6c634300081c0033",
  "linkReferences": {},
  "deployedLinkReferences": {},
  "immutableReferences": {},
  "inputSourceName": "project/contracts/Posts.sol",
  "buildInfoId": "solc-0_8_28-b9ff128ff4bf73066c79bf55db942397061f5959"
}