{
  "_format": "hh3-artifact-1",
  "contractName": "Profile",
  "sourceName": "contracts/Profile.sol",
  "abi": [
    {
      "inputs": [
        {
          "internalType": "address",
          "name": "_tokenContract",
          "type": "address"
        }
      ],
      "stateMutability": "nonpayable",
      "type": "constructor"
    },
    {
      "anonymous": false,
      "inputs": [
        {
          "indexed": true,
          "internalType": "address",
          "name": "user",
          "type": "address"
        },
        {
          "indexed": false,
          "internalType": "uint256",
          "name": "newBalance",
          "type": "uint256"
        }
      ],
      "name": "BalanceUpdated",
      "type": "event"
    },
    {
      "anonymous": false,
      "inputs": [
        {
          "indexed": true,
          "internalType": "address",
          "name": "user",
          "type": "address"
        },
        {
          "indexed": false,
          "internalType": "string",
          "name": "displayName",
          "type": "string"
        }
      ],
      "name": "ProfileCreated",
      "type": "event"
    },
    {
      "anonymous": false,
      "inputs": [
        {
          "indexed": true,
          "internalType": "address",
          "name": "user",
          "type": "address"
        },
        {
          "indexed": false,
          "internalType": "uint256",
          "name": "amount",
          "type": "uint256"
        }
      ],
      "name": "TokenWithdrawal",
      "type": "event"
    },
    {
      "anonymous": false,
      "inputs": [
        {
          "indexed": true,
          "internalType": "address",
          "name": "user",
          "type": "address"
        },
        {
          "indexed": false,
          "internalType": "uint256",
          "name": "amount",
          "type": "uint256"
        }
      ],
      "name": "Withdrawal",
      "type": "event"
    },
    {
      "inputs": [
        {
          "internalType": "address",
          "name": "_user",
          "type": "address"
        },
        {
          "internalType": "uint256",
          "name": "_amount",
          "type": "uint256"
        }
      ],
      "name": "burnBalance",
      "outputs": [],
      "stateMutability": "nonpayable",
      "type": "function"
    },
    {
      "inputs": [],
      "name": "conversionRate",
      "outputs": [
        {
          "internalType": "uint256",
          "name": "",
          "type": "uint256"
        }
      ],
      "stateMutability": "view",
      "type": "function"
    },
    {
      "inputs": [
        {
          "internalType": "string",
          "name": "_displayName",
          "type": "string"
        },
        {
          "internalType": "string",
          "name": "_bio",
          "type": "string"
        },
        {
          "internalType": "string",
          "name": "_avatarURI",
          "type": "string"
        }
      ],
      "name": "createProfile",
      "outputs": [],
      "stateMutability": "nonpayable",
      "type": "function"
    },
    {
      "inputs": [
        {
          "internalType": "address",
          "name": "_user",
          "type": "address"
        }
      ],
      "name": "getProfile",
      "outputs": [
        {
          "components": [
            {
              "internalType": "address",
              "name": "account",
              "type": "address"
            },
            {
              "internalType": "string",
              "name": "displayName",
              "type": "string"
            },
            {
              "internalType": "string",
              "name": "bio",
              "type": "string"
            },
            {
              "internalType": "string",
              "name": "avatarURI",
              "type": "string"
            },
            {
              "internalType": "uint256",
              "name": "balance",
              "type": "uint256"
            },
            {
              "internalType": "bool",
              "name": "exists",
              "type": "bool"
            }
          ],
          "internalType": "struct Profile.UserProfile",
          "name": "",
          "type": "tuple"
        }
      ],
      "stateMutability": "view",
      "type": "function"
    },
    {
      "inputs": [
        {
          "internalType": "address",
          "name": "_user",
          "type": "address"
        },
        {
          "internalType": "uint256",
          "name": "_amount",
          "type": "uint256"
        }
      ],
      "name": "incrementBalance",
      "outputs": [],
      "stateMutability": "nonpayable",
      "type": "function"
    },
    {
      "inputs": [],
      "name": "tokenContract",
      "outputs": [
        {
          "internalType": "contract PlatformToken",
          "name": "",
          "type": "address"
        }
      ],
      "stateMutability": "view",
      "type": "function"
    },
    {
      "inputs": [
        {
          "internalType": "uint256",
          "name": "_amount",
          "type": "uint256"
        }
      ],
      "name": "withdraw",
      "outputs": [],
      "stateMutability": "nonpayable",
      "type": "function"
    },
    {
      "inputs": [
        {
          "internalType": "uint256",
          "name": "_amount",
          "type": "uint256"
        }
      ],
      "name": "withdrawAsTokens",
      "outputs": [],
      "stateMutability": "nonpayable",
      "type": "function"
    },
    {
      "stateMutability": "payable",
      "type": "receive"
    }
  ],
  "bytecode": "0x6080604052670de0b6b3a764000060025534801561001b575f5ffd5b50604051611b93380380611b93833981810160405281019061003d91906100e1565b8060015f6101000a81548173ffffffffffffffffffffffffffffffffffffffff021916908373ffffffffffffffffffffffffffffffffffffffff1602179055505061010c565b5f5ffd5b5f73ffffffffffffffffffffffffffffffffffffffff82169050919050565b5f6100b082610087565b9050919050565b6100c0816100a6565b81146100ca575f5ffd5b50565b5f815190506100db816100b7565b92915050565b5f602082840312156100f6576100f5610083565b5b5f610103848285016100cd565b91505092915050565b611a7a806101195f395ff3fe60806040526004361061007e575f3560e01c806355a373d61161004d57806355a373d61461013d5780637a17c216146101675780637ffdf53e1461018f5780639841c82c146101b957610085565b80630f53a470146100895780632e1a7d4d146100c5578063384bc466146100ed5780634ba94ec91461011557610085565b3661008557005b5f5ffd5b348015610094575f5ffd5b506100af60048036038101906100aa9190610fe0565b6101e1565b6040516100bc9190611150565b60405180910390f35b3480156100d0575f5ffd5b506100eb60048036038101906100e6919061119a565b6104ec565b005b3480156100f8575f5ffd5b50610113600480360381019061010e91906111c5565b610718565b005b348015610120575f5ffd5b5061013b600480360381019061013691906111c5565b61088b565b005b348015610148575f5ffd5b50610151610a80565b60405161015e919061125e565b60405180910390f35b348015610172575f5ffd5b5061018d6004803603810190610188919061119a565b610aa5565b005b34801561019a575f5ffd5b506101a3610d11565b6040516101b09190611286565b60405180910390f35b3480156101c4575f5ffd5b506101df60048036038101906101da91906113cb565b610d17565b005b6101e9610f2a565b815f5f8273ffffffffffffffffffffffffffffffffffffffff1673ffffffffffffffffffffffffffffffffffffffff1681526020019081526020015f206005015f9054906101000a900460ff16610275576040517f08c379a000000000000000000000000000000000000000000000000000000000815260040161026c906114c9565b60405180910390fd5b5f5f8473ffffffffffffffffffffffffffffffffffffffff1673ffffffffffffffffffffffffffffffffffffffff1681526020019081526020015f206040518060c00160405290815f82015f9054906101000a900473ffffffffffffffffffffffffffffffffffffffff1673ffffffffffffffffffffffffffffffffffffffff1673ffffffffffffffffffffffffffffffffffffffff16815260200160018201805461032090611514565b80601f016020809104026020016040519081016040528092919081815260200182805461034c90611514565b80156103975780601f1061036e57610100808354040283529160200191610397565b820191905f5260205f20905b81548152906001019060200180831161037a57829003601f168201915b505050505081526020016002820180546103b090611514565b80601f01602080910402602001604051908101604052809291908181526020018280546103dc90611514565b80156104275780601f106103fe57610100808354040283529160200191610427565b820191905f5260205f20905b81548152906001019060200180831161040a57829003601f168201915b5050505050815260200160038201805461044090611514565b80601f016020809104026020016040519081016040528092919081815260200182805461046c90611514565b80156104b75780601f1061048e576101008083540402835291602001916104b7565b820191905f5260205f20905b81548152906001019060200180831161049a57829003601f168201915b5050505050815260200160048201548152602001600582015f9054906101000a900460ff161515151581525050915050919050565b335f5f8273ffffffffffffffffffffffffffffffffffffffff1673ffffffffffffffffffffffffffffffffffffffff1681526020019081526020015f206005015f9054906101000a900460ff16610578576040517f08c379a000000000000000000000000000000000000000000000000000000000815260040161056f906114c9565b60405180910390fd5b5f5f5f3373ffffffffffffffffffffffffffffffffffffffff1673ffffffffffffffffffffffffffffffffffffffff1681526020019081526020015f20905082816004015410156105fe576040517f08c379a00000000000000000000000000000000000000000000000000000000081526004016105f59061158e565b60405180910390fd5b82816004015f82825461061191906115d9565b925050819055503373ffffffffffffffffffffffffffffffffffffffff167f8ad64a0ac7700dd8425ab0499f107cb6e2cd1581d803c5b8c1c79dcb8190b1af82600401546040516106629190611286565b60405180910390a25f66038d7ea4c680008461067e919061160c565b90503373ffffffffffffffffffffffffffffffffffffffff166108fc8290811502906040515f60405180830381858888f193505050501580156106c3573d5f5f3e3d5ffd5b503373ffffffffffffffffffffffffffffffffffffffff167f7fcf532c15f0a6db0bd6d0e038bea71d30d808c7d98cb3bf7268a95bf5081b658260405161070a9190611286565b60405180910390a250505050565b815f5f8273ffffffffffffffffffffffffffffffffffffffff1673ffffffffffffffffffffffffffffffffffffffff1681526020019081526020015f206005015f9054906101000a900460ff166107a4576040517f08c379a000000000000000000000000000000000000000000000000000000000815260040161079b906114c9565b60405180910390fd5b815f5f8573ffffffffffffffffffffffffffffffffffffffff1673ffffffffffffffffffffffffffffffffffffffff1681526020019081526020015f206004015f8282546107f2919061164d565b925050819055508273ffffffffffffffffffffffffffffffffffffffff167f8ad64a0ac7700dd8425ab0499f107cb6e2cd1581d803c5b8c1c79dcb8190b1af5f5f8673ffffffffffffffffffffffffffffffffffffffff1673ffffffffffffffffffffffffffffffffffffffff1681526020019081526020015f206004015460405161087e9190611286565b60405180910390a2505050565b815f5f8273ffffffffffffffffffffffffffffffffffffffff1673ffffffffffffffffffffffffffffffffffffffff1681526020019081526020015f206005015f9054906101000a900460ff16610917576040517f08c379a000000000000000000000000000000000000000000000000000000000815260040161090e906114c9565b60405180910390fd5b815f5f8573ffffffffffffffffffffffffffffffffffffffff1673ffffffffffffffffffffffffffffffffffffffff1681526020019081526020015f20600401541015610999576040517f08c379a0000000000000000000000000000000000000000000000000000000008152600401610990906116ca565b60405180910390fd5b815f5f8573ffffffffffffffffffffffffffffffffffffffff1673ffffffffffffffffffffffffffffffffffffffff1681526020019081526020015f206004015f8282546109e791906115d9565b925050819055508273ffffffffffffffffffffffffffffffffffffffff167f8ad64a0ac7700dd8425ab0499f107cb6e2cd1581d803c5b8c1c79dcb8190b1af5f5f8673ffffffffffffffffffffffffffffffffffffffff1673ffffffffffffffffffffffffffffffffffffffff1681526020019081526020015f2060040154604051610a739190611286565b60405180910390a2505050565b60015f9054906101000a900473ffffffffffffffffffffffffffffffffffffffff1681565b335f5f8273ffffffffffffffffffffffffffffffffffffffff1673ffffffffffffffffffffffffffffffffffffffff1681526020019081526020015f206005015f9054906101000a900460ff16610b31576040517f08c379a0000000000000000000000000000000000000000000000000000000008152600401610b28906114c9565b60405180910390fd5b5f5f5f3373ffffffffffffffffffffffffffffffffffffffff1673ffffffffffffffffffffffffffffffffffffffff1681526020019081526020015f2090508281600401541015610bb7576040517f08c379a0000000000000000000000000000000000000000000000000000000008152600401610bae9061158e565b60405180910390fd5b82816004015f828254610bca91906115d9565b925050819055503373ffffffffffffffffffffffffffffffffffffffff167f8ad64a0ac7700dd8425ab0499f107cb6e2cd1581d803c5b8c1c79dcb8190b1af8260040154604051610c1b9190611286565b60405180910390a25f60025484610c32919061160c565b905060015f9054906101000a900473ffffffffffffffffffffffffffffffffffffffff1673ffffffffffffffffffffffffffffffffffffffff166340c10f1933836040518363ffffffff1660e01b8152600401610c909291906116f7565b5f604051808303815f87803b158015610ca7575f5ffd5b505af1158015610cb9573d5f5f3e3d5ffd5b505050503373ffffffffffffffffffffffffffffffffffffffff167feddb53e10e60b3a2396b4222b3db092137bdbf7a6fecceaf2b0b438ff0ddc66e82604051610d039190611286565b60405180910390a250505050565b60025481565b5f5f3373ffffffffffffffffffffffffffffffffffffffff1673ffffffffffffffffffffffffffffffffffffffff1681526020019081526020015f206005015f9054906101000a900460ff1615610da3576040517f08c379a0000000000000000000000000000000000000000000000000000000008152600401610d9a90611768565b60405180910390fd5b6040518060c001604052803373ffffffffffffffffffffffffffffffffffffffff1681526020018481526020018381526020018281526020015f8152602001600115158152505f5f3373ffffffffffffffffffffffffffffffffffffffff1673ffffffffffffffffffffffffffffffffffffffff1681526020019081526020015f205f820151815f015f6101000a81548173ffffffffffffffffffffffffffffffffffffffff021916908373ffffffffffffffffffffffffffffffffffffffff1602179055506020820151816001019081610e7e919061191d565b506040820151816002019081610e94919061191d565b506060820151816003019081610eaa919061191d565b506080820151816004015560a0820151816005015f6101000a81548160ff0219169083151502179055509050503373ffffffffffffffffffffffffffffffffffffffff167fbafddecbd1dec1c1afb76d693f1de16901f521bdf29a02438e3e6806c0b8d94884604051610f1d9190611a24565b60405180910390a2505050565b6040518060c001604052805f73ffffffffffffffffffffffffffffffffffffffff1681526020016060815260200160608152602001606081526020015f81526020015f151581525090565b5f604051905090565b5f5ffd5b5f5ffd5b5f73ffffffffffffffffffffffffffffffffffffffff82169050919050565b5f610faf82610f86565b9050919050565b610fbf81610fa5565b8114610fc9575f5ffd5b50565b5f81359050610fda81610fb6565b92915050565b5f60208284031215610ff557610ff4610f7e565b5b5f61100284828501610fcc565b91505092915050565b61101481610fa5565b82525050565b5f81519050919050565b5f82825260208201905092915050565b8281835e5f83830152505050565b5f601f19601f8301169050919050565b5f61105c8261101a565b6110668185611024565b9350611076818560208601611034565b61107f81611042565b840191505092915050565b5f819050919050565b61109c8161108a565b82525050565b5f8115159050919050565b6110b6816110a2565b82525050565b5f60c083015f8301516110d15f86018261100b565b50602083015184820360208601526110e98282611052565b915050604083015184820360408601526111038282611052565b9150506060830151848203606086015261111d8282611052565b91505060808301516111326080860182611093565b5060a083015161114560a08601826110ad565b508091505092915050565b5f6020820190508181035f83015261116881846110bc565b905092915050565b6111798161108a565b8114611183575f5ffd5b50565b5f8135905061119481611170565b92915050565b5f602082840312156111af576111ae610f7e565b5b5f6111bc84828501611186565b91505092915050565b5f5f604083850312156111db576111da610f7e565b5b5f6111e885828601610fcc565b92505060206111f985828601611186565b9150509250929050565b5f819050919050565b5f61122661122161121c84610f86565b611203565b610f86565b9050919050565b5f6112378261120c565b9050919050565b5f6112488261122d565b9050919050565b6112588161123e565b82525050565b5f6020820190506112715f83018461124f565b92915050565b6112808161108a565b82525050565b5f6020820190506112995f830184611277565b92915050565b5f5ffd5b5f5ffd5b7f4e487b71000000000000000000000000000000000000000000000000000000005f52604160045260245ffd5b6112dd82611042565b810181811067ffffffffffffffff821117156112fc576112fb6112a7565b5b80604052505050565b5f61130e610f75565b905061131a82826112d4565b919050565b5f67ffffffffffffffff821115611339576113386112a7565b5b61134282611042565b9050602081019050919050565b828183375f83830152505050565b5f61136f61136a8461131f565b611305565b90508281526020810184848401111561138b5761138a6112a3565b5b61139684828561134f565b509392505050565b5f82601f8301126113b2576113b161129f565b5b81356113c284826020860161135d565b91505092915050565b5f5f5f606084860312156113e2576113e1610f7e565b5b5f84013567ffffffffffffffff8111156113ff576113fe610f82565b5b61140b8682870161139e565b935050602084013567ffffffffffffffff81111561142c5761142b610f82565b5b6114388682870161139e565b925050604084013567ffffffffffffffff81111561145957611458610f82565b5b6114658682870161139e565b9150509250925092565b5f82825260208201905092915050565b7f50726f66696c6520646f6573206e6f74206578697374000000000000000000005f82015250565b5f6114b360168361146f565b91506114be8261147f565b602082019050919050565b5f6020820190508181035f8301526114e0816114a7565b9050919050565b7f4e487b71000000000000000000000000000000000000000000000000000000005f52602260045260245ffd5b5f600282049050600182168061152b57607f821691505b60208210810361153e5761153d6114e7565b5b50919050565b7f4e6f7420656e6f7567682062616c616e636500000000000000000000000000005f82015250565b5f61157860128361146f565b915061158382611544565b602082019050919050565b5f6020820190508181035f8301526115a58161156c565b9050919050565b7f4e487b71000000000000000000000000000000000000000000000000000000005f52601160045260245ffd5b5f6115e38261108a565b91506115ee8361108a565b9250828203905081811115611606576116056115ac565b5b92915050565b5f6116168261108a565b91506116218361108a565b925082820261162f8161108a565b91508282048414831517611646576116456115ac565b5b5092915050565b5f6116578261108a565b91506116628361108a565b925082820190508082111561167a576116796115ac565b5b92915050565b7f496e73756666696369656e742062616c616e63650000000000000000000000005f82015250565b5f6116b460148361146f565b91506116bf82611680565b602082019050919050565b5f6020820190508181035f8301526116e1816116a8565b9050919050565b6116f181610fa5565b82525050565b5f60408201905061170a5f8301856116e8565b6117176020830184611277565b9392505050565b7f50726f66696c6520616c726561647920657869737473000000000000000000005f82015250565b5f61175260168361146f565b915061175d8261171e565b602082019050919050565b5f6020820190508181035f83015261177f81611746565b9050919050565b5f819050815f5260205f209050919050565b5f6020601f8301049050919050565b5f82821b905092915050565b5f600883026117e27fffffffffffffffffffffffffffffffffffffffffffffffffffffffffffffffff826117a7565b6117ec86836117a7565b95508019841693508086168417925050509392505050565b5f61181e6118196118148461108a565b611203565b61108a565b9050919050565b5f819050919050565b61183783611804565b61184b61184382611825565b8484546117b3565b825550505050565b5f5f905090565b611862611853565b61186d81848461182e565b505050565b5b81811015611890576118855f8261185a565b600181019050611873565b5050565b601f8211156118d5576118a681611786565b6118af84611798565b810160208510156118be578190505b6118d26118ca85611798565b830182611872565b50505b505050565b5f82821c905092915050565b5f6118f55f19846008026118da565b1980831691505092915050565b5f61190d83836118e6565b9150826002028217905092915050565b6119268261101a565b67ffffffffffffffff81111561193f5761193e6112a7565b5b6119498254611514565b611954828285611894565b5f60209050601f831160018114611985575f8415611973578287015190505b61197d8582611902565b8655506119e4565b601f19841661199386611786565b5f5b828110156119ba57848901518255600182019150602085019450602081019050611995565b868310156119d757848901516119d3601f8916826118e6565b8355505b6001600288020188555050505b505050505050565b5f6119f68261101a565b611a00818561146f565b9350611a10818560208601611034565b611a1981611042565b840191505092915050565b5f6020820190508181035f830152611a3c81846119ec565b90509291505056fea2646970667358221220d2326322190763080b4215d608c9db3f83adea29c309fdac22973c6071083c1164736f6c634300081c0033",
  "linkReferences": {},
  "deployedLinkReferences": {},
  "immutableReferences": {},
  "inputSourceName": "project/contracts/Profile.sol",
  "buildInfoId": "solc-0_8_28-59d13c1ab9ea8499a1ac9eaec599a84be48cade9"
}