{
  "_format": "hh3-artifact-1",
  "contractName": "Profile",
  "sourceName": "contracts/Profile.sol",
  "abi": [
    {
      "anonymous": false,
      "inputs": [
        {
          "indexed": true,
          "internalType": "address",
          "name": "user",
          "type": "address"
        },
        {
          "indexed": false,
          "internalType": "string",
          "name": "displayName",
          "type": "string"
        },
        {
          "indexed": false,
          "internalType": "string",
          "name": "bio",
          "type": "string"
        },
        {
          "indexed": false,
          "internalType": "string",
          "name": "avatarURI",
          "type": "string"
        }
      ],
      "name": "ProfileCreated",
      "type": "event"
    },
    {
      "anonymous": false,
      "inputs": [
        {
          "indexed": true,
          "internalType": "address",
          "name": "user",
          "type": "address"
        },
        {
          "indexed": false,
          "internalType": "string",
          "name": "displayName",
          "type": "string"
        },
        {
          "indexed": false,
          "internalType": "string",
          "name": "bio",
          "type": "string"
        },
        {
          "indexed": false,
          "internalType": "string",
          "name": "avatarURI",
          "type": "string"
        }
      ],
      "name": "ProfileUpdated",
      "type": "event"
    },
    {
      "inputs": [
        {
          "internalType": "string",
          "name": "_displayName",
          "type": "string"
        },
        {
          "internalType": "string",
          "name": "_bio",
          "type": "string"
        },
        {
          "internalType": "string",
          "name": "_avatarURI",
          "type": "string"
        }
      ],
      "name": "createProfile",
      "outputs": [],
      "stateMutability": "nonpayable",
      "type": "function"
    },
    {
      "inputs": [
        {
          "internalType": "address",
          "name": "_user",
          "type": "address"
        }
      ],
      "name": "getProfile",
      "outputs": [
        {
          "components": [
            {
              "internalType": "address",
              "name": "account",
              "type": "address"
            },
            {
              "internalType": "string",
              "name": "displayName",
              "type": "string"
            },
            {
              "internalType": "string",
              "name": "bio",
              "type": "string"
            },
            {
              "internalType": "string",
              "name": "avatarURI",
              "type": "string"
            },
            {
              "internalType": "bool",
              "name": "exists",
              "type": "bool"
            }
          ],
          "internalType": "struct Profile.UserProfile",
          "name": "",
          "type": "tuple"
        }
      ],
      "stateMutability": "view",
      "type": "function"
    },
    {
      "inputs": [
        {
          "internalType": "string",
          "name": "_displayName",
          "type": "string"
        },
        {
          "internalType": "string",
          "name": "_bio",
          "type": "string"
        },
        {
          "internalType": "string",
          "name": "_avatarURI",
          "type": "string"
        }
      ],
      "name": "updateProfile",
      "outputs": [],
      "stateMutability": "nonpayable",
      "type": "function"
    }
  ],
  "bytecode": "0x6080604052348015600e575f5ffd5b50610fd08061001c5f395ff3fe608060405234801561000f575f5ffd5b506004361061003f575f3560e01c80630f53a470146100435780631105a5eb146100735780639841c82c1461008f575b5f5ffd5b61005d6004803603810190610058919061082e565b6100ab565b60405161006a9190610973565b60405180910390f35b61008d60048036038101906100889190610abf565b6103ac565b005b6100a960048036038101906100a49190610abf565b610577565b005b6100b361077e565b815f5f8273ffffffffffffffffffffffffffffffffffffffff1673ffffffffffffffffffffffffffffffffffffffff1681526020019081526020015f206004015f9054906101000a900460ff1661013f576040517f08c379a000000000000000000000000000000000000000000000000000000000815260040161013690610bbd565b60405180910390fd5b5f5f8473ffffffffffffffffffffffffffffffffffffffff1673ffffffffffffffffffffffffffffffffffffffff1681526020019081526020015f206040518060a00160405290815f82015f9054906101000a900473ffffffffffffffffffffffffffffffffffffffff1673ffffffffffffffffffffffffffffffffffffffff1673ffffffffffffffffffffffffffffffffffffffff1681526020016001820180546101ea90610c08565b80601f016020809104026020016040519081016040528092919081815260200182805461021690610c08565b80156102615780601f1061023857610100808354040283529160200191610261565b820191905f5260205f20905b81548152906001019060200180831161024457829003601f168201915b5050505050815260200160028201805461027a90610c08565b80601f01602080910402602001604051908101604052809291908181526020018280546102a690610c08565b80156102f15780601f106102c8576101008083540402835291602001916102f1565b820191905f5260205f20905b8154815290600101906020018083116102d457829003601f168201915b5050505050815260200160038201805461030a90610c08565b80601f016020809104026020016040519081016040528092919081815260200182805461033690610c08565b80156103815780601f1061035857610100808354040283529160200191610381565b820191905f5260205f20905b81548152906001019060200180831161036457829003601f168201915b50505050508152602001600482015f9054906101000a900460ff161515151581525050915050919050565b335f5f8273ffffffffffffffffffffffffffffffffffffffff1673ffffffffffffffffffffffffffffffffffffffff1681526020019081526020015f206004015f9054906101000a900460ff16610438576040517f08c379a000000000000000000000000000000000000000000000000000000000815260040161042f90610bbd565b60405180910390fd5b835f5f3373ffffffffffffffffffffffffffffffffffffffff1673ffffffffffffffffffffffffffffffffffffffff1681526020019081526020015f2060010190816104849190610de1565b50825f5f3373ffffffffffffffffffffffffffffffffffffffff1673ffffffffffffffffffffffffffffffffffffffff1681526020019081526020015f2060020190816104d19190610de1565b50815f5f3373ffffffffffffffffffffffffffffffffffffffff1673ffffffffffffffffffffffffffffffffffffffff1681526020019081526020015f20600301908161051e9190610de1565b503373ffffffffffffffffffffffffffffffffffffffff167f6420daf1b58438e85465ef21dee378d307a509caab491149e3f066c5caf1266d85858560405161056993929190610ee8565b60405180910390a250505050565b5f5f3373ffffffffffffffffffffffffffffffffffffffff1673ffffffffffffffffffffffffffffffffffffffff1681526020019081526020015f206004015f9054906101000a900460ff1615610603576040517f08c379a00000000000000000000000000000000000000000000000000000000081526004016105fa90610f7c565b60405180910390fd5b6040518060a001604052803373ffffffffffffffffffffffffffffffffffffffff168152602001848152602001838152602001828152602001600115158152505f5f3373ffffffffffffffffffffffffffffffffffffffff1673ffffffffffffffffffffffffffffffffffffffff1681526020019081526020015f205f820151815f015f6101000a81548173ffffffffffffffffffffffffffffffffffffffff021916908373ffffffffffffffffffffffffffffffffffffffff16021790555060208201518160010190816106d89190610de1565b5060408201518160020190816106ee9190610de1565b5060608201518160030190816107049190610de1565b506080820151816004015f6101000a81548160ff0219169083151502179055509050503373ffffffffffffffffffffffffffffffffffffffff167f77c378673324822ad159b021c3ce202d7676946ff3967162024b660a493e64b384848460405161077193929190610ee8565b60405180910390a2505050565b6040518060a001604052805f73ffffffffffffffffffffffffffffffffffffffff1681526020016060815260200160608152602001606081526020015f151581525090565b5f604051905090565b5f5ffd5b5f5ffd5b5f73ffffffffffffffffffffffffffffffffffffffff82169050919050565b5f6107fd826107d4565b9050919050565b61080d816107f3565b8114610817575f5ffd5b50565b5f8135905061082881610804565b92915050565b5f60208284031215610843576108426107cc565b5b5f6108508482850161081a565b91505092915050565b610862816107f3565b82525050565b5f81519050919050565b5f82825260208201905092915050565b8281835e5f83830152505050565b5f601f19601f8301169050919050565b5f6108aa82610868565b6108b48185610872565b93506108c4818560208601610882565b6108cd81610890565b840191505092915050565b5f8115159050919050565b6108ec816108d8565b82525050565b5f60a083015f8301516109075f860182610859565b506020830151848203602086015261091f82826108a0565b9150506040830151848203604086015261093982826108a0565b9150506060830151848203606086015261095382826108a0565b915050608083015161096860808601826108e3565b508091505092915050565b5f6020820190508181035f83015261098b81846108f2565b905092915050565b5f5ffd5b5f5ffd5b7f4e487b71000000000000000000000000000000000000000000000000000000005f52604160045260245ffd5b6109d182610890565b810181811067ffffffffffffffff821117156109f0576109ef61099b565b5b80604052505050565b5f610a026107c3565b9050610a0e82826109c8565b919050565b5f67ffffffffffffffff821115610a2d57610a2c61099b565b5b610a3682610890565b9050602081019050919050565b828183375f83830152505050565b5f610a63610a5e84610a13565b6109f9565b905082815260208101848484011115610a7f57610a7e610997565b5b610a8a848285610a43565b509392505050565b5f82601f830112610aa657610aa5610993565b5b8135610ab6848260208601610a51565b91505092915050565b5f5f5f60608486031215610ad657610ad56107cc565b5b5f84013567ffffffffffffffff811115610af357610af26107d0565b5b610aff86828701610a92565b935050602084013567ffffffffffffffff811115610b2057610b1f6107d0565b5b610b2c86828701610a92565b925050604084013567ffffffffffffffff811115610b4d57610b4c6107d0565b5b610b5986828701610a92565b9150509250925092565b5f82825260208201905092915050565b7f50726f66696c6520646f6573206e6f74206578697374000000000000000000005f82015250565b5f610ba7601683610b63565b9150610bb282610b73565b602082019050919050565b5f6020820190508181035f830152610bd481610b9b565b9050919050565b7f4e487b71000000000000000000000000000000000000000000000000000000005f52602260045260245ffd5b5f6002820490506001821680610c1f57607f821691505b602082108103610c3257610c31610bdb565b5b50919050565b5f819050815f5260205f209050919050565b5f6020601f8301049050919050565b5f82821b905092915050565b5f60088302610c947fffffffffffffffffffffffffffffffffffffffffffffffffffffffffffffffff82610c59565b610c9e8683610c59565b95508019841693508086168417925050509392505050565b5f819050919050565b5f819050919050565b5f610ce2610cdd610cd884610cb6565b610cbf565b610cb6565b9050919050565b5f819050919050565b610cfb83610cc8565b610d0f610d0782610ce9565b848454610c65565b825550505050565b5f5f905090565b610d26610d17565b610d31818484610cf2565b505050565b5b81811015610d5457610d495f82610d1e565b600181019050610d37565b5050565b601f821115610d9957610d6a81610c38565b610d7384610c4a565b81016020851015610d82578190505b610d96610d8e85610c4a565b830182610d36565b50505b505050565b5f82821c905092915050565b5f610db95f1984600802610d9e565b1980831691505092915050565b5f610dd18383610daa565b9150826002028217905092915050565b610dea82610868565b67ffffffffffffffff811115610e0357610e0261099b565b5b610e0d8254610c08565b610e18828285610d58565b5f60209050601f831160018114610e49575f8415610e37578287015190505b610e418582610dc6565b865550610ea8565b601f198416610e5786610c38565b5f5b82811015610e7e57848901518255600182019150602085019450602081019050610e59565b86831015610e9b5784890151610e97601f891682610daa565b8355505b6001600288020188555050505b505050505050565b5f610eba82610868565b610ec48185610b63565b9350610ed4818560208601610882565b610edd81610890565b840191505092915050565b5f6060820190508181035f830152610f008186610eb0565b90508181036020830152610f148185610eb0565b90508181036040830152610f288184610eb0565b9050949350505050565b7f50726f66696c6520616c726561647920657869737473000000000000000000005f82015250565b5f610f66601683610b63565b9150610f7182610f32565b602082019050919050565b5f6020820190508181035f830152610f9381610f5a565b905091905056fea2646970667358221220fe5b0b14ef36d111af93400391fb1902e42d0bba2bd51dc27854a7ec05df7ef964736f6c634300081c0033",
  "linkReferences": {},
  "deployedLinkReferences": {},
  "immutableReferences": {},
  "inputSourceName": "project/contracts/Profile.sol",
  "buildInfoId": "solc-0_8_28-c4c415bfc60e6c637c7dd7912665904dc2c84766"
}