{
  "_format": "hh3-artifact-1",
  "contractName": "SocialPlatform",
  "sourceName": "contracts/SocialPlatform.sol",
  "abi": [
    {
      "inputs": [
        {
          "internalType": "address",
          "name": "_profileContract",
          "type": "address"
        },
        {
          "internalType": "address",
          "name": "_postsContract",
          "type": "address"
        },
        {
          "internalType": "address",
          "name": "_commentsContract",
          "type": "address"
        }
      ],
      "stateMutability": "nonpayable",
      "type": "constructor"
    },
    {
      "anonymous": false,
      "inputs": [
        {
          "indexed": true,
          "internalType": "address",
          "name": "commenter",
          "type": "address"
        },
        {
          "indexed": false,
          "internalType": "uint256",
          "name": "commentId",
          "type": "uint256"
        },
        {
          "indexed": false,
          "internalType": "uint256",
          "name": "reward",
          "type": "uint256"
        }
      ],
      "name": "CommentRewarded",
      "type": "event"
    },
    {
      "anonymous": false,
      "inputs": [
        {
          "indexed": true,
          "internalType": "uint256",
          "name": "postId",
          "type": "uint256"
        },
        {
          "indexed": true,
          "internalType": "address",
          "name": "buyer",
          "type": "address"
        },
        {
          "indexed": true,
          "internalType": "address",
          "name": "seller",
          "type": "address"
        },
        {
          "indexed": false,
          "internalType": "uint256",
          "name": "price",
          "type": "uint256"
        }
      ],
      "name": "PostBought",
      "type": "event"
    },
    {
      "anonymous": false,
      "inputs": [
        {
          "indexed": true,
          "internalType": "uint256",
          "name": "postId",
          "type": "uint256"
        },
        {
          "indexed": true,
          "internalType": "address",
          "name": "liker",
          "type": "address"
        }
      ],
      "name": "PostLiked",
      "type": "event"
    },
    {
      "anonymous": false,
      "inputs": [
        {
          "indexed": true,
          "internalType": "uint256",
          "name": "postId",
          "type": "uint256"
        },
        {
          "indexed": true,
          "internalType": "address",
          "name": "seller",
          "type": "address"
        },
        {
          "indexed": false,
          "internalType": "uint256",
          "name": "price",
          "type": "uint256"
        }
      ],
      "name": "PostListed",
      "type": "event"
    },
    {
      "anonymous": false,
      "inputs": [
        {
          "indexed": true,
          "internalType": "address",
          "name": "to",
          "type": "address"
        },
        {
          "indexed": false,
          "internalType": "uint256",
          "name": "amount",
          "type": "uint256"
        }
      ],
      "name": "TokensMinted",
      "type": "event"
    },
    {
      "inputs": [
        {
          "internalType": "uint256",
          "name": "_postId",
          "type": "uint256"
        }
      ],
      "name": "buyPost",
      "outputs": [],
      "stateMutability": "nonpayable",
      "type": "function"
    },
    {
      "inputs": [
        {
          "internalType": "uint256",
          "name": "_postId",
          "type": "uint256"
        }
      ],
      "name": "cancelListing",
      "outputs": [],
      "stateMutability": "nonpayable",
      "type": "function"
    },
    {
      "inputs": [],
      "name": "comments",
      "outputs": [
        {
          "internalType": "contract Comments",
          "name": "",
          "type": "address"
        }
      ],
      "stateMutability": "view",
      "type": "function"
    },
    {
      "inputs": [
        {
          "internalType": "address",
          "name": "_user",
          "type": "address"
        }
      ],
      "name": "getTokenBalance",
      "outputs": [
        {
          "internalType": "uint256",
          "name": "",
          "type": "uint256"
        }
      ],
      "stateMutability": "view",
      "type": "function"
    },
    {
      "inputs": [
        {
          "internalType": "uint256",
          "name": "",
          "type": "uint256"
        }
      ],
      "name": "likeCount",
      "outputs": [
        {
          "internalType": "uint256",
          "name": "",
          "type": "uint256"
        }
      ],
      "stateMutability": "view",
      "type": "function"
    },
    {
      "inputs": [
        {
          "internalType": "uint256",
          "name": "_postId",
          "type": "uint256"
        }
      ],
      "name": "likePost",
      "outputs": [],
      "stateMutability": "nonpayable",
      "type": "function"
    },
    {
      "inputs": [
        {
          "internalType": "uint256",
          "name": "",
          "type": "uint256"
        },
        {
          "internalType": "address",
          "name": "",
          "type": "address"
        }
      ],
      "name": "likedBy",
      "outputs": [
        {
          "internalType": "bool",
          "name": "",
          "type": "bool"
        }
      ],
      "stateMutability": "view",
      "type": "function"
    },
    {
      "inputs": [
        {
          "internalType": "uint256",
          "name": "_postId",
          "type": "uint256"
        }
      ],
      "name": "listPostForSale",
      "outputs": [],
      "stateMutability": "nonpayable",
      "type": "function"
    },
    {
      "inputs": [
        {
          "internalType": "uint256",
          "name": "",
          "type": "uint256"
        }
      ],
      "name": "listings",
      "outputs": [
        {
          "internalType": "uint256",
          "name": "postId",
          "type": "uint256"
        },
        {
          "internalType": "address",
          "name": "seller",
          "type": "address"
        },
        {
          "internalType": "uint256",
          "name": "price",
          "type": "uint256"
        },
        {
          "internalType": "bool",
          "name": "active",
          "type": "bool"
        }
      ],
      "stateMutability": "view",
      "type": "function"
    },
    {
      "inputs": [
        {
          "internalType": "address",
          "name": "_to",
          "type": "address"
        },
        {
          "internalType": "uint256",
          "name": "_amount",
          "type": "uint256"
        }
      ],
      "name": "mintTokens",
      "outputs": [],
      "stateMutability": "nonpayable",
      "type": "function"
    },
    {
      "inputs": [],
      "name": "posts",
      "outputs": [
        {
          "internalType": "contract Posts",
          "name": "",
          "type": "address"
        }
      ],
      "stateMutability": "view",
      "type": "function"
    },
    {
      "inputs": [],
      "name": "profile",
      "outputs": [
        {
          "internalType": "contract Profile",
          "name": "",
          "type": "address"
        }
      ],
      "stateMutability": "view",
      "type": "function"
    },
    {
      "inputs": [
        {
          "internalType": "uint256",
          "name": "_commentId",
          "type": "uint256"
        }
      ],
      "name": "rewardComment",
      "outputs": [],
      "stateMutability": "nonpayable",
      "type": "function"
    },
    {
      "inputs": [],
      "name": "token",
      "outputs": [
        {
          "internalType": "contract PlatformToken",
          "name": "",
          "type": "address"
        }
      ],
      "stateMutability": "view",
      "type": "function"
    }
  ],
  "bytecode": "0x608060405234801561000f575f5ffd5b5060405161413a38038061413a8339818101604052810190610031919061025a565b825f5f6101000a81548173ffffffffffffffffffffffffffffffffffffffff021916908373ffffffffffffffffffffffffffffffffffffffff1602179055508160015f6101000a81548173ffffffffffffffffffffffffffffffffffffffff021916908373ffffffffffffffffffffffffffffffffffffffff1602179055508060025f6101000a81548173ffffffffffffffffffffffffffffffffffffffff021916908373ffffffffffffffffffffffffffffffffffffffff160217905550306040516100fd906101ef565b61010791906102b9565b604051809103905ff080158015610120573d5f5f3e3d5ffd5b5060035f6101000a81548173ffffffffffffffffffffffffffffffffffffffff021916908373ffffffffffffffffffffffffffffffffffffffff16021790555060025f9054906101000a900473ffffffffffffffffffffffffffffffffffffffff1673ffffffffffffffffffffffffffffffffffffffff1663a44760f2306040518263ffffffff1660e01b81526004016101ba91906102b9565b5f604051808303815f87803b1580156101d1575f5ffd5b505af11580156101e3573d5f5f3e3d5ffd5b505050505050506102d2565b611a3a8061270083390190565b5f5ffd5b5f73ffffffffffffffffffffffffffffffffffffffff82169050919050565b5f61022982610200565b9050919050565b6102398161021f565b8114610243575f5ffd5b50565b5f8151905061025481610230565b92915050565b5f5f5f60608486031215610271576102706101fc565b5b5f61027e86828701610246565b935050602061028f86828701610246565b92505060406102a086828701610246565b9150509250925092565b6102b38161021f565b82525050565b5f6020820190506102cc5f8301846102aa565b92915050565b612421806102df5f395ff3fe608060405234801561000f575f5ffd5b50600436106100e8575f3560e01c8063725009d31161008a578063c0a1996311610064578063c0a1996314610232578063de74e57b14610262578063f0dda65c14610295578063fc0c546a146102b1576100e8565b8063725009d3146101dc578063ab60636c146101f8578063abba910814610216576100e8565b8063305a67a8116100c6578063305a67a8146101565780633aecd0e31461017257806367b2cf1d146101a25780636df063ff146101c0576100e8565b80631892b044146100ec57806325c843b91461011c5780632fa673381461013a575b5f5ffd5b61010660048036038101906101019190611427565b6102cf565b6040516101139190611461565b60405180910390f35b6101246102e4565b60405161013191906114f4565b60405180910390f35b610154600480360381019061014f9190611427565b610309565b005b610170600480360381019061016b9190611427565b610633565b005b61018c60048036038101906101879190611548565b6107a4565b6040516101999190611461565b60405180910390f35b6101aa610845565b6040516101b79190611593565b60405180910390f35b6101da60048036038101906101d59190611427565b61086a565b005b6101f660048036038101906101f19190611427565b610b85565b005b610200611004565b60405161020d91906115cc565b60405180910390f35b610230600480360381019061022b9190611427565b611028565b005b61024c600480360381019061024791906115e5565b611262565b604051610259919061163d565b60405180910390f35b61027c60048036038101906102779190611427565b61128c565b60405161028c9493929190611665565b60405180910390f35b6102af60048036038101906102aa91906116a8565b6112e3565b005b6102b96113be565b6040516102c69190611706565b60405180910390f35b6005602052805f5260405f205f915090505481565b60025f9054906101000a900473ffffffffffffffffffffffffffffffffffffffff1681565b5f60065f8381526020019081526020015f206040518060800160405290815f8201548152602001600182015f9054906101000a900473ffffffffffffffffffffffffffffffffffffffff1673ffffffffffffffffffffffffffffffffffffffff1673ffffffffffffffffffffffffffffffffffffffff16815260200160028201548152602001600382015f9054906101000a900460ff161515151581525050905080606001516103ee576040517f08c379a00000000000000000000000000000000000000000000000000000000081526004016103e590611779565b60405180910390fd5b5f816040015190505f826020015190505f3390505f60035f9054906101000a900473ffffffffffffffffffffffffffffffffffffffff1673ffffffffffffffffffffffffffffffffffffffff166323b872dd8385876040518463ffffffff1660e01b815260040161046193929190611797565b6020604051808303815f875af115801561047d573d5f5f3e3d5ffd5b505050506040513d601f19601f820116820180604052508101906104a191906117f6565b9050806104e3576040517f08c379a00000000000000000000000000000000000000000000000000000000081526004016104da9061186b565b60405180910390fd5b60015f9054906101000a900473ffffffffffffffffffffffffffffffffffffffff1673ffffffffffffffffffffffffffffffffffffffff1662e7cf3187846040518363ffffffff1660e01b815260040161053e929190611889565b5f604051808303815f87803b158015610555575f5ffd5b505af1158015610567573d5f5f3e3d5ffd5b5050505060065f8781526020019081526020015f205f5f82015f9055600182015f6101000a81549073ffffffffffffffffffffffffffffffffffffffff0219169055600282015f9055600382015f6101000a81549060ff021916905550508273ffffffffffffffffffffffffffffffffffffffff168273ffffffffffffffffffffffffffffffffffffffff16877f1d7f88ed51b36e4f53c4b3b2b3202d73ab672304c56413cf83863b7183be77e6876040516106239190611461565b60405180910390a4505050505050565b5f60065f8381526020019081526020015f206040518060800160405290815f8201548152602001600182015f9054906101000a900473ffffffffffffffffffffffffffffffffffffffff1673ffffffffffffffffffffffffffffffffffffffff1673ffffffffffffffffffffffffffffffffffffffff16815260200160028201548152602001600382015f9054906101000a900460ff16151515158152505090503373ffffffffffffffffffffffffffffffffffffffff16816020015173ffffffffffffffffffffffffffffffffffffffff1614610746576040517f08c379a000000000000000000000000000000000000000000000000000000000815260040161073d906118fa565b60405180910390fd5b60065f8381526020019081526020015f205f5f82015f9055600182015f6101000a81549073ffffffffffffffffffffffffffffffffffffffff0219169055600282015f9055600382015f6101000a81549060ff021916905550505050565b5f60035f9054906101000a900473ffffffffffffffffffffffffffffffffffffffff1673ffffffffffffffffffffffffffffffffffffffff166370a08231836040518263ffffffff1660e01b81526004016107ff9190611918565b602060405180830381865afa15801561081a573d5f5f3e3d5ffd5b505050506040513d601f19601f8201168201806040525081019061083e9190611945565b9050919050565b60015f9054906101000a900473ffffffffffffffffffffffffffffffffffffffff1681565b60025f9054906101000a900473ffffffffffffffffffffffffffffffffffffffff1673ffffffffffffffffffffffffffffffffffffffff163373ffffffffffffffffffffffffffffffffffffffff16146108f9576040517f08c379a00000000000000000000000000000000000000000000000000000000081526004016108f0906119ba565b60405180910390fd5b5f60025f9054906101000a900473ffffffffffffffffffffffffffffffffffffffff1673ffffffffffffffffffffffffffffffffffffffff16630800e300836040518263ffffffff1660e01b81526004016109549190611461565b5f60405180830381865afa15801561096e573d5f5f3e3d5ffd5b505050506040513d5f823e3d601f19601f820116820180604052508101906109969190611d4b565b90505f60035f9054906101000a900473ffffffffffffffffffffffffffffffffffffffff1673ffffffffffffffffffffffffffffffffffffffff1663313ce5676040518163ffffffff1660e01b8152600401602060405180830381865afa158015610a03573d5f5f3e3d5ffd5b505050506040513d601f19601f82011682018060405250810190610a279190611dc8565b60ff16600a610a369190611f4f565b6003610a429190611f99565b905060035f9054906101000a900473ffffffffffffffffffffffffffffffffffffffff1673ffffffffffffffffffffffffffffffffffffffff166340c10f19835f015160400151836040518363ffffffff1660e01b8152600401610aa7929190611fda565b5f604051808303815f87803b158015610abe575f5ffd5b505af1158015610ad0573d5f5f3e3d5ffd5b50505050815f01516040015173ffffffffffffffffffffffffffffffffffffffff167f3f2c9d57c068687834f0de942a9babb9e5acab57d516d3480a3c16ee165a427382604051610b219190611461565b60405180910390a2815f01516040015173ffffffffffffffffffffffffffffffffffffffff167fca351e425eba3b86f8c507e7ed6665c2e863547ecc6445026d9025b34837dbba8483604051610b78929190612001565b60405180910390a2505050565b5f5f5f9054906101000a900473ffffffffffffffffffffffffffffffffffffffff1673ffffffffffffffffffffffffffffffffffffffff16630f53a470336040518263ffffffff1660e01b8152600401610bdf9190611918565b5f60405180830381865afa158015610bf9573d5f5f3e3d5ffd5b505050506040513d5f823e3d601f19601f82011682018060405250810190610c219190612028565b90508060800151610c67576040517f08c379a0000000000000000000000000000000000000000000000000000000008152600401610c5e906120b9565b60405180910390fd5b60045f8381526020019081526020015f205f3373ffffffffffffffffffffffffffffffffffffffff1673ffffffffffffffffffffffffffffffffffffffff1681526020019081526020015f205f9054906101000a900460ff1615610d00576040517f08c379a0000000000000000000000000000000000000000000000000000000008152600401610cf790612121565b60405180910390fd5b600160045f8481526020019081526020015f205f3373ffffffffffffffffffffffffffffffffffffffff1673ffffffffffffffffffffffffffffffffffffffff1681526020019081526020015f205f6101000a81548160ff02191690831515021790555060055f8381526020019081526020015f205f815480929190610d859061213f565b91905055505f60015f9054906101000a900473ffffffffffffffffffffffffffffffffffffffff1673ffffffffffffffffffffffffffffffffffffffff166340731c24846040518263ffffffff1660e01b8152600401610de59190611461565b5f60405180830381865afa158015610dff573d5f5f3e3d5ffd5b505050506040513d5f823e3d601f19601f82011682018060405250810190610e27919061233c565b90505f60035f9054906101000a900473ffffffffffffffffffffffffffffffffffffffff1673ffffffffffffffffffffffffffffffffffffffff1663313ce5676040518163ffffffff1660e01b8152600401602060405180830381865afa158015610e94573d5f5f3e3d5ffd5b505050506040513d601f19601f82011682018060405250810190610eb89190611dc8565b60ff16600a610ec79190611f4f565b6005610ed39190611f99565b905060035f9054906101000a900473ffffffffffffffffffffffffffffffffffffffff1673ffffffffffffffffffffffffffffffffffffffff166340c10f19835f015160200151836040518363ffffffff1660e01b8152600401610f38929190611fda565b5f604051808303815f87803b158015610f4f575f5ffd5b505af1158015610f61573d5f5f3e3d5ffd5b50505050815f01516020015173ffffffffffffffffffffffffffffffffffffffff167f3f2c9d57c068687834f0de942a9babb9e5acab57d516d3480a3c16ee165a427382604051610fb29190611461565b60405180910390a23373ffffffffffffffffffffffffffffffffffffffff16847fcf765d6f163c9b0d832e2a94f4c8e9bffd32a2c3ca5fdbb8cc67b5fe1441f41360405160405180910390a350505050565b5f5f9054906101000a900473ffffffffffffffffffffffffffffffffffffffff1681565b5f60015f9054906101000a900473ffffffffffffffffffffffffffffffffffffffff1673ffffffffffffffffffffffffffffffffffffffff166340731c24836040518263ffffffff1660e01b81526004016110839190611461565b5f60405180830381865afa15801561109d573d5f5f3e3d5ffd5b505050506040513d5f823e3d601f19601f820116820180604052508101906110c5919061233c565b90503373ffffffffffffffffffffffffffffffffffffffff16815f01516020015173ffffffffffffffffffffffffffffffffffffffff161461113c576040517f08c379a0000000000000000000000000000000000000000000000000000000008152600401611133906123cd565b60405180910390fd5b60405180608001604052808381526020013373ffffffffffffffffffffffffffffffffffffffff168152602001825f015160e0015181526020016001151581525060065f8481526020019081526020015f205f820151815f01556020820151816001015f6101000a81548173ffffffffffffffffffffffffffffffffffffffff021916908373ffffffffffffffffffffffffffffffffffffffff160217905550604082015181600201556060820151816003015f6101000a81548160ff0219169083151502179055509050503373ffffffffffffffffffffffffffffffffffffffff16827f30cbe9dc34676685d3626c970171e306f63466283cc2b794bbd11a9a001d1187835f015160e001516040516112569190611461565b60405180910390a35050565b6004602052815f5260405f20602052805f5260405f205f915091509054906101000a900460ff1681565b6006602052805f5260405f205f91509050805f015490806001015f9054906101000a900473ffffffffffffffffffffffffffffffffffffffff1690806002015490806003015f9054906101000a900460ff16905084565b60035f9054906101000a900473ffffffffffffffffffffffffffffffffffffffff1673ffffffffffffffffffffffffffffffffffffffff166340c10f1983836040518363ffffffff1660e01b815260040161133f929190611fda565b5f604051808303815f87803b158015611356575f5ffd5b505af1158015611368573d5f5f3e3d5ffd5b505050508173ffffffffffffffffffffffffffffffffffffffff167f3f2c9d57c068687834f0de942a9babb9e5acab57d516d3480a3c16ee165a4273826040516113b29190611461565b60405180910390a25050565b60035f9054906101000a900473ffffffffffffffffffffffffffffffffffffffff1681565b5f604051905090565b5f5ffd5b5f5ffd5b5f819050919050565b611406816113f4565b8114611410575f5ffd5b50565b5f81359050611421816113fd565b92915050565b5f6020828403121561143c5761143b6113ec565b5b5f61144984828501611413565b91505092915050565b61145b816113f4565b82525050565b5f6020820190506114745f830184611452565b92915050565b5f73ffffffffffffffffffffffffffffffffffffffff82169050919050565b5f819050919050565b5f6114bc6114b76114b28461147a565b611499565b61147a565b9050919050565b5f6114cd826114a2565b9050919050565b5f6114de826114c3565b9050919050565b6114ee816114d4565b82525050565b5f6020820190506115075f8301846114e5565b92915050565b5f6115178261147a565b9050919050565b6115278161150d565b8114611531575f5ffd5b50565b5f813590506115428161151e565b92915050565b5f6020828403121561155d5761155c6113ec565b5b5f61156a84828501611534565b91505092915050565b5f61157d826114c3565b9050919050565b61158d81611573565b82525050565b5f6020820190506115a65f830184611584565b92915050565b5f6115b6826114c3565b9050919050565b6115c6816115ac565b82525050565b5f6020820190506115df5f8301846115bd565b92915050565b5f5f604083850312156115fb576115fa6113ec565b5b5f61160885828601611413565b925050602061161985828601611534565b9150509250929050565b5f8115159050919050565b61163781611623565b82525050565b5f6020820190506116505f83018461162e565b92915050565b61165f8161150d565b82525050565b5f6080820190506116785f830187611452565b6116856020830186611656565b6116926040830185611452565b61169f606083018461162e565b95945050505050565b5f5f604083850312156116be576116bd6113ec565b5b5f6116cb85828601611534565b92505060206116dc85828601611413565b9150509250929050565b5f6116f0826114c3565b9050919050565b611700816116e6565b82525050565b5f6020820190506117195f8301846116f7565b92915050565b5f82825260208201905092915050565b7f506f7374206e6f74206c697374656400000000000000000000000000000000005f82015250565b5f611763600f8361171f565b915061176e8261172f565b602082019050919050565b5f6020820190508181035f83015261179081611757565b9050919050565b5f6060820190506117aa5f830186611656565b6117b76020830185611656565b6117c46040830184611452565b949350505050565b6117d581611623565b81146117df575f5ffd5b50565b5f815190506117f0816117cc565b92915050565b5f6020828403121561180b5761180a6113ec565b5b5f611818848285016117e2565b91505092915050565b7f546f6b656e207472616e73666572206661696c656400000000000000000000005f82015250565b5f61185560158361171f565b915061186082611821565b602082019050919050565b5f6020820190508181035f83015261188281611849565b9050919050565b5f60408201905061189c5f830185611452565b6118a96020830184611656565b9392505050565b7f4e6f74207468652073656c6c65720000000000000000000000000000000000005f82015250565b5f6118e4600e8361171f565b91506118ef826118b0565b602082019050919050565b5f6020820190508181035f830152611911816118d8565b9050919050565b5f60208201905061192b5f830184611656565b92915050565b5f8151905061193f816113fd565b92915050565b5f6020828403121561195a576119596113ec565b5b5f61196784828501611931565b91505092915050565b7f4f6e6c7920436f6d6d656e747320636f6e74726163742063616e2063616c6c005f82015250565b5f6119a4601f8361171f565b91506119af82611970565b602082019050919050565b5f6020820190508181035f8301526119d181611998565b9050919050565b5f5ffd5b5f601f19601f8301169050919050565b7f4e487b71000000000000000000000000000000000000000000000000000000005f52604160045260245ffd5b611a22826119dc565b810181811067ffffffffffffffff82111715611a4157611a406119ec565b5b80604052505050565b5f611a536113e3565b9050611a5f8282611a19565b919050565b5f5ffd5b5f81519050611a768161151e565b92915050565b5f5ffd5b5f5ffd5b5f67ffffffffffffffff821115611a9e57611a9d6119ec565b5b611aa7826119dc565b9050602081019050919050565b8281835e5f83830152505050565b5f611ad4611acf84611a84565b611a4a565b905082815260208101848484011115611af057611aef611a80565b5b611afb848285611ab4565b509392505050565b5f82601f830112611b1757611b16611a7c565b5b8151611b27848260208601611ac2565b91505092915050565b5f60c08284031215611b4557611b446119d8565b5b611b4f60c0611a4a565b90505f611b5e84828501611931565b5f830152506020611b7184828501611931565b6020830152506040611b8584828501611a68565b604083015250606082015167ffffffffffffffff811115611ba957611ba8611a64565b5b611bb584828501611b03565b6060830152506080611bc984828501611931565b60808301525060a0611bdd848285016117e2565b60a08301525092915050565b5f60a08284031215611bfe57611bfd6119d8565b5b611c0860a0611a4a565b90505f611c1784828501611a68565b5f83015250602082015167ffffffffffffffff811115611c3a57611c39611a64565b5b611c4684828501611b03565b602083015250604082015167ffffffffffffffff811115611c6a57611c69611a64565b5b611c7684828501611b03565b604083015250606082015167ffffffffffffffff811115611c9a57611c99611a64565b5b611ca684828501611b03565b6060830152506080611cba848285016117e2565b60808301525092915050565b5f60408284031215611cdb57611cda6119d8565b5b611ce56040611a4a565b90505f82015167ffffffffffffffff811115611d0457611d03611a64565b5b611d1084828501611b30565b5f83015250602082015167ffffffffffffffff811115611d3357611d32611a64565b5b611d3f84828501611be9565b60208301525092915050565b5f60208284031215611d6057611d5f6113ec565b5b5f82015167ffffffffffffffff811115611d7d57611d7c6113f0565b5b611d8984828501611cc6565b91505092915050565b5f60ff82169050919050565b611da781611d92565b8114611db1575f5ffd5b50565b5f81519050611dc281611d9e565b92915050565b5f60208284031215611ddd57611ddc6113ec565b5b5f611dea84828501611db4565b91505092915050565b7f4e487b71000000000000000000000000000000000000000000000000000000005f52601160045260245ffd5b5f8160011c9050919050565b5f5f8291508390505b6001851115611e7557808604811115611e5157611e50611df3565b5b6001851615611e605780820291505b8081029050611e6e85611e20565b9450611e35565b94509492505050565b5f82611e8d5760019050611f48565b81611e9a575f9050611f48565b8160018114611eb05760028114611eba57611ee9565b6001915050611f48565b60ff841115611ecc57611ecb611df3565b5b8360020a915084821115611ee357611ee2611df3565b5b50611f48565b5060208310610133831016604e8410600b8410161715611f1e5782820a905083811115611f1957611f18611df3565b5b611f48565b611f2b8484846001611e2c565b92509050818404811115611f4257611f41611df3565b5b81810290505b9392505050565b5f611f59826113f4565b9150611f64836113f4565b9250611f917fffffffffffffffffffffffffffffffffffffffffffffffffffffffffffffffff8484611e7e565b905092915050565b5f611fa3826113f4565b9150611fae836113f4565b9250828202611fbc816113f4565b91508282048414831517611fd357611fd2611df3565b5b5092915050565b5f604082019050611fed5f830185611656565b611ffa6020830184611452565b9392505050565b5f6040820190506120145f830185611452565b6120216020830184611452565b9392505050565b5f6020828403121561203d5761203c6113ec565b5b5f82015167ffffffffffffffff81111561205a576120596113f0565b5b61206684828501611be9565b91505092915050565b7f43726561746520612070726f66696c65206669727374000000000000000000005f82015250565b5f6120a360168361171f565b91506120ae8261206f565b602082019050919050565b5f6020820190508181035f8301526120d081612097565b9050919050565b7f416c7265616479206c696b6564000000000000000000000000000000000000005f82015250565b5f61210b600d8361171f565b9150612116826120d7565b602082019050919050565b5f6020820190508181035f830152612138816120ff565b9050919050565b5f612149826113f4565b91507fffffffffffffffffffffffffffffffffffffffffffffffffffffffffffffffff820361217b5761217a611df3565b5b600182019050919050565b5f610120828403121561219c5761219b6119d8565b5b6121a7610120611a4a565b90505f6121b684828501611931565b5f8301525060206121c984828501611a68565b602083015250604082015167ffffffffffffffff8111156121ed576121ec611a64565b5b6121f984828501611b03565b604083015250606082015167ffffffffffffffff81111561221d5761221c611a64565b5b61222984828501611b03565b606083015250608082015167ffffffffffffffff81111561224d5761224c611a64565b5b61225984828501611b03565b60808301525060a061226d84828501611931565b60a08301525060c061228184828501611931565b60c08301525060e061229584828501611931565b60e0830152506101006122aa848285016117e2565b6101008301525092915050565b5f604082840312156122cc576122cb6119d8565b5b6122d66040611a4a565b90505f82015167ffffffffffffffff8111156122f5576122f4611a64565b5b61230184828501612186565b5f83015250602082015167ffffffffffffffff81111561232457612323611a64565b5b61233084828501611be9565b60208301525092915050565b5f60208284031215612351576123506113ec565b5b5f82015167ffffffffffffffff81111561236e5761236d6113f0565b5b61237a848285016122b7565b91505092915050565b7f4f6e6c7920706f7374206f776e65722063616e206c69737400000000000000005f82015250565b5f6123b760188361171f565b91506123c282612383565b602082019050919050565b5f6020820190508181035f8301526123e4816123ab565b905091905056fea26469706673582212202c3d3e7a7413f9f5a030f8a6d548f4281a4ea9fe3a506482cc345bd840de44dc64736f6c634300081c003360806040526040518060400160405280600d81526020017f506c6174666f726d546f6b656e000000000000000000000000000000000000008152505f90816100479190610398565b506040518060400160405280600481526020017f50544b4e000000000000000000000000000000000000000000000000000000008152506001908161008c9190610398565b50601260025f6101000a81548160ff021916908360ff1602179055503480156100b3575f5ffd5b50604051611a3a380380611a3a83398181016040528101906100d591906104c5565b3360055f6101000a81548173ffffffffffffffffffffffffffffffffffffffff021916908373ffffffffffffffffffffffffffffffffffffffff1602179055508060045f6101000a81548173ffffffffffffffffffffffffffffffffffffffff021916908373ffffffffffffffffffffffffffffffffffffffff160217905550506104f0565b5f81519050919050565b7f4e487b71000000000000000000000000000000000000000000000000000000005f52604160045260245ffd5b7f4e487b71000000000000000000000000000000000000000000000000000000005f52602260045260245ffd5b5f60028204905060018216806101d657607f821691505b6020821081036101e9576101e8610192565b5b50919050565b5f819050815f5260205f209050919050565b5f6020601f8301049050919050565b5f82821b905092915050565b5f6008830261024b7fffffffffffffffffffffffffffffffffffffffffffffffffffffffffffffffff82610210565b6102558683610210565b95508019841693508086168417925050509392505050565b5f819050919050565b5f819050919050565b5f61029961029461028f8461026d565b610276565b61026d565b9050919050565b5f819050919050565b6102b28361027f565b6102c66102be826102a0565b84845461021c565b825550505050565b5f5f905090565b6102dd6102ce565b6102e88184846102a9565b505050565b5b8181101561030b576103005f826102d5565b6001810190506102ee565b5050565b601f82111561035057610321816101ef565b61032a84610201565b81016020851015610339578190505b61034d61034585610201565b8301826102ed565b50505b505050565b5f82821c905092915050565b5f6103705f1984600802610355565b1980831691505092915050565b5f6103888383610361565b9150826002028217905092915050565b6103a18261015b565b67ffffffffffffffff8111156103ba576103b9610165565b5b6103c482546101bf565b6103cf82828561030f565b5f60209050601f831160018114610400575f84156103ee578287015190505b6103f8858261037d565b86555061045f565b601f19841661040e866101ef565b5f5b8281101561043557848901518255600182019150602085019450602081019050610410565b86831015610452578489015161044e601f891682610361565b8355505b6001600288020188555050505b505050505050565b5f5ffd5b5f73ffffffffffffffffffffffffffffffffffffffff82169050919050565b5f6104948261046b565b9050919050565b6104a48161048a565b81146104ae575f5ffd5b50565b5f815190506104bf8161049b565b92915050565b5f602082840312156104da576104d9610467565b5b5f6104e7848285016104b1565b91505092915050565b61153d806104fd5f395ff3fe608060405234801561000f575f5ffd5b50600436106100e8575f3560e01c806340c10f191161008a57806395d89b411161006457806395d89b411461024a578063a9059cbb14610268578063dd62ed3e14610298578063f2fde38b146102c8576100e8565b806340c10f19146101e057806370a08231146101fc5780638da5cb5b1461022c576100e8565b806318160ddd116100c657806318160ddd1461015857806323b872dd146101765780632c4d4d18146101a6578063313ce567146101c2576100e8565b806306fdde03146100ec578063075461721461010a578063095ea7b314610128575b5f5ffd5b6100f46102e4565b6040516101019190610f48565b60405180910390f35b61011261036f565b60405161011f9190610fa7565b60405180910390f35b610142600480360381019061013d9190611021565b610394565b60405161014f9190611079565b60405180910390f35b610160610481565b60405161016d91906110a1565b60405180910390f35b610190600480360381019061018b91906110ba565b610487565b60405161019d9190611079565b60405180910390f35b6101c060048036038101906101bb919061110a565b610767565b005b6101ca6108b9565b6040516101d79190611150565b60405180910390f35b6101fa60048036038101906101f59190611021565b6108cb565b005b6102166004803603810190610211919061110a565b610a9c565b60405161022391906110a1565b60405180910390f35b610234610ab1565b6040516102419190610fa7565b60405180910390f35b610252610ad6565b60405161025f9190610f48565b60405180910390f35b610282600480360381019061027d9190611021565b610b62565b60405161028f9190611079565b60405180910390f35b6102b260048036038101906102ad9190611169565b610cf8565b6040516102bf91906110a1565b60405180910390f35b6102e260048036038101906102dd919061110a565b610d18565b005b5f80546102f0906111d4565b80601f016020809104026020016040519081016040528092919081815260200182805461031c906111d4565b80156103675780601f1061033e57610100808354040283529160200191610367565b820191905f5260205f20905b81548152906001019060200180831161034a57829003601f168201915b505050505081565b60045f9054906101000a900473ffffffffffffffffffffffffffffffffffffffff1681565b5f8160075f3373ffffffffffffffffffffffffffffffffffffffff1673ffffffffffffffffffffffffffffffffffffffff1681526020019081526020015f205f8573ffffffffffffffffffffffffffffffffffffffff1673ffffffffffffffffffffffffffffffffffffffff1681526020019081526020015f20819055508273ffffffffffffffffffffffffffffffffffffffff163373ffffffffffffffffffffffffffffffffffffffff167f8c5be1e5ebec7d5bd14f71427d1e84f3dd0314c0f7b2291e5b200ac8c7c3b9258460405161046f91906110a1565b60405180910390a36001905092915050565b60035481565b5f8160065f8673ffffffffffffffffffffffffffffffffffffffff1673ffffffffffffffffffffffffffffffffffffffff1681526020019081526020015f20541015610508576040517f08c379a00000000000000000000000000000000000000000000000000000000081526004016104ff9061124e565b60405180910390fd5b8160075f8673ffffffffffffffffffffffffffffffffffffffff1673ffffffffffffffffffffffffffffffffffffffff1681526020019081526020015f205f3373ffffffffffffffffffffffffffffffffffffffff1673ffffffffffffffffffffffffffffffffffffffff1681526020019081526020015f205410156105c3576040517f08c379a00000000000000000000000000000000000000000000000000000000081526004016105ba906112b6565b60405180910390fd5b8160075f8673ffffffffffffffffffffffffffffffffffffffff1673ffffffffffffffffffffffffffffffffffffffff1681526020019081526020015f205f3373ffffffffffffffffffffffffffffffffffffffff1673ffffffffffffffffffffffffffffffffffffffff1681526020019081526020015f205f82825461064a9190611301565b925050819055508160065f8673ffffffffffffffffffffffffffffffffffffffff1673ffffffffffffffffffffffffffffffffffffffff1681526020019081526020015f205f82825461069d9190611301565b925050819055508160065f8573ffffffffffffffffffffffffffffffffffffffff1673ffffffffffffffffffffffffffffffffffffffff1681526020019081526020015f205f8282546106f09190611334565b925050819055508273ffffffffffffffffffffffffffffffffffffffff168473ffffffffffffffffffffffffffffffffffffffff167fddf252ad1be2c89b69c2b068fc378daa952ba7f163c4a11628f55a4df523b3ef8460405161075491906110a1565b60405180910390a3600190509392505050565b60055f9054906101000a900473ffffffffffffffffffffffffffffffffffffffff1673ffffffffffffffffffffffffffffffffffffffff163373ffffffffffffffffffffffffffffffffffffffff16146107f6576040517f08c379a00000000000000000000000000000000000000000000000000000000081526004016107ed906113b1565b60405180910390fd5b5f60045f9054906101000a900473ffffffffffffffffffffffffffffffffffffffff1690508160045f6101000a81548173ffffffffffffffffffffffffffffffffffffffff021916908373ffffffffffffffffffffffffffffffffffffffff1602179055508173ffffffffffffffffffffffffffffffffffffffff168173ffffffffffffffffffffffffffffffffffffffff167f3b0007eb941cf645526cbb3a4fdaecda9d28ce4843167d9263b536a1f1edc0f660405160405180910390a35050565b60025f9054906101000a900460ff1681565b60045f9054906101000a900473ffffffffffffffffffffffffffffffffffffffff1673ffffffffffffffffffffffffffffffffffffffff163373ffffffffffffffffffffffffffffffffffffffff161461095a576040517f08c379a000000000000000000000000000000000000000000000000000000000815260040161095190611419565b60405180910390fd5b5f73ffffffffffffffffffffffffffffffffffffffff168273ffffffffffffffffffffffffffffffffffffffff16036109c8576040517f08c379a00000000000000000000000000000000000000000000000000000000081526004016109bf90611481565b60405180910390fd5b8060035f8282546109d99190611334565b925050819055508060065f8473ffffffffffffffffffffffffffffffffffffffff1673ffffffffffffffffffffffffffffffffffffffff1681526020019081526020015f205f828254610a2c9190611334565b925050819055508173ffffffffffffffffffffffffffffffffffffffff165f73ffffffffffffffffffffffffffffffffffffffff167fddf252ad1be2c89b69c2b068fc378daa952ba7f163c4a11628f55a4df523b3ef83604051610a9091906110a1565b60405180910390a35050565b6006602052805f5260405f205f915090505481565b60055f9054906101000a900473ffffffffffffffffffffffffffffffffffffffff1681565b60018054610ae3906111d4565b80601f0160208091040260200160405190810160405280929190818152602001828054610b0f906111d4565b8015610b5a5780601f10610b3157610100808354040283529160200191610b5a565b820191905f5260205f20905b815481529060010190602001808311610b3d57829003601f168201915b505050505081565b5f8160065f3373ffffffffffffffffffffffffffffffffffffffff1673ffffffffffffffffffffffffffffffffffffffff1681526020019081526020015f20541015610be3576040517f08c379a0000000000000000000000000000000000000000000000000000000008152600401610bda9061124e565b60405180910390fd5b8160065f3373ffffffffffffffffffffffffffffffffffffffff1673ffffffffffffffffffffffffffffffffffffffff1681526020019081526020015f205f828254610c2f9190611301565b925050819055508160065f8573ffffffffffffffffffffffffffffffffffffffff1673ffffffffffffffffffffffffffffffffffffffff1681526020019081526020015f205f828254610c829190611334565b925050819055508273ffffffffffffffffffffffffffffffffffffffff163373ffffffffffffffffffffffffffffffffffffffff167fddf252ad1be2c89b69c2b068fc378daa952ba7f163c4a11628f55a4df523b3ef84604051610ce691906110a1565b60405180910390a36001905092915050565b6007602052815f5260405f20602052805f5260405f205f91509150505481565b60055f9054906101000a900473ffffffffffffffffffffffffffffffffffffffff1673ffffffffffffffffffffffffffffffffffffffff163373ffffffffffffffffffffffffffffffffffffffff1614610da7576040517f08c379a0000000000000000000000000000000000000000000000000000000008152600401610d9e906113b1565b60405180910390fd5b5f73ffffffffffffffffffffffffffffffffffffffff168173ffffffffffffffffffffffffffffffffffffffff1603610e15576040517f08c379a0000000000000000000000000000000000000000000000000000000008152600401610e0c906114e9565b60405180910390fd5b5f60055f9054906101000a900473ffffffffffffffffffffffffffffffffffffffff1690508160055f6101000a81548173ffffffffffffffffffffffffffffffffffffffff021916908373ffffffffffffffffffffffffffffffffffffffff1602179055508173ffffffffffffffffffffffffffffffffffffffff168173ffffffffffffffffffffffffffffffffffffffff167f8be0079c531659141344cd1fd0a4f28419497f9722a3daafe3b4186f6b6457e060405160405180910390a35050565b5f81519050919050565b5f82825260208201905092915050565b8281835e5f83830152505050565b5f601f19601f8301169050919050565b5f610f1a82610ed8565b610f248185610ee2565b9350610f34818560208601610ef2565b610f3d81610f00565b840191505092915050565b5f6020820190508181035f830152610f608184610f10565b905092915050565b5f73ffffffffffffffffffffffffffffffffffffffff82169050919050565b5f610f9182610f68565b9050919050565b610fa181610f87565b82525050565b5f602082019050610fba5f830184610f98565b92915050565b5f5ffd5b610fcd81610f87565b8114610fd7575f5ffd5b50565b5f81359050610fe881610fc4565b92915050565b5f819050919050565b61100081610fee565b811461100a575f5ffd5b50565b5f8135905061101b81610ff7565b92915050565b5f5f6040838503121561103757611036610fc0565b5b5f61104485828601610fda565b92505060206110558582860161100d565b9150509250929050565b5f8115159050919050565b6110738161105f565b82525050565b5f60208201905061108c5f83018461106a565b92915050565b61109b81610fee565b82525050565b5f6020820190506110b45f830184611092565b92915050565b5f5f5f606084860312156110d1576110d0610fc0565b5b5f6110de86828701610fda565b93505060206110ef86828701610fda565b92505060406111008682870161100d565b9150509250925092565b5f6020828403121561111f5761111e610fc0565b5b5f61112c84828501610fda565b91505092915050565b5f60ff82169050919050565b61114a81611135565b82525050565b5f6020820190506111635f830184611141565b92915050565b5f5f6040838503121561117f5761117e610fc0565b5b5f61118c85828601610fda565b925050602061119d85828601610fda565b9150509250929050565b7f4e487b71000000000000000000000000000000000000000000000000000000005f52602260045260245ffd5b5f60028204905060018216806111eb57607f821691505b6020821081036111fe576111fd6111a7565b5b50919050565b7f496e73756666696369656e742062616c616e63650000000000000000000000005f82015250565b5f611238601483610ee2565b915061124382611204565b602082019050919050565b5f6020820190508181035f8301526112658161122c565b9050919050565b7f416c6c6f77616e636520657863656564656400000000000000000000000000005f82015250565b5f6112a0601283610ee2565b91506112ab8261126c565b602082019050919050565b5f6020820190508181035f8301526112cd81611294565b9050919050565b7f4e487b71000000000000000000000000000000000000000000000000000000005f52601160045260245ffd5b5f61130b82610fee565b915061131683610fee565b925082820390508181111561132e5761132d6112d4565b5b92915050565b5f61133e82610fee565b915061134983610fee565b9250828201905080821115611361576113606112d4565b5b92915050565b7f4f6e6c79206f776e6572000000000000000000000000000000000000000000005f82015250565b5f61139b600a83610ee2565b91506113a682611367565b602082019050919050565b5f6020820190508181035f8301526113c88161138f565b9050919050565b7f4f6e6c79206d696e7465720000000000000000000000000000000000000000005f82015250565b5f611403600b83610ee2565b915061140e826113cf565b602082019050919050565b5f6020820190508181035f830152611430816113f7565b9050919050565b7f496e76616c696420726563697069656e740000000000000000000000000000005f82015250565b5f61146b601183610ee2565b915061147682611437565b602082019050919050565b5f6020820190508181035f8301526114988161145f565b9050919050565b7f496e76616c6964206e6577206f776e65720000000000000000000000000000005f82015250565b5f6114d3601183610ee2565b91506114de8261149f565b602082019050919050565b5f6020820190508181035f830152611500816114c7565b905091905056fea264697066735822122071d3a5a3ff51456697ace68f2921fd22cd4ff2456a21e6b295db3eb63404a07e64736f6c634300081c0033",
  "linkReferences": {},
  "deployedLinkReferences": {},
  "immutableReferences": {},
  "inputSourceName": "project/contracts/SocialPlatform.sol",
  "buildInfoId": "solc-0_8_28-eed1d19becd07f901a74798e6e9619765a55a27a"
}